:100000000C9407010C9419010C9419010C9419011A
:100010000C9419010C9419010C9419010C941901F8
:100020000C9419010C9419010C9419010C941901E8
:100030000C9419010C9419010C9419010C941901D8
:100040000C9419010C9419010C9419010C941901C8
:100050000C9419010C9419010C9419010C9433019E
:100060000C9419010C9419010C9419010C941901A8
:100070000C9419010C9419010C9419010C94190198
:100080000C9419010C9419010C9419010C94190188
:100090000C9419010C9419010C9419010C94190178
:1000A0000C9419010C9419010C9419010C94190168
:1000B0000C9419010C9419010C9419010C94190158
:1000C0000C9419010C9419010C9419010C94190148
:1000D0000C9419010C9419010C9419010C94190138
:1000E0000C94190143024602350239023F027D0297
:1000F0004A024E02540258025C02620266026A021E
:100100007D0270027402780200000A0B02090C0DD5
:100110000E080703040100000000000000000000BA
:1001200000000000000000000000000000000000CF
:10013000000000001211100000000000000000008C
:1001400000000000000000000000000000000102AC
:1001500010202008081020401020408002010201D9
:100160000804020101020408102040808040201091
:1001700008040201800402018040201008040201EA
:100180000804020101020408102040800102040852
:10019000102040800505050507050808080802022B
:1001A00002020A0A08080404040401010101010111
:1001B00001010303030303030303040707070C0CF4
:1001C0000C0C0C0C0C0C02020202060606060606BB
:1001D00006060B0B0B0B0B0B0B0B00002200250074
:1001E00028002B002E003100340002010000050120
:1001F00008010B0100002100240027002A002D0027
:100200003000330001010000040107010A0111243C
:100210001FBECFEFD1E2DEBFCDBF22E0A0E0B2E053
:1002200001C01D92A930B207E1F70E94EE020C94C2
:1002300004030C94000061E087E30C947E0261E00B
:1002400087E30E94B70268EE73E080E090E00E94CE
:10025000A00160E087E30E94B70268EE73E080E0EF
:1002600090E00C94A0011F920F920FB60F921124F0
:100270002F933F938F939F93AF93BF9380910102EE
:1002800090910202A0910302B09104023091000209
:1002900023E0230F2D3720F40196A11DB11D05C0C9
:1002A00026E8230F0296A11DB11D20930002809322
:1002B000010290930202A0930302B0930402809182
:1002C000050290910602A0910702B09108020196E2
:1002D000A11DB11D8093050290930602A093070211
:1002E000B0930802BF91AF919F918F913F912F9151
:1002F0000F900FBE0F901F9018953FB7F894809104
:10030000050290910602A0910702B091080226B55D
:10031000A89B05C02F3F19F00196A11DB11D3FBF3D
:100320006627782F892F9A2F620F711D811D911DCD
:1003300042E0660F771F881F991F4A95D1F70895ED
:10034000CF92DF92EF92FF92CF93DF936B017C010C
:100350000E947D01EB01C114D104E104F10489F094
:100360000E94FD020E947D016C1B7D0B683E734064
:1003700090F381E0C81AD108E108F108C851DC4FB8
:10038000EACFDF91CF91FF90EF90DF90CF9008956B
:10039000789484B5826084BD84B5816084BD85B560
:1003A000826085BD85B5816085BDEEE6F0E0808127
:1003B00081608083E1E8F0E0108280818260808348
:1003C000808181608083E0E8F0E0808181608083CB
:1003D000E1EBF0E0808184608083E0EBF0E08081FD
:1003E00081608083E1E9F0E08081826080838081A8
:1003F00081608083E0E9F0E0808181608083E1EAD0
:10040000F0E0808182608083808181608083E0EA87
:10041000F0E0808181608083E1E2F1E080818260B0
:100420008083808181608083E0E2F1E0808181606F
:100430008083EAE7F0E0808184608083808182604D
:100440008083808181608083808180688083109236
:10045000C100089590E0FC013197E231F10508F008
:100460004CC0EE58FF4F0C94FE02809180008F77B5
:1004700003C0809180008F7D8093800008958091DB
:100480008000877FF9CF84B58F7702C084B58F7DD8
:1004900084BD08958091B0008F7703C08091B00033
:1004A0008F7D8093B0000895809190008F7707C072
:1004B000809190008F7D03C080919000877F809312
:1004C000900008958091A0008F7707C08091A000D0
:1004D0008F7D03C08091A000877F8093A000089546
:1004E000809120018F7707C0809120018F7D03C00C
:1004F00080912001877F809320010895CF93DF931F
:1005000090E0FC01E25BFE4F2491FC01EC56FE4FB3
:100510008491882349F190E0880F991FFC01EC50E9
:10052000FE4FA591B49186529E4FFC01C591D49186
:100530009FB7611108C0F8948C91209582238C9309
:10054000888182230AC0623051F4F8948C91322F52
:10055000309583238C938881822B888304C0F89400
:100560008C91822B8C939FBFDF91CF9108950F9335
:100570001F93CF93DF931F92CDB7DEB7282F30E0C4
:10058000F901E85FFE4F8491F901E25BFE4F14919F
:10059000F901EC56FE4F04910023C9F0882321F0A5
:1005A00069830E942A026981E02FF0E0EE0FFF1FAD
:1005B000E652FE4FA591B4919FB7F8948C916111CA
:1005C00003C01095812301C0812B8C939FBF0F9096
:1005D000DF91CF911F910F91089508950E94C80156
:1005E0000E94ED020E941B01C0E0D0E00E941F01AA
:1005F0002097E1F30E940000F9CF0895EE0FFF1F4E
:0C0600000590F491E02D0994F894FFCFD0
:00000001FF
