:100000000C9489000C949B000C949B000C949B0016
:100010000C949B000C949B000C949B000C949B00F4
:100020000C949B000C949B000C949B000C949B00E4
:100030000C949B000C949B000C949B000C949B00D4
:100040000C949B000C949B000C94B5000C949B00AA
:100050000C949B000C949B000C949B000C949B00B4
:100060000C949B000C949B000C949B000C949B00A4
:100070000C949B000C949B000C949B000C949B0094
:100080000C949B000C949B000C949B00A601A9016E
:100090009C01A001C001AD01B101B701BB0100008D
:1000A0000001020000000000000004030706000039
:1000B000000000000000000000000000000001023D
:1000C0000408102040800102040810204080010232
:1000D0000408102040808040201008040201020221
:1000E00002020202020204040404040404040303DE
:1000F00003030303030301010101010101010000E6
:100100002200250028002B000000210024002700E9
:100110002A0011241FBECFEFD0E4DEBFCDBF21E007
:10012000A0E0B1E001C01D92A930B207E1F70E9442
:1001300031020C9447020C94000061E08BE10C94B6
:10014000C10161E08BE10E94FA0164E670E080E0A9
:1001500090E00E94220160E08BE10E94FA0164E6D7
:1001600070E080E090E00C9422011F920F920FB695
:100170000F9211242F933F938F939F93AF93BF932D
:100180008091010190910201A0910301B0910401BD
:100190003091000123E0230F2D3720F40196A11D9B
:1001A000B11D05C026E8230F0296A11DB11D2093A5
:1001B00000018093010190930201A0930301B09389
:1001C00004018091050190910601A0910701B09171
:1001D00008010196A11DB11D8093050190930601B0
:1001E000A0930701B0930801BF91AF919F918F91A8
:1001F0003F912F910F900FBE0F901F9018953FB712
:10020000F8948091050190910601A0910701B091A9
:10021000080126B5A89B05C02F3F19F00196A11D26
:10022000B11D3FBF6627782F892F9A2F620F711D4E
:10023000811D911D42E0660F771F881F991F4A9507
:10024000D1F70895CF92DF92EF92FF92CF93DF9391
:100250006B017C010E94FF00EB01C114D104E10499
:10026000F10489F00E9440020E94FF006C1B7D0B8C
:10027000683E734090F381E0C81AD108E108F108A4
:10028000C851DC4FEACFDF91CF91FF90EF90DF9024
:10029000CF900895789484B5826084BD84B58160E0
:1002A00084BD85B5826085BD85B5816085BDEEE67E
:1002B000F0E0808181608083E1E8F0E0108280815D
:1002C00082608083808181608083E0E8F0E08081CB
:1002D00081608083E1EBF0E0808184608083E0EBEB
:1002E000F0E0808181608083E1E9F0E080818260DC
:1002F0008083808181608083E0E9F0E0808181609B
:100300008083EAE7F0E0808184608083808182607E
:100310008083808181608083808180688083109267
:10032000C100089590E0FC013197E930F10540F5F6
:10033000EA5BFF4F0C944102809180008F7703C0ED
:10034000809180008F7D80938000089584B58F77A1
:1003500002C084B58F7D84BD08958091B0008F77F1
:1003600003C08091B0008F7D8093B000089580918C
:1003700090008F7703C0809190008F7D80939000D4
:100380000895CF93DF9390E0FC01E254FF4F249156
:10039000FC01E252FF4F8491882349F190E0880FDD
:1003A000991FFC01E85FFE4FA591B49182509F4FC9
:1003B000FC01C591D4919FB7611108C0F8948C914C
:1003C000209582238C93888182230AC0623051F465
:1003D000F8948C91322F309583238C938881822BD3
:1003E000888304C0F8948C91822B8C939FBFDF91FB
:1003F000CF9108950F931F93CF93DF931F92CDB7A3
:10040000DEB7282F30E0F901E256FF4F8491F90161
:10041000E254FF4F1491F901E252FF4F049100237F
:10042000C9F0882321F069830E9492016981E02F3D
:10043000F0E0EE0FFF1FE250FF4FA591B4919FB780
:10044000F8948C91611103C01095812301C0812B18
:100450008C939FBF0F90DF91CF911F910F910895C3
:1004600008950E944A010E9430020E949D00C0E04F
:10047000D0E00E94A1002097E1F30E940000F9CF94
:100480000895EE0FFF1F0590F491E02D0994F89464
:02049000FFCF9C
:00000001FF
