:100000000C94841A0C94B51A0C94B51A0C94B51A65
:100010000C94B51A0C94B51A0C94B51A0C94B51A24
:100020000C94B51A0C94B51A0C94B51A0C94B51A14
:100030000C94B51A0C94B51A0C94B51A0C94B51A04
:100040000C94B51A0C94E5A10C94B51A0C94B51A3D
:100050000C94B51A0C94B51A0C942BB60D942A0076
:100060000C94B51A0C94E06A0C94B51A0C94B51A59
:100070000C94B51A0C94B51A0C94B51A0C94B51AC4
:100080000C94B51A0C94B51A0C94B51A0C94B51AB4
:100090000C94B51A0C94B51A0C94B51A0C9421F959
:1000A0000C94B51A0C94B51A0C94B51A0C94B51A94
:1000B0000C94B51A0C94B51A0C94B51A0C94B51A84
:1000C0000C94B51A0C94B51A0C94B51A0C94B51A74
:1000D0000C94B51A0C94B51A0C94B51A0C94B51A64
:1000E0000C94B51A89B699B6B8B6C8B6E3B6E8B6F0
:1000F000EBB6F0B6F3B6F8B6FBB600B70AB70D012B
:10010000F700D900E500FD00E7000B01FF00E30068
:10011000EB000901D500EF00D700E700F900C900A6
:10012000ED0003010501F500F100CD00F300E10051
:100130000F01CF00DB00D300E9000701DF00F3006F
:100140000101D100DD00084AD73B3BCE016E84BCE3
:10015000BFFDC12F3D6C74319ABD56833DDA3D0021
:10016000C77F11BED9E4BB4C3E916BAAAABE00006A
:1001700000803F05A84CCDB2D44EB93836A9020C48
:1001800050B9918688083CA6AAAA2ABE0000008021
:100190003F000D94DA010D9429000D940B020D948B
:1001A00020020D9440020D9428020D94AD010D948F
:1001B000C6010D9461010D9424020D9444020D9426
:1001C00036020D9416020D948F010D946B010D945F
:1001D000EE010D942E020D9499010D94E4010D94FD
:1001E000BC010D9405020D9449020D9401020D9479
:1001F0005C010D94D0010D94EE020D9475010D94E7
:1002000087010D943C020D940F020D9412020D947F
:1002100032020D94A3010D947F010D9457010D94AA
:100220001A024D383420582059205A204500436185
:100230006E6E6F7420656E7465722073756264698A
:10024000723A20006175746F25692E6700657272BD
:100250006F722077726974696E6720746F206669A7
:100260006C65004E6F74205344207072696E74691F
:100270006E67005344207072696E74696E67206205
:10028000797465200044656C6574696F6E206661E1
:10029000696C65642C2046696C653A200046696C7F
:1002A000652064656C657465643A006F70656E20E6
:1002B0006661696C65642C2046696C653A2000575C
:1002C000726974696E6720746F2066696C653A2084
:1002D000002E0A006F70656E206661696C65642C83
:1002E0002046696C653A20002E0A006F70656E200A
:1002F0006661696C65642C2046696C653A2000462D
:10030000696C652073656C6563746564002053696E
:100310007A653A200046696C65206F70656E656489
:100320003A20006F70656E206661696C65642C20F0
:1003300046696C653A20004E6F7720667265736877
:100340002066696C653A20004E6F7720646F696E95
:10035000672066696C653A20002220706F73002266
:1003600020706172656E743A2200535542524F55A7
:1003700054494E452043414C4C207461726765746A
:100380003A22004D4F52542E00747279696E6720E4
:10039000746F2063616C6C207375622D67636F648A
:1003A000652066696C6573207769746820746F6F67
:1003B000206D616E79206C6576656C732E204D41E1
:1003C00058206C6576656C2069733A004D323400B4
:1003D0004D32332025730053442063617264206FD3
:1003E0006B006F70656E526F6F74206661696C652B
:1003F0006400766F6C756D652E696E697420666138
:10040000696C656400534420696E69742066616993
:100410006C0020204D383531205A005A2D50726F13
:100420006265204F666673657420286D6D293A00F9
:1004300020204D3230302044300020204D323030EA
:100440002044002044697361626C65640046696CF5
:10045000616D656E742073657474696E67733A00BC
:10046000204C0020430020440020490020204D3330
:1004700030312050005049442073657474696E67B0
:10048000733A0020460020420020204D31343520B0
:10049000533120480020460020420020204D3134B6
:1004A000352053302048004D6174657269616C20BD
:1004B00068656174757020706172616D65746572D4
:1004C000733A00205A0020590020204D3230362047
:1004D0005800486F6D65206F666673657420286DDF
:1004E0006D293A00204500205A0020580020420083
:1004F00020540020204D3230352053004164766175
:100500006E636564207661726961626C65733A201E
:10051000533D4D696E20666565647261746520287F
:100520006D6D2F73292C20543D4D696E20747261BE
:1005300076656C20666565647261746520286D6DF2
:100540002F73292C20423D6D696E696D756D207386
:1005500065676D656E742074696D6520286D7329FB
:100560002C20583D6D6178696D756D205859206A51
:1005700065726B20286D6D2F73292C20205A3D6DDC
:100580006178696D756D205A206A65726B20286DDF
:100590006D2F73292C2020453D6D6178696D756D37
:1005A0002045206A65726B20286D6D2F732900200D
:1005B000540020520020204D32303420500041633E
:1005C00063656C65726174696F6E733A20503D703B
:1005D00072696E74696E672C20523D726574726127
:1005E000637420616E6420543D74726176656C00A2
:1005F000204500205A0020590020204D3230312063
:1006000058004D6178696D756D20416363656C6557
:10061000726174696F6E20286D6D2F7332293A00F4
:10062000204500205A0020590020204D3230332030
:1006300058004D6178696D756D20666565647261FD
:1006400074657320286D6D2F73293A0020450020B2
:100650005A0020590020204D39322058005374652B
:1006600070732070657220756E69743A004861720B
:1006700064636F6465642044656661756C742053BF
:10068000657474696E6773204C6F616465640020E3
:10069000627974657329002073746F7265642073C6
:1006A000657474696E6773207265747269657665C6
:1006B000642028002062797465732900536574747E
:1006C000696E67732053746F7265642028004572E9
:1006D000726F722077726974696E6720746F20453B
:1006E0004550524F4D21005072696E7465722068FA
:1006F000616C7465642E206B696C6C2829206361C1
:100700006C6C656421004D4F52542E004D4F525475
:100710002E0020746F6F206C6F6E67206578747286
:100720007573696F6E2070726576656E74656400AE
:1007300020636F6C6420657874727573696F6E20C6
:1007400070726576656E746564004F4B0052657318
:10075000656E643A20003A20007A5F6D61783A2035
:10076000007A5F6D696E3A2000446563616C616771
:1007700065205A00446563616C6167657320617030
:10078000706C6971756573004572723A20546F6FB1
:10079000206661722100546F6F206661722066725C
:1007A0006F6D207265666572656E636520706F6936
:1007B0006E740053657474696E6720547261766557
:1007C0006C20416363656C65726174696F6E3A2079
:1007D0000053657474696E67205265747261637446
:1007E00020416363656C65726174696F6E3A2000C5
:1007F00053657474696E67205072696E742041632A
:1008000063656C65726174696F6E3A20005365743C
:1008100074696E67205072696E7420616E64205432
:10082000726176656C20416363656C6572617469A1
:100830006F6E3A20004D31343520533C696E64654B
:10084000783E206F7574206F662072616E67652038
:1008500028302D3129007A5F6D696E3A2000795F6A
:100860006D696E3A2000785F6D696E3A2000205AFB
:100870003A0020593A0020436F756E7420583A2090
:100880000020453A00205A3A0020593A00583A00D0
:100890004649524D574152455F4E414D453A4D6193
:1008A000726C696E20312E312E302D524337202844
:1008B0004769746875622920534F555243455F4319
:1008C0004F44455F55524C3A68747470733A2F2FF9
:1008D0006769746875622E636F6D2F4D61726C6904
:1008E0006E4669726D776172652F4D61726C696ECB
:1008F0002050524F544F434F4C5F56455253494F2F
:100900004E3A312E30204D414348494E455F5459AF
:1009100050453A4578706C6F7265722033353020DF
:1009200045585452554445525F434F554E543A3101
:1009300020555549443A63656465326132662D3409
:100940003161322D343734382D396231322D6335EF
:10095000356336326633363766660A004578706C22
:100960006F726572203335302041727265742E00CB
:100970004578706C6F726572203335302070726507
:1009800074652E004368617566666520706C6174DD
:10099000656175207465726D696E6565003F002044
:1009A000573A00506C617465617520656E2063680C
:1009B00061756666652E2E2E0043686175666665F4
:1009C000207465726D696E6565003F0020573A00BE
:1009D000456E20636861756666652E2E2E0045782B
:1009E000706C6F726572203335302070726574657B
:1009F0002E004F4B004D3131332053004D4F525498
:100A00002E004543484F00494E464F004552524F35
:100A100052530044525952554E00434F4D4D554E7E
:100A200049434154494F4E006F666600020A070A67
:100A30000C0A130A1A0A44454255473A00456E20EB
:100A4000636861756666652E2E2E004578706C6F42
:100A5000726572203335302070726574652E0053D4
:100A600074616E6461726420446576696174696F53
:100A70006E3A20004D65616E3A2000202020736997
:100A8000676D613A2000206D65616E3A200020207C
:100A9000207A3A2000206F66200020207A3A200039
:100AA000793A2000783A2000202020616E676C653A
:100AB0003A20005374617274696E672072616469D0
:100AC00075733A2000506F736974696F6E696E6751
:100AD000207468652070726F62652E2E2E0A003FAA
:100AE0004E756D626572206F66206C656773206954
:100AF0006E206D6F76656D656E74206E6F742070FC
:100B00006C61757369626C652028302D3135292E32
:100B10000A00590058003F53616D706C652073697D
:100B20007A65206E6F7420706C61757369626C6594
:100B30002028342D3530292E0A004D3438205A2DE6
:100B400050726F6265205265706561746162696C94
:100B500069747920746573740A003F566572626F18
:100B60007365204C6576656C206E6F7420706C61C7
:100B7000757369626C652028302D34292E0A002592
:100B800069206D696E2C2025692073656300456EB0
:100B9000642066696C65206C6973740042656769DE
:100BA0006E2066696C65206C6973740041756375AD
:100BB0006E206D6F7576656D656E742E004578706C
:100BC0006C6F726572203335302070726574652EDB
:100BD0000052657072692E206465206C27696D7003
:100BE000722E00417474656E2E206465206C27752A
:100BF00074696C2E005445535400205A3A2000204A
:100C0000593A200042656420583A2000205A3A2080
:100C10000020593A200042656420583A2000202BD9
:100C200000200A436F7272656374656420426564D4
:100C3000204865696768742076732E2042656420B9
:100C4000546F706F6C6F67793A200A00202B002078
:100C500028302C30290A002020204F2D2D204652EC
:100C60004F4E54202D2D2B0A002020207C202020A8
:100C700020202020202020207C0A002020207C20F2
:100C8000202020282D29202020207C20540A0020EC
:100C900054207C20202020202020202020207C2068
:100CA000480A002046207C20282D29204E20282B71
:100CB00029207C20470A002045207C20202020205D
:100CC0002020202020207C20490A00204C207C204D
:100CD000202020282B29202020207C20520A0020A0
:100CE00020207C20202020202020202020207C0A62
:100CF000002020202B2D2D2D204241434B202D2D37
:100D00002B0A00200A4265642048656967687420E0
:100D1000546F706F6772617068793A200A004D6590
:100D2000616E206F662073616D706C656420706FFA
:100D3000696E74733A200020643A200020623A20E1
:100D40000045716E20636F656666696369656E74E0
:100D5000733A20613A200028422961636B002846DB
:100D600029726F6E74002852296967687400284CD4
:100D700029656674003F4E756D626572206F66204E
:100D800070726F626564202850296F696E747320D9
:100D9000697320696D706C61757369626C65202878
:100DA00032206D696E696D756D292E0A0052756E5F
:100DB0006E696E6720696E204452592D52554E203F
:100DC0006D6F646500473239204175746F2042654C
:100DD00064204C6576656C696E670A003F28562969
:100DE0006572626F7365204C6576656C206973204F
:100DF000696D706C61757369626C652028302D3483
:100E0000292E005265762E2064616E732058592079
:100E100061762E5A005265762E2064616E732058DA
:100E2000592061762E5A005761726E696E673A20BA
:100E3000486F6D696E672042756D702044697669F0
:100E4000736F72203C2031005A20736F6E646520EE
:100E5000657874652E206C6974005A20736F6E6417
:100E60006520657874652E206C6974005265706F1A
:100E7000732E2E2E0020403A002042403A00202FB0
:100E80000020423A00202F0020543A0020706F7357
:100E90006974696F6E206F7574206F662072616E61
:100EA00067652E003F50726F62652000627573792E
:100EB0003A2070617573656420666F7220696E7088
:100EC000757400627573793A20706175736564207A
:100ED000666F72207573657200627573793A20705F
:100EE000726F63657373696E6700220A00556E6BDB
:100EF0006E6F776E20636F6D6D616E643A202200B5
:100F000020496E76616C69642065787472756465D9
:100F10007220002569206865757265732025692037
:100F20006D696E7574657300446F6E6520707269CB
:100F30006E74696E672066696C65004D4F52542E61
:100F40000053544F5050452E005072696E746572B4
:100F50002073746F707065642064756520746F20F1
:100F60006572726F72732E204669782074686520EE
:100F70006572726F7220616E6420757365204D39E1
:100F8000393920746F20726573746172742E202851
:100F900054656D7065726174757265206973207235
:100FA000657365742E2053657420697420616674BE
:100FB00065722072657374617274696E6729004E80
:100FC0006F204C696E65204E756D62657220776981
:100FD000746820636865636B73756D2C204C617356
:100FE00074204C696E653A20004E6F20436865633B
:100FF0006B73756D2077697468206C696E65206EFF
:10100000756D6265722C204C617374204C696E653D
:101010003A2000636865636B73756D206D69736D4D
:10102000617463682C204C617374204C696E653A5E
:1010300020004C696E65204E756D62657220697383
:10104000206E6F74204C617374204C696E65204E65
:10105000756D6265722B312C204C617374204C6964
:101060006E653A20004D31313000446F6E6520735B
:101070006176696E672066696C652E004D323900B5
:101080002020506C616E6E657242756666657242B4
:10109000797465733A20002046726565204D656D50
:1010A0006F72793A20004A756E203230203230312A
:1010B0003600436F6D70696C65643A2000286E6F6E
:1010C0006E652C2064656661756C7420636F6E6656
:1010D00069672900207C20417574686F723A20008E
:1010E000323031362D30342D32342031323A3030F6
:1010F00000204C61737420557064617465643A20FB
:101100000020312E312E302D524337004D61726C4C
:10111000696E0020536F6674776172652052657343
:10112000657400205761746368646F67205265734B
:101130006574002042726F776E206F75742052655F
:10114000736574002045787465726E616C20526519
:1011500073657400506F77657255700073746172B7
:1011600074002200656E7175657565696E67202271
:1011700000FFFFFF0000A0400000A0400000004072
:101180000080CB430080C9430000AF430000C8C1CA
:10119000000070C1000000000000BF430000C24317
:1011A0000000AF430000C8C1000070C10000000093
:1011B0006563686F3A004572726F723A0020746F0F
:1011C0006F206C6F6E6720657874727573696F6ECF
:1011D0002070726576656E7465640020636F6C6460
:1011E00020657874727573696F6E207072657665AC
:1011F0006E746564007C3C3E5E2B3D3F2F5B5D3B27
:101200002C2A225C004D383420582059205A204581
:1012100000456E6473746F7073202563202563200E
:10122000256320256300205A3A0020593A002058AF
:101230003A00656E6473746F7073206869743A2045
:101240000024F4D43050C38E20C2A24017828B7089
:1012500011127A910D816CD90AA861E108C758660C
:1012600007615143061E4B5D05C145A7041A411194
:1012700004093D9803713931034036DB026533912F
:1012800002D4305402802E1D02632CEE01752AC553
:1012900001B028A001102781018F2564012B244B68
:1012A00001E0223401AC211F018D200D01801FFCC3
:1012B00000841EED00971DDF00B81CD200E61BC69F
:1012C00000201BBC00641AB200B219A8000A19A0C1
:1012D000006A189900D117910040178B00B5168449
:1012E0000031167E00B31579003A157300C7146FEC
:1012F0000058146A00EE1366008813630025135E1D
:1013000000C7125B006C12570015125400C1115136
:101310000070114F0021114B00D61049008D10476D
:10132000004610440002104200C00F4000800F3EF3
:1013300000420F3C00060F3B00CB0E3800930E37E7
:10134000005C0E3500270E3400F30D3200C10D3164
:1013500000900D3000600D2E00320D2D00050D2C7B
:1013600000D90C2B00AE0C2900850C29005C0C2741
:1013700000350C27000E0C2600E80B2400C40B24BB
:1013800000A00B23007D0B23005A0B2100390B21F9
:1013900000180B2000F80A1F00D90A1E00BB0A1E05
:1013A000009D0A1D00800A1D00630A1C00470A1BDD
:1013B000002C0A1B00110A1A00F7091A00DD09198E
:1013C00000C4091900AB091900920917007B09181C
:1013D00000630917004C091600360916002009168B
:1013E000000A091500F5081500E0081400CC0814DF
:1013F00000B8081400A4081400900813007D081217
:10140000006B081300580812004608120034081137
:1014100000230811001208110001081100F0071044
:1014200000E0071000D0071000C0071000B0070F41
:1014300000A107100091070E0083070F0074070F2B
:101440000065070E0057070E0049070E003B070D09
:10145000002E070E0020070D0013070D0006070DD4
:1014600000F9060C00ED060D00E0060C00D4060C99
:1014700000C8060C00BC060C00B0060C00A4060B4D
:101480000099060C008D060B0082060B0077060BF8
:10149000006C060B0061060A0057060B004C060A9A
:1014A0000042060A0038060A002E060A0024060A30
:1014B000001A060A001006090007060A00FD0509C1
:1014C00000F4050900EB050900E2050900D905094A
:1014D00000D0050900C7050900BE050900B50508CB
:1014E00000AD050800A50509009C05080094050845
:1014F000008C050800840508007C050800740508B8
:10150000006C050700650508005D05070056050825
:10151000004E05070047050700400508003805078D
:1015200000310507002A050700230507001C0506F2
:1015300000160507000F050700080506000205074D
:1015400000FB040600F5040700EE040600E80406AC
:1015500000E2040700DB040600D5040600CF040601
:1015600000C9040600C3040600BD040600B7040653
:1015700000B1040500AC040600A6040600A00405A2
:10158000009B04060095040500900406008A0405EB
:101590000085040500800406007A04050075040532
:1015A00000700405006B0405006604050061040575
:1015B000005C04050057040500520405004D0405B5
:1015C0000048040500430405003E0404003A0405F5
:1015D0000035040500300404002C04050027040431
:1015E00000230405001E0404001A04040016040568
:1015F00000110404000D040400090405000404049F
:101600000000040400FC030400F8030400F40304D5
:1016100000F0030400EC030400E8030400E4030406
:1016200000E0030400DC030400D8030400D4030436
:1016300000D0030400CC030400C8030300C5030367
:101640000024F404D9201BC40C5C0E9804C4095F68
:101650000265077101F405F900FB04B30048048733
:1016600000C10369005803550003034500BE023A58
:10167000008402310053022A0029022500040220BE
:1016800000E4011C00C8011900AF01170098011403
:101690000084011300710110006101100051010E5E
:1016A0000043010D0036010B002B010B0020010B44
:1016B00000150109000C01090003010800FB0008E6
:1016C00000F3000800EB000700E4000600DE00065F
:1016D00000D8000600D2000600CC000500C70005B7
:1016E00000C2000500BD000400B9000400B50004FC
:1016F00000B1000400AD000400A9000400A500032F
:1017000000A20003009F0004009B00030098000358
:10171000009500020093000300900003008D00027A
:10172000008B000300880002008600020084000392
:1017300000810002007F0002007D0002007B0002A9
:1017400000790002007700010076000200740002B8
:101750000072000100710002006F0002006D0001C4
:10176000006C0002006A00010069000200670001CD
:1017700000660001006500010064000200620001D3
:101780000061000100600001005F0002005D0001D7
:10179000005C0001005B0001005A000100590001DB
:1017A00000580001005700010056000100550001DB
:1017B00000540001005300000053000100520001DA
:1017C0000051000100500001004F0001004E0000D8
:1017D000004E0001004D0001004C0001004B0000D4
:1017E000004B0001004A00010049000100480000D0
:1017F00000480001004700010046000000460001CB
:1018000000450000004500010044000100430000C5
:1018100000430001004200000042000100410000BE
:101820000041000100400001003F0000003F0001B6
:10183000003E0000003E0001003D0000003D0001B0
:10184000003C0000003C0000003C0001003B0000A8
:10185000003B0001003A0000003A0001003900009E
:101860000039000100380000003800000038000195
:10187000003700000037000100360000003600008D
:101880000036000100350000003500000035000181
:101890000034000000340000003400010033000078
:1018A000003300000033000100320000003200006D
:1018B0000032000100310000003100000031000161
:1018C000003000000030000000300001002F000058
:1018D000002F0000002F0000002F0001002E00004C
:1018E000002E0000002E0001002D0000002D000041
:1018F000002D0000002D0001002C0000002C000035
:10190000002C0000002C0001002B0000002B000028
:10191000002B0000002B0001002A0000002A00001C
:10192000002A0000002A0001002900000029000010
:101930000029000000290000002900010028000003
:1019400000280000002800000028000000280001F6
:1019500000270000002700000027000000270000EB
:1019600000270001002600000026000000260000DD
:1019700000260000002600010025000000250000D0
:1019800000250000002500000025000000250001C2
:1019900000240000002400000024000000240000B7
:1019A00000240001002300000023000000230000A9
:1019B000002300000023000000230000002300019A
:1019C000002200000022000000220000002200008F
:1019D0000022000000220001002100000021000080
:1019E0000021000000210000002100000021000073
:1019F0000021000100200000002000000020000065
:101A00000020000000200000002000000020000056
:101A100000200001001F0000001F0000001F000048
:101A2000001F0000001F0000001F0000001F000139
:101A3000001E0000001E0000001E0000001E00002E
:101A4000004D494E54454D50207472696767657268
:101A50006564004572723A2054454D502E204D4920
:101A60004E20504C4154454155004D415854454D30
:101A70005020747269676765726564004572723AD6
:101A80002054454D502E204D415820504C41544536
:101A9000415500546865726D616C2052756E6177B6
:101AA000617900454D42414C4C454D454E542054C2
:101AB0004845524D495155450048656174696E6706
:101AC000206661696C656400457272657572206498
:101AD000652063686175666665004D494E54454DE5
:101AE0005020747269676765726564004572723A66
:101AF0002054454D502E204D494E00626564002C07
:101B00002073797374656D2073746F7070656421D0
:101B1000204865617465725F49443A20004D415820
:101B200054454D502074726967676572656400455D
:101B300072723A2054454D502E204D415800236476
:101B40006566696E65202044454641554C545F4B9F
:101B500064200023646566696E6520204445464123
:101B6000554C545F4B69200023646566696E65209F
:101B70002044454641554C545F4B70200050494429
:101B8000204175746F74756E652066696E6973683F
:101B90006564212050757420746865206C617374CD
:101BA000204B702C204B6920616E64204B642063B5
:101BB0006F6E7374616E74732066726F6D206265F0
:101BC0006C6F7720696E746F20436F6E66696775FE
:101BD000726174696F6E2E680050494420417574BB
:101BE0006F74756E65206661696C65642120746927
:101BF0006D656F757400504944204175746F74753C
:101C00006E65206661696C6564212054656D706540
:101C100072617475726520746F6F206869676800FF
:101C2000204B643A2000204B693A2000204B703A48
:101C3000200020436C617373696320504944200085
:101C40002054753A2000204B753A2000206D6178B1
:101C50003A2000206D696E3A200020643A2000206E
:101C6000626961733A2000500040016000360170E3
:101C7000002C0180002701A0001D01B0001801C048
:101C8000001301000109014001FE006001FA00D0CB
:101C900001F0004002E600D002DE000003D7004061
:101CA00003D0008004CA00B004C4006005C00090E6
:101CB00005BC00A006B6008007AE003008AA00F000
:101CC00008A6008009A200800A9E00800B9900B03F
:101CD0000C9600D00D9100000F8F0000128600704E
:101CE000157D0040197400F01D6B009022620050B9
:101CF000275900602C4E00D0304500C0343C00C055
:101D0000373200403A2900A03C1D00803E140020DC
:101D10003F0A000040EFFE436172746520726574F3
:101D20006972656500436172746520696E736572DE
:101D30006565004D3432380020003F000920005A0C
:101D40000059005800426162797374657070696E61
:101D500067205800426162797374657070696E67BC
:101D6000205900426162797374657070696E6720F2
:101D70005A004261627973746570205A0042616250
:101D8000797374657020590042616279737465706B
:101D9000205800466C757800466C7578005669745A
:101DA000652E2076656E74696C6174657572005677
:101DB0006974652E2076656E74696C6174657572E0
:101DC00000506C617465617500506C61746561757B
:101DD000004275736500427573650020566974652D
:101DE000737365002056697465737365004D656E85
:101DF00075207072696E636970616C004465706C07
:101E00002E2058004465706C2E2059004465706C7B
:101E10002E205A0045787472756465720045787496
:101E20007275646572004465706C2E205A004465BA
:101E3000706C2E2059004465706C2E20580044654B
:101E4000706C6163657220756E2061786500446511
:101E5000706C2E20302E316D6D004465706C2E201C
:101E6000316D6D004465706C2E2031306D6D005009
:101E7000726570617265720050726563682E2050E1
:101E80004C4120506C6174656175005072656368E7
:101E90006175666661676520504C410050726570DF
:101EA000617265720020202050617469656E7465EE
:101EB0007A2E2E2E004F4B00202020536175766520
:101EC00067617264657300202020506172616D65E6
:101ED00074726573004730205A3000473238007002
:101EE0007569732076616C6964657A004465706C0D
:101EF0002E205A00656E207265676C616E74206CCE
:101F0000276F66667365740050696E63657A206C2E
:101F10006120666575696C6C65004F4B0070756972
:101F200073206170707579657A20737572204F4BDC
:101F300000656E20646573736F7573206465206C33
:101F400061206275736500476C697373657A2075EB
:101F50006E6520666575696C6C65004732380047B0
:101F600030205A300047323800446563616C616745
:101F700065205A00446563616C616765205A0052B0
:101F800065696E697469616C6973657200416E6E32
:101F9000756C65720050726563682E204142532053
:101FA000506C617465617500507265636861756637
:101FB00066616765204142530050726570617265C9
:101FC00072004D38340041727265746572206D6F15
:101FD0007465757273005265676C65722064656321
:101FE000616C2E206F726967696E6500507265635F
:101FF0006861756666616765204142530047323803
:102000000A47323900473239005265676C2E204E3C
:1020100069762E20506C6174656175004732380016
:102020004F726967696E65206175746F2E004D652A
:102030006E75207072696E636970616C004F7074A8
:10204000696F6E73206176616E63656573004D38EC
:102050003000416C6C756D657220616C696D2E008D
:102060004D383100457465696E64726520616C6934
:102070006D2E00526566726F696469720052656701
:102080006C2E205A204F666673657400507265632B
:10209000686175666661676520504C4100446570F3
:1020A0006C6163657220756E20617865004D656EA8
:1020B00075207072696E636970616C00536175762A
:1020C000657220636F6E66696700506C617465614C
:1020D0007500506C617465617500427573650042EE
:1020E00075736500566974652E2076656E74696C2B
:1020F000617465757200566974652E2076656E741C
:10210000696C61746575720054656D706572617497
:102110007572650053617576657220636F6E6669CE
:102120006700506C617465617500506C6174656125
:102130007500427573650042757365005669746574
:102140002E2076656E74696C6174657572005669CF
:1021500074652E2076656E74696C617465757200A5
:1021600054656D7065726174757265005265676C57
:102170002E2070726563682E2041425300526567BD
:102180006C2E2070726563682E20504C41005049BF
:10219000442D43005049442D43005049442D4400F0
:1021A0005049442D44005049442D49005049442D84
:1021B00049005049442D50005049442D50000820FA
:1021C00046616374657572000820466163746575C5
:1021D000720008204D61780008204D6178000820C9
:1021E0004D696E0008204D696E0054656D702E209B
:1021F0004175746F2E004172726574004D61726397
:1022000068652000566974652E2076656E74696C69
:10221000617465757200566974652E2076656E74FA
:10222000696C617465757200506C617465617500EC
:10223000506C617465617500427573650042757319
:102240006500436F6E74726F6C65720045706173E8
:102250002F6D6D00457061732F6D6D005A70617345
:102260002F6D6D005A7061732F6D6D005970617321
:102270002F6D6D00597061732F6D6D005870617313
:102280002F6D6D00587061732F6D6D00412D446589
:10229000706C2E00412D4465706C2E00412D7265CE
:1022A000747261637400412D7265747261637400AD
:1022B000416D6178204500416D6178204500416D98
:1022C0006178205A00416D6178205A00416D617833
:1022D000205900416D6178205900416D6178205886
:1022E00000416D6178205800566465706C206D69FE
:1022F0006E00566465706C206D696E00566D696E77
:1023000000566D696E00566D61784500566D6178B6
:102310004500566D61785A00566D61785A00566DC9
:1023200061785900566D61785900566D6178580092
:10233000566D6178580056652D6A65726B0056655A
:102340002D6A65726B00567A2D6A65726B00567A3B
:102350002D6A65726B005678792D6A65726B00562E
:1023600078792D6A65726B00416363656C00416327
:1023700063656C00446563616C616765205A004465
:102380006563616C616765205A00436F6E74726F9C
:102390006C6572004469616D2E2046696C2E0044A4
:1023A00069616D2E2046696C2E004520656E206D9A
:1023B0006D33004172726574004D6172636865200F
:1023C00000436F6E74726F6C657200526573746156
:1023D000757265722064656661757473004C69720C
:1023E0006520636F6E66696700536175766572205C
:1023F000636F6E6669670046696C616D656E740037
:102400004D6F7576656D656E740054656D7065729F
:102410006174757265004D656E75207072696E63CA
:102420006970616C00022E2E004D656E7520707211
:10243000696E636970616C0050617320646520632C
:102440006172746500496D70722E206465707569E3
:1024500073205344004172726574657220696D7017
:10246000722E0052657072656E64726520696D70BF
:10247000722E00496E746572726F6D70726520699C
:102480006D70722E00436F6E74726F6C65720050C7
:1024900072657061726572005265676C6572005397
:1024A00075727665696C6C65720000060900FE073E
:1024B0000192032120FFFF08FF07FF000000060034
:1024C00000010707060200808080808000800302F0
:1024D00002060105A0A00507070600005050F850AD
:1024E000F850500507070600002078A07028F0205B
:1024F000050707060000C0C8102040981805070708
:102500000600006090A040A8906802030306010442
:10251000C0408003070706010020408080804020E3
:1025200003070706010080402020204080050505A4
:1025300006000120A870A82005050506000120203E
:10254000F820200203030602FFC0408005010106B7
:102550000003F8020202060200C0C00505050600DD
:102560000108102040800507070600007088888851
:1025700088887003070706010040C040404040E0E3
:10258000050707060000708808708080F8050707B7
:10259000060000F81020100808F0050707060000E4
:1025A00010305090F81010050707060000F880F072
:1025B00008088870050707060000708080F088888A
:1025C00070050707060000F80810202020200507E6
:1025D0000706000070888870888870050707060065
:1025E0000070888878080870020505060200C0C0DF
:1025F00000C0C00206060602FFC0C000C040800442
:102600000707060000102040804020100503030645
:102610000002F800F804070706010080402010209F
:10262000408005070706000070880810200020057C
:10263000070706000070880868A8A8700507070645
:102640000000708888F8888888050707060000F071
:102650008888F08888F00507070600007088808069
:10266000808870050707060000F08888888888F051
:10267000050707060000F88080F08080F80507074E
:10268000060000F88080F0808080050707060000C3
:10269000708880B8888870050707060000888888D9
:1026A000F888888801070706020080808080808083
:1026B000800507070600003810101010906005070D
:1026C000070600008890A0C0A090880507070600B4
:1026D00000808080808080F805070706000088D889
:1026E000A8888888880507070600008888C8A898F1
:1026F0008888050707060000708888888888700524
:102700000707060000F08888F0808080050707062C
:10271000000070888888A89068050707060000F008
:102720008888F0A0908805070706000078808070F0
:102730000808F0050707060000F8202020202020C8
:1027400005070706000088888888888870050707BD
:102750000600008888888888502005070706000042
:102760008888888888A85005070706000088885050
:102770002050888805070706000088888850202098
:1027800020050707060000F80810204080F803071E
:1027900007060100E08080808080E00505050600D6
:1027A000018040201008030707060100E0202020D8
:1027B0002020E005030306000420508805010106DF
:1027C0000000F80202020602058040050505060029
:1027D0000070087888780507070600008080B0C878
:1027E0008888F00505050600007080808870050760
:1027F000070600000808689888887805050506001F
:10280000007088F880700507070600003048E04037
:102810004040400506060600FF708888780870056D
:1028200007070600008080B0C8888888010707066F
:102830000200800080808080800308080601FF205D
:102840000020202020A04004070706000080809080
:10285000A0C0A090030707060100C04040404040D0
:10286000E0050505060000D0A8A8A8A805050506EE
:102870000000B0C8888888050505060000708888B3
:1028800088700506060600FFF08888F0808005063F
:10289000060600FF78888878080805050506000008
:1028A000B0C880808005050506000070807008F0C3
:1028B0000407070600004040E040404030050505A1
:1028C0000600008888889868050505060000888845
:1028D0008850200505050600008888A8A850050531
:1028E0000506000088502050880506060600FF886F
:1028F0008888780870050505060000F8102040F863
:1029000003070706010020404080404020010707E0
:102910000602008080808080808003070706010017
:10292000804040204040800502020600026890007E
:102930000000060000000000060000000000060085
:10294000000000000600000000000600000000007B
:102950000600000000000600000000000600000065
:102960000000060000000000060000000000060055
:10297000000000000600000000000600000000004B
:102980000600000000000600000000000600000035
:102990000000060000000000060000000000060025
:1029A000000000000600000000000600000000001B
:1029B0000600000000000600000000000600000005
:1029C00000000600000000000600000000000600F5
:1029D00000000000060000000000060000000000EB
:1029E00006000000000006000000000006000000D5
:1029F00000000600000000000600000107070602B4
:102A0000008000808080808005070706000020701D
:102A1000A8A0A87020050707060000304040E0404D
:102A200050A8050505060000887050708805070746
:102A3000060000885020F820F82001070706020051
:102A400080808000808080050808060000304820D3
:102A50005050209060030101060107A005070706FA
:102A60000000F888B8B8B888F805070706000170B4
:102A70000878887800F80505050600012850A05060
:102A800028050303060001F80808020202060206F0
:102A90004080050707060000F888A88898A8F80570
:102AA0000101060006F8040404060003609090602B
:102AB0000507070600002020F8202000F80405057F
:102AC00006000360902040F0030505060003E020A7
:102AD000E020E00202020602064080050808060027
:102AE000FF8888888898E8808005070706000078B6
:102AF000989878181818020202060202C0C0020252
:102B0000020602FF408003050506000340C0404066
:102B1000E0050707060001708888887000F8050541
:102B200005060001A0502850A005070706000088F0
:102B300090A858B808080507070600008890B8480C
:102B4000982038050808060000C040C048D838085A
:102B5000080507070600002000204080887005084F
:102B6000080600004020007088F8888805080806DC
:102B700000001020007088F888880508080600000A
:102B80002050007088F888880508080600006890C2
:102B9000007088F8888805080806000050007088D2
:102BA00088F888880508080600002050207088F8FA
:102BB00088880507070600003860A0B8E0A0B805BF
:102BC00008080600FF70888080887020600508086B
:102BD000060000402000F880F080F8050808060094
:102BE00000081000F880F080F805080806000020B2
:102BF0005000F880F080F80507070600005000F844
:102C000080F080F8030808060100804000E04040A2
:102C100040E0030808060100204000E0404040E09A
:102C200003080806010040A000E0404040E0030720
:102C300007060100A000E0404040E005070706004D
:102C400000704848E8484870050808060000689089
:102C50000088C8A8988805080806000040207088E9
:102C60008888887005080806000010207088888809
:102C70008870050808060000205000708888887059
:102C800005080806000068900070888888700508AC
:102C900008060000500070888888887005050506C1
:102CA000000188502050880508080600FF1070A811
:102CB000A8A8A87040050808060000402088888859
:102CC0008888700508080600001020888888888891
:102CD0007005080806000020500088888888700564
:102CE0000808060000500088888888887005080851
:102CF0000600001020885020202020050909060029
:102D0000FFC040704848704040E00408080601FFDA
:102D1000609090A09090E080050808060000402098
:102D200000700878887805080806000010200070F8
:102D30000878887805080806000020500070087898
:102D40008878050808060000689000700878887880
:102D50000507070600005000700878887805080805
:102D600006000020502070087888780506060600C6
:102D700000D02878A0A8500506060600FF708088BD
:102D80007020600508080600004020007088F88068
:102D9000700508080600001020007088F880700593
:102DA00008080600002050007088F88070050707AA
:102DB00006000050007088F88070030808060100C3
:102DC00080400040C04040E0030808060100204069
:102DD0000040C04040E003080806010040A0004059
:102DE000C04040E0030707060100A00040C040408B
:102DF000E0050707060000A040A0107888700508CD
:102E000008060000689000B0C88888880508080691
:102E100000004020007088888870050808060000BF
:102E2000102000708888887005080806000020506F
:102E30000070888888700508080600006890007097
:102E40008888887005070706000050007088888809
:102E5000700505050600012000F80020050707069B
:102E600000FF1070A8A8A8704005080806000040E0
:102E7000200088888898680508080600001020004F
:102E8000888888986805080806000020500088880F
:102E900088986805070706000050008888889868A9
:102EA0000509090600FF102000888888F8087004CA
:102EB00007070601FFC04060506040E005080806B3
:102EC00000FF500088888878087000060900FE001E
:102ED0000000000001090008FE00000508080600C7
:102EE0000040F0C88888987810050808060000C0DF
:102EF000F88888888888F80505050600012030F8DC
:102F000030200508080600002070F820202020E06E
:102F10000509090600FF2070A8A8B8888870200558
:102F200009090600FFE080C0B0A82830282805095C
:102F3000090600FFF8A88888888888A8F8050A0A82
:102F40000600FE205050505088A8A8887003030344
:102F500006000340A0400000000000000000000048
:102F600000007FFFE0000000000000000000000003
:102F7000007000E000000000000000000000000001
:102F800061F8600000000000000000000000004147
:102F9000F82000000000000000000000000040F0E9
:102FA0002000000000000000000000000040602041
:102FB0000000000000000000000000005801A07F99
:102FC00080000000000000004104005C63A0FFC01E
:102FD000000000000000002082005EF7A0FFC0009B
:102FE0000000000000002082005EF7A0FFC000008B
:102FF00000000000004104005C63A07F800000002E
:10300000000000008208005801A07F80000000003E
:10301000000001041000406020FFC000000000001C
:10302000000104100040F020FFC00000000000007C
:103030000082080041F820FFC000000000000000EE
:1030400041040061F8603F00000000000000000043
:1030500000007000E01E0000000000000001FFFF03
:10306000807FFFE00C0000000000000001FFFF80F7
:103070000000000000000000000000000000007FD1
:10308000FFE00000000000000000000000007000F1
:10309000E0000000000000000000000000630C6081
:1030A000000000000000000000000000470E2000AB
:1030B00000000000000000000000004F0F20000092
:1030C000000000000000000000005F0FA0000000F2
:1030D0000000000000000000005E07A07F800000EC
:1030E0000000000000410400406020FFC00000001C
:1030F0000000000020820040F020FFC0000000001F
:1031000000000020820040F020FFC000000000000E
:1031100000004104004060207F80000000000000AB
:10312000008208005E07A07F800000000000000110
:103130000410005F0FA0FFC00000000000000104A9
:1031400010004F0F20FFC0000000000000008208A8
:1031500000470E20FFC000000000000000410400F6
:10316000630C603F000000000000000000000070E1
:1031700000E01E0000000000000001FFFF807FFF54
:10318000E00C0000000000000001FFFF80000000D4
:10319000FFFFF00001F803807C03E0404070FFFF78
:1031A000FFFFFDFE0381FF0FF8E0E070FFFFFFFF70
:1031B000FC060381830C18E0E070FFFFFFFFFC03B7
:1031C00006C301980CF1E0D8F00000001C0306C310
:1031D00001980CF1E0D8F00000001C0306C30018B1
:1031E0000CDBE0D8F00000001C030C6300180CDBC3
:1031F000618CF00000001C030C6300180CDB618C78
:10320000F000000018030C633F180CDB618CF00029
:1032100000001A030C633F980CCE618CF000000094
:103220001A03183301980CCE6306F00000001A034D
:103230001FF301980CC463FE700000001A031FF313
:1032400001980CC063FE700601801A0318330198C0
:103250000CC06306700703801A03183301980CC072
:103260006306700703001A063019830C18C0660342
:103270007003870013FE3019FF0FF8C06603700358
:103280008F0017F830187C03E0C066037001CE0091
:10329000100000000000000000007001FE0010009F
:1032A000001FFFFFFFFFFFFF7001FC001000006028
:1032B0000000000001FF7000FC0010000040000052
:1032C000000000FF7000F800000000800000000017
:1032D000007F7000780040000083CF00000C303F7A
:1032E0007000700040000087FF80000C301F7400E9
:1032F0003000600000867980000C000F6400000040
:103300006080008C30C7838C30E76C000000614027
:10331000208C30CFC7CC31F34C0000007119308CB9
:1033200030DCECEC33B91C00000071AAA08C30D862
:103330006C6C331918000000713AA08C30D06C0C02
:103340003319180000007922A08C30D86C0C331986
:10335000380000007919948C30DC6C0E3B19380071
:1033600000007800008C30CF7C079F193C00000FD4
:10337000F800008C30C77C038F197FFFFFFFF80037
:1033800000400000000000027FFFFFFFF800006027
:103390000000000000067FFFFFFFF000001FFFFF9E
:1033A000FFFFFFF800000A0B02090C0D0E080703CF
:1033B0000401000000000000000000000000000008
:1033C00000000000000000000000000000000000FD
:1033D00012111000000000000000000000000000BA
:1033E0000000000000000000000001021020200882
:1033F0000810204010204080020102010804020150
:1034000001020408102040808040201008040201BE
:103410008004020180402010080402010804020117
:10342000010204081020408001020408102040809E
:1034300005050505070508080808020202020A0A30
:10344000080804040404010101010101010103034E
:10345000030303030303040707070C0C0C0C0C0CF9
:103460000C0C0202020206060606060606060B0BF6
:103470000B0B0B0B0B0B0000200023002600290078
:103480002C002F0032000001000003010601090199
:1034900000002200250028002B002E0031003400FF
:1034A00002010000050108010B01000021002400B9
:1034B00027002A002D003000330001010000040124
:1034C00007010A014E414E494E495459494E46CDD5
:1034D000CCCC3D0AD7233C17B7D13877CC2B3295CB
:1034E00095E6241FB14F0A000020410000C84200A9
:1034F000401C4620BCBE4CCA1B0E5AAEC59D740073
:10350000D56A0BF4F5F8DD6A11241FBECFEFD1E2C6
:10351000DEBFCDBF00E00CBF14E0A0E0B2E0E4E20B
:10352000FEE102E00BBF02C007900D92A63EB1077C
:10353000D9F727E1A6EEB4E001C01D92AA32B20786
:10354000E1F715E3C6E0D5E300E006C022970109E4
:10355000FE010BBF0F947608C030D10780E008074A
:10356000A9F70F94E1020D94010F0C940000452B74
:1035700031F0389A409A0F94A300409808950D9422
:10358000A300FC01148217821382128281E494E06A
:1035900091838083089521E434E0FC01318320830A
:1035A0002781222319F004960C94B4960895CF92A3
:1035B000DF92EF92FF920F931F93CF93DF93EC0173
:1035C0008F96DFDFCE01805B9F4FDBDF7E012FE632
:1035D000E20EF11C87016E013BE5C31A3EEFD30AF0
:1035E000C801CFDF015E1F4F0C151D05C9F7FE0195
:1035F000EA55FE4F89E1818314823596178ACE0100
:1036000087539E4FBEDFFE01E658FD4F10821182A8
:1036100012821382349610821182128213821A82CD
:103620001B8218821982F8011082FE01E851FE4FB8
:10363000108286E391E0F7019C0111922150304005
:10364000E1F7FE01EA57FD4F81E080831EA61DA62B
:103650000F947400CE57DD4F68577C4E8F4F9F4FAD
:10366000688379838A839B83DF91CF911F910F9128
:10367000FF90EF90DF90CF900895FC0120E03EE2B4
:10368000DB014C91403241F0283011F43083319607
:10369000DB014C91408331962F5F6F5F7F4F2B3062
:1036A00079F7108208952F923F924F925F926F9216
:1036B0007F928F929F92AF92BF92CF92DF92EF92C2
:1036C000FF920F931F93CF93DF93CDB7DEB7C6570B
:1036D000D1090FB6F894DEBF0FBECDBF8C016B01D0
:1036E0005A0129012DB73EB7E3963FAF2EAFE397BE
:1036F000AD961FAEAD9734E0A30EB11C4296E59691
:103700009FAF8EAFE597180199E7291A9DEF390A07
:10371000F801E757FD4FAF96FFAFEEAFAF97380117
:10372000F5E06F0E711C7E012FE5E20EF11C80E4C6
:1037300090E08C0F9D1F0496E7969FAF8EAFE797A2
:10374000E5964EAD5FADE597BE016F5F7F4FC5015A
:103750000E941A9518160CF041C12C85322F387131
:10376000303109F0BCC0F10180819181019702974D
:1037700008F4B5C02DB73EB7E1963FAF2EAFE19745
:10378000BE016F5F7F4FC70178DF81E0F601908156
:1037900091119DC0E1E0F0E0D7010D900020E9F724
:1037A000EE19FF09EA0FFB1F31962DB73EB72E1B0E
:1037B0003F0B0FB6F8943EBF0FBE2DBFEDB7FEB75F
:1037C00031964F01882319F06CE173E001C0B60116
:1037D000C4010F94020CB701C4010F94E30B6CE118
:1037E00073E0C4010F94E30BCE01805C9F4FC9DEF0
:1037F00021E0A701B501E7968EAD9FADE7970E9446
:10380000AB98811137C0F10180819181892B91F5AD
:10381000E0EBF1E18491882341F09091C00095FFA5
:10382000FCCF8093C6003196F5CFEEE1F3E08191B5
:10383000882339F09091C00095FFFCCF8093C6009B
:10384000F6CF8091C00085FFFCCF8AE08093C60050
:10385000F7018191882339F09091C00095FFFCCF4A
:103860008093C600F6CF8091C00085FFFCCF8AE030
:103870008093C6008BE1FE01EC5BFF4FDE01959665
:1038800001900D928A95E1F724968EAD9FAD249715
:103890009CA38BA381E494E09AA389A320E030E069
:1038A000AE014F5D5F4FB401C801FDDECE018196D0
:1038B00072DECE01805C9F4F6EDEE1962EAD3FAD95
:1038C000E1970FB6F8943EBF0FBE2DBF39CF80E011
:1038D00001900020E9F73197EC19FD095DCF89814E
:1038E000882309F47BC0853E09F42ACF8E3209F47F
:1038F00027CFF80182898E3209F422CF23FD20CF11
:1039000081E0303109F080E0F8018483811108C042
:103910008985873409F014CF8A858E3709F410CF52
:10392000F101808191818130910569F082309105AA
:1039300081F1892B09F004CFBE016F5F7F4FC30176
:103940009CDEF60110C0AF96EEADFFADAF97808163
:103950009181019691838083F3CE9091C00095FF71
:10396000FCCF8093C60081918111F7CFF301819143
:10397000882339F09091C00095FFFCCF8093C6005A
:10398000F6CF8091C00085FFFCCF8AE08093C6000F
:10399000D7CEBE016F5F7F4FC3016FDE411451046C
:1039A00039F0B301C2010F94D00B892B79F416C002
:1039B000AD96FFADAD972F2F30E0AF96EEADFFADDA
:1039C000AF97808191812817390741F0AD96FFADFF
:1039D000AD97FF5FAD96FFAFAD97B2CEE3962EAD3C
:1039E0003FADE3970FB6F8943EBF0FBE2DBFCA5848
:1039F000DF4F0FB6F894DEBF0FBECDBFDF91CF9182
:103A00001F910F91FF90EF90DF90CF90BF90AF90FC
:103A10009F908F907F906F905F904F903F902F90EE
:103A20000895EF92FF920F931F93CF93DF93CDB73B
:103A3000DEB76F970FB6F894DEBF0FBECDBF8C0117
:103A4000FC01E957FD4F118210827C0183E3E80EEF
:103A5000F11C40E050E0BA01C7010E94D1958BE112
:103A6000F701DE01159601900D928A95E1F7F801B4
:103A700081A992A99C838B8381E494E09A838983B2
:103A800020E030E0AE014F5F5F4F68E473E0C801B3
:103A90000ADECE0101967FDD6F960FB6F894DEBF89
:103AA0000FBECDBFDF91CF911F910F91FF90EF908F
:103AB0000895EF92FF920F931F93CF93DF93EC0142
:103AC0001B828EA9882321F0CE01C3960E94B49652
:103AD0007E018AE5E81A8EEFF80A45E360E0C70147
:103AE0000E94319181111FC0E0EBF1E184918823A4
:103AF00041F09091C00095FFFCCF8093C6003196B5
:103B0000F5CFE5E0F4E08491882341F09091C00086
:103B100095FFFCCF8093C6003196F5CF8091C00011
:103B200085FFFCCF76C08E0105551E4F41E0B701E1
:103B3000C8010E94B59E811126C040E0B701C801AE
:103B40000E94B59E81111FC0E6EBF1E184918823AC
:103B500041F09091C00095FFFCCF8093C600319654
:103B6000F5CFE2EFF3E08491882341F09091C0001B
:103B700095FFFCCF8093C6003196F5CF8091C000B1
:103B800085FFFCCF46C0B801CE01C3960E94BE930C
:103B900081111FC0E6EBF1E18491882341F09091FF
:103BA000C00095FFFCCF8093C6003196F5CFE2EEC2
:103BB000F3E08491882341F09091C00095FFFCCF01
:103BC0008093C6003196F5CF8091C00085FFFCCF71
:103BD00020C081E08B83E0EBF1E18491882341F008
:103BE0009091C00095FFFCCF8093C6003196F5CF31
:103BF000E7EDF3E08491882341F09091C00095FFB8
:103C0000FCCF8093C6003196F5CF8091C00085FF30
:103C1000FCCF8AE08093C600CE01805B9F4F2BE1F2
:103C2000FE01F396DC01149601900D922A95E1F7BE
:103C300029A93AA9FC01338322833297AF96D18315
:103C4000C083DF91CF911F910F91FF90EF90089566
:103C5000FC01128213820895CF92DF92EF92FF92BD
:103C60000F931F93CF93DF93CDB7DEB7CDB6DEB6FC
:103C7000FB0101900020E9F7E61BF70B34968DB7A6
:103C80009EB78E1B9F0B0FB6F8949EBF0FBE8DBFC5
:103C90000DB71EB70F5F1F4F7F936F9380ED93E0BB
:103CA0009F938F931F930F930F94260C780194E0AA
:103CB000E90EF11C0F900F900F900F900F900F9046
:103CC000F7018081882349F0992787FD90950F940B
:103CD000710BF70181937F01F3CF60E0C8010E946F
:103CE000E6318CEC93E00E948B320FB6F894DEBE86
:103CF0000FBECDBEDF91CF911F910F91FF90EF903E
:103D0000DF90CF900895FC012381222311F021E060
:103D100022830895FC012281211112820895AF921D
:103D2000BF92CF92DF92EF92FF920F931F93CF93A8
:103D3000DF931F92CDB7DEB78C018FE2FB01819339
:103D40005F01D12C21E07801FBE5EF1AFEEFFF0ABD
:103D50008FE1C82EF7018081D816C8F4B501C801DB
:103D6000CD9C800D911D11248D589F4F29830E9459
:103D70006593C50129815C010196F50130813323EA
:103D800021F02D3810F42F5FF6CFD394E3CF27FD29
:103D900011C0B501C80183539E4F0F90DF91CF91A1
:103DA0001F910F91FF90EF90DF90CF90BF90AF9059
:103DB0000C946593F50110820F90DF91CF911F91C4
:103DC0000F91FF90EF90DF90CF90BF90AF9008954C
:103DD0003F924F925F926F927F928F929F92AF929B
:103DE000BF92CF92DF92EF92FF920F931F93CF93E8
:103DF000DF93CDB7DEB7AC970FB6F894DEBF0FBE3A
:103E0000CDBF7C015B01FC018381882309F4EDC0F7
:103E1000C70183539E4F0E94B496F7011282CE01D0
:103E200001966C01AEDB27019EE4490E511CC701CF
:103E30008F96F20191838083F50180818F3209F0A2
:103E400077C06FE270E0C5010F94EE0B8C010F5F3D
:103E50001F4F9AE0392E0115110509F46FC06FE26A
:103E600070E0C8010F94EE0B4C01009709F467C095
:103E70000817190708F063C03C01601A710AA30112
:103E8000B801CE0180960F94170CE0E2F0E0EC0F41
:103E9000FD1FE60DF71D1082FE01B096819188236B
:103EA00039F09091C00095FFFCCF8093C600F6CF0B
:103EB0008091C00085FFFCCF3092C600F201608186
:103EC00071816115710519F06C5F7F4F02C060E070
:103ED00070E021E0AE01405E5F4FCE0105960E948A
:103EE000AB9881111EC0EBEAF2E08491882341F087
:103EF0009091C00095FFFCCF8093C6003196F5CF1E
:103F0000FE01B0968191882339F09091C00095FF11
:103F1000FCCF8093C600F6CF8091C00085FFFCCF18
:103F20005FC0F201D182C08284010F5F1F4F93CF27
:103F3000C701805B9F4FF201918380838501F2016D
:103F400080819181009711F0049602C080E090E09A
:103F5000B8010E948199811103C0E5E8F2E02EC00A
:103F6000EDE9F2E08491882341F09091C00095FF43
:103F7000FCCF8093C6003196F5CFF801819188235C
:103F800039F09091C00095FFFCCF8093C600F6CF2A
:103F90008091C00085FFFCCF8AE08093C600F701C6
:103FA000E258FD4F10821182128213821CC0909140
:103FB000C00095FFFCCF8093C6003196849181119B
:103FC000F6CFF8018191882339F09091C00095FFD8
:103FD000FCCF8093C600F6CF8091C00085FFFCCF58
:103FE0008EE28093C600C601D6DAAC960FB6F8947E
:103FF000DEBF0FBECDBFDF91CF911F910F91FF901C
:10400000EF90DF90CF90BF90AF909F908F907F9078
:104010006F905F904F903F900895CF93DF93EC01A6
:104020008B81811103C0E3E6F2E039C0E3E7F2E0FF
:104030008491882341F09091C00095FFFCCF80933C
:10404000C6003196F5CFFE01E258FD4F4081518107
:10405000628173812AE030E082EE99E00E94486C30
:104060008091C00085FFFCCF8FE28093C600C658C8
:10407000DD4F488159816A817B812AE030E082EE00
:1040800099E00E94486C8091C00085FFFCCF0EC073
:104090009091C00095FFFCCF8093C600319684912B
:1040A0008111F6CF8091C00085FFFCCF8AE080931C
:1040B000C600DF91CF910895AF92BF92CF92DF9269
:1040C000EF92FF920F931F93CF93DF935C01EB016D
:1040D000FB0101900020E9F78F0101501109061B37
:1040E000170B6C01F3E3CF1AFEEFDF0AF601108223
:1040F0006EE470E0CE010F94EE0B7C01009729F482
:10410000F8013197EC0FFD1F0DC060E270E00F94D5
:10411000EE0BEC0121966AE270E0C7010F94EE0B02
:10412000FC0131978DE081838AE082831382BE0196
:10413000C50187539E4F0E945E9BF60180818823B4
:1041400009F1E6EBF1E18491882341F09091C00000
:1041500095FFFCCF8093C6003196F5CFEDE4F2E0F9
:104160008491882341F09091C00095FFFCCF80930B
:10417000C6003196F5CF8091C00085FFFCCF8AE064
:104180008093C600DF91CF911F910F91FF90EF9028
:10419000DF90CF90BF90AF9008956F927F928F92F3
:1041A0009F92AF92BF92CF92DF92EF92FF920F93C6
:1041B0001F93CF93DF93CDB7DEB7AA970FB6F894CE
:1041C000DEBF0FBECDBF8C018A579D4F7C016111B0
:1041D00014C0FC018081882309F498C00F947400F6
:1041E000F801EE57FD4F80809180A280B38068195E
:1041F00079098A099B0997FF89C0F7011082F801A4
:104200008381811107C0C80154DCF80183818823B0
:1042100009F47CC0F80186A58F9385A58F9384E46B
:1042200092E09F938F937E01F1E2EF0EF11CFF92DB
:10423000EF920F94260C0F900F900F900F900F900D
:104240000F90B12CF70101900020E9F73197EE199A
:10425000FF09BE1684F46701CB0CD11CB7FCDA94BD
:10426000F6018081992787FD90950F94710BF601D7
:104270008083B394E7CF4801F3E38F0E911C40E0B5
:1042800050E0BA01C4010E94D195612CCE01019683
:104290005C0140E050E0B501C4010E941A95181677
:1042A0004CF5712CF50101900020E9F73197EA19DE
:1042B000FB097E1674F46501C70CD11C77FCDA94F7
:1042C000F601808190E00F94710BF6018083739466
:1042D000E9CF8A858E37E9F245E050E0B701C501A4
:1042E0000F94090C892BA9F6B701C801B5DC662427
:1042F0006394CFCF611004C08FEF9FEFF80104C02B
:10430000F80185A596A5019696A785A7AA960FB64A
:10431000F894DEBF0FBECDBFDF91CF911F910F91FB
:10432000FF90EF90DF90CF90BF90AF909F908F90D5
:104330007F906F9008950F931F93CF93DF93EC01BD
:104340008C0103531E4FC8010E946A96C8010E9447
:10435000B49619821882DF91CF911F910F91089521
:10436000CF92DF92EF92FF920F931F93CF93DF9341
:10437000CDB7DEB76F970FB6F894DEBF0FBECDBFD7
:104380008C016A017C018EE4E80EF11CC801805B9F
:104390009F4FF70191838083E75CFD4F22E030E07F
:1043A0003183208332967183608340E050E0BA010C
:1043B00004960E94D195F701808191812BE1FC0147
:1043C0003496DE01159601900D922A95E1F7FC01D5
:1043D000828193819C838B8381E494E09A83898397
:1043E0009601AE014F5F5F4F68E473E0C8015BD98F
:1043F000CE010196D0D86F960FB6F894DEBF0FBEEF
:10440000CDBFDF91CF911F910F91FF90EF90DF9083
:10441000CF9008952F923F924F925F926F927F922A
:104420008F929F92AF92BF92CF92DF92EF92FF92C4
:104430000F931F93CF93DF93CDB7DEB7AC970FB633
:10444000F894DEBF0FBECDBF8C016B01342EFC0192
:104450008381882309F4CDC2E053FE4F80818823F5
:1044600009F4FAC0211103C0E0EBF1E1CDC07801FD
:10447000F8E1EF1AFEEFFF0AF7018081811103C016
:10448000E0EBF1E135C0E6EBF1E18491882341F006
:104490009091C00095FFFCCF8093C6003196F5CF78
:1044A000E9E8F3E08491882341F09091C00095FF02
:1044B000FCCF8093C6003196F5CF4AE050E061E032
:1044C00070E082EE99E00E941C6C8091C00085FF34
:1044D000FCCF8AE08093C60083E893E00E944555B4
:1044E00088C29091C00095FFFCCF8093C6003196A2
:1044F00084918111F6CFEAE6F3E08491882341F0BC
:104500009091C00095FFFCCF8093C6003196F5CF07
:10451000F6018191882339F09091C00095FFFCCF7E
:104520008093C600F6CFEFE5F3E08491882341F055
:104530009091C00095FFFCCF8093C6003196F5CFD7
:10454000F70180813DE8B32EB801B89E600D711D62
:10455000112463517E4FC801E2DBF7018081F8012D
:10456000B89EE00DF11D1124E351FE4F8191882387
:1045700039F09091C00095FFFCCF8093C600F6CF34
:10458000E9E5F3E08491882341F09091C00095FF24
:10459000FCCF8093C6003196F5CF5801F2E8AF1AF0
:1045A000FDEFBF0AF50140815181628173812AE0EC
:1045B00030E082EE99E00E94486C8091C00085FF57
:1045C000FCCF8AE08093C600F7012081F80184E0E7
:1045D000289FE00DF11D1124AF0147515E4FF501F9
:1045E00080819181A281B381FA0180839183A2832A
:1045F000B3832F5FF701208329C09091C00095FFFE
:10460000FCCF8093C600319684918111F6CFE8E407
:10461000F3E08491882341F09091C00095FFFCCF96
:104620008093C6003196F5CFF6018191882339F049
:104630009091C00095FFFCCF8093C600F6CF80918B
:10464000C00085FFFCCF8AE08093C600C801835379
:104650009E4F0E94B49630C0F801E851FE4F108280
:10466000E0EBF1E18491882341F09091C00095FF47
:10467000FCCF8093C6003196F5CFE7E3F3E0849159
:10468000882341F09091C00095FFFCCF8093C60035
:104690003196F5CFF6018191882339F09091C000D1
:1046A00095FFFCCF8093C600F6CF8091C00085FFB8
:1046B000FCCF8AE08093C600F8011282CE010196F9
:1046C0005C010E94C11A28019EE4490E511CC801D8
:1046D0008F96F20191838083F60180818F3209F0F9
:1046E00077C07601FFEFEF1AFF0A2AE0222EE114CD
:1046F000F10409F473C06FE270E0C7010F94EE0B90
:104700004C01009709F46BC0E816F90608F067C081
:104710003C016E187F08A301B701CE0180960F946B
:10472000170CE0E2F0E0EC0FFD1FE60DF71D108224
:10473000FE01B0968191882339F09091C00095FFD9
:10474000FCCF8093C600F6CF8091C00085FFFCCFE0
:104750002092C600F201608171816115710519F026
:104760006C5F7F4F02C060E070E021E0AE01405E10
:104770005F4FCE0105960E94AB98811121C0E3E204
:10478000F3E08491882341F09091C00095FFFCCF25
:104790008093C6003196F5CFFE01B09681918823B3
:1047A00039F09091C00095FFFCCF8093C600F6CF02
:1047B0008091C00085FFFCCF8EE28093C60016C1B9
:1047C000F201B182A0827401FFEFEF1AFF0A8FCFCE
:1047D000C801805B9F4FF201918380837601C801FD
:1047E00083539E4F4C01F20160817181332009F4A3
:1047F000A3C06115710519F06C5F7F4F02C060E0C6
:1048000070E021E0A701C4010E94AB98811103C0B0
:10481000EBEEF2E075C0980126583D4FF401818916
:104820009289A389B489F90180839183A283B38398
:10483000E5E1F3E08491882341F09091C00095FF79
:10484000FCCF8093C6003196F5CFF7018191882384
:1048500039F09091C00095FFFCCF8093C600F6CF51
:10486000EDE0F3E08491882341F09091C00095FF42
:10487000FCCF8093C6003196F5CFF901408151817C
:10488000628173812AE030E082EE99E00E94486CF8
:104890008091C00085FFFCCF8AE08093C600F801BC
:1048A000E258FD4F1082118212821382EFEFF2E084
:1048B0008491882341F09091C00095FFFCCF8093B4
:1048C000C6003196F5CF8091C00085FFFCCF8AE00D
:1048D0008093C600A70160E070E0C80141DDF801E7
:1048E0008289882319F0C801429601C0C70160E09F
:1048F0007BC09091C00095FFFCCF8093C60031969D
:1049000084918111F6CFF7018191882339F090913C
:10491000C00095FFFCCF8093C600F6CFE8EEF2E032
:104920008491882309F462C09091C00095FFFCCF68
:104930008093C6003196F4CF6115710519F06C5F54
:104940007F4F02C060E070E026E5A701C4010E942D
:10495000AB98811125C0E4EDF2E08491882341F009
:104960009091C00095FFFCCF8093C6003196F5CFA3
:10497000F7018191882339F09091C00095FFFCCF19
:104980008093C600F6CFE1EDF2E08491882371F1C7
:104990009091C00095FFFCCF8093C6003196F5CF73
:1049A00081E0F8018083EFEBF2E08491882341F00D
:1049B0009091C00095FFFCCF8093C6003196F5CF53
:1049C000F6018191882339F09091C00095FFFCCFCA
:1049D0008093C600F6CF8091C00085FFFCCF8AE0AF
:1049E0008093C60060E0C7010E9474CEC5010E949A
:1049F000CB1AAC960FB6F894DEBF0FBECDBFDF91D9
:104A0000CF911F910F91FF90EF90DF90CF90BF90CB
:104A1000AF909F908F907F906F905F904F903F905E
:104A20002F90089521E0FC01218320E040E0F2CCAA
:104A3000CF92DF92EF92FF920F931F93CF93DF936A
:104A4000CDB7DEB76F970FB6F894DEBF0FBECDBF00
:104A50008C016C012EE4C20ED11C805B9F4FF601CD
:104A600091838083E75CFD4F21E030E03183208338
:104A70007801F7E7EF1AFDEFFF0AF70111821082C4
:104A800040E050E0BA0104960E94D195F601808181
:104A900091812BE1FC013496DE01159601900D9277
:104AA0002A95E1F7FC01828193819C838B8381E4C9
:104AB00094E09A83898320E030E0AE014F5F5F4F3E
:104AC00068E473E0C8010E94531BCE0101960E9466
:104AD000CB1AF701808191816F960FB6F894DEBFF3
:104AE0000FBECDBFDF91CF911F910F91FF90EF903F
:104AF000DF90CF900895AF92BF92CF92DF92EF9266
:104B0000FF920F931F93CF93DF93CDB7DEB76F97CD
:104B10000FB6F894DEBF0FBECDBF8C015B01CE0196
:104B200001960E94C11AF801E95AFF4F808178016D
:104B3000811104C02FE2E20EF11C03C030E5E30E48
:104B4000F11C670144E0C40ED11C21E0A501B601AF
:104B5000CE0105960E94AB9881112DC0E0EBF1E1EA
:104B60008491882341F09091C00095FFFCCF809301
:104B7000C6003196F5CFEEE2F2E08491882341F051
:104B80009091C00095FFFCCF8093C6003196F5CF81
:104B9000F5018191882339F09091C00095FFFCCFF9
:104BA0008093C600F6CF8091C00085FFFCCF8AE0DD
:104BB0008093C60030C0F801EB55FE4F80818A30EB
:104BC000D0F491E0980F9083F8012FE1829FE00DDF
:104BD000F11D1124CF0181599F4F2BE1F601DC011A
:104BE000149601900D922A95E1F7F7012281338105
:104BF000FC0133832283005B1F4F8BE1FE0135965E
:104C0000D801149601900D928A95E1F78B819C81D1
:104C1000F80193838283CE0101960E94CB1A6F968E
:104C20000FB6F894DEBF0FBECDBFDF91CF911F91BD
:104C30000F91FF90EF90DF90CF90BF90AF900895CD
:104C4000CF93DF93FC01EB55FE4F20812223D1F05F
:104C500021502083EC013FE1239FC00DD11D112481
:104C6000C159DF4F805B9F4F2BE1FE013496DC0181
:104C7000149601900D922A95E1F72A813B81FC015F
:104C800033832283DF91CF910895EF92FF920F93A8
:104C90001F93CF93DF93EC010E9478A88E010851F7
:104CA0001E4FF80180819E0123533E4F79018823D6
:104CB000A1F1C9010E94B496F801808181508083DE
:104CC000BE01FDE88F9F600D711D112463517E4F61
:104CD00021E041E0CE019EDBF8018081FE0124E06D
:104CE000829FE00DF11D1124E751FE4F408151815B
:104CF00062817381FE01E258FD4F408351836283DC
:104D00007383C7010E94D195CE01DF91CF911F918E
:104D10000F91FF90EF900C94831EC9010E94B496EE
:104D20001A8282E292E00E948B328091600F882387
:104D300049F11092600F0091760510E0E801CC0F68
:104D4000DD1FCD57DC4E68817981882777FD8095FE
:104D5000982F0F94DE042091460230914702409133
:104D60004802509149020F943F0618165CF41982CC
:104D70001882C801DF91CF911F910F91FF90EF90A2
:104D80000C94A4AEDF91CF911F910F91FF90EF9003
:104D90000895AF92BF92DF92EF92FF920F931F930D
:104DA000CF93DF931F92CDB7DEB78C015B01460F27
:104DB0008AE0D82E4A1509F43BC07501F5016191CE
:104DC0005F01F8018081918149830F944A0EF801B7
:104DD000808191810F94420EF7019081498189175A
:104DE00001F1E0EBF1E18491882341F09091C00062
:104DF00095FFFCCF8093C6003196F5CFEEECF6E040
:104E00008491882341F09091C00095FFFCCF80935E
:104E1000C6003196F5CF8091C00085FFFCCFD092BF
:104E2000C600F80180819181019691838083C2CF71
:104E30000F90DF91CF911F910F91FF90EF90DF9036
:104E4000BF90AF900895EF92FF920F931F93CF936F
:104E5000DF931F92CDB7DEB78C017B01460FF801BF
:104E60008081918149830F94420EF70181937F01E4
:104E7000F8018081918101969183808349814E114F
:104E8000EECF0F90DF91CF911F910F91FF90EF9098
:104E90000895CF92DF92EF92FF920F931F93CF93DB
:104EA000DF93CDB7DEB7A1970FB6F894DEBF0FBE84
:104EB000CDBF1D8A1E8A1F8A188E80E390E3A0E36F
:104EC000B0E0898B9A8BAB8BBC8B84E690E09E8F95
:104ED0008D8F44E0BE016F5E7F4FCE014D9659DF4E
:104EE00040E161EA7FE0CE014D9653DF40E161EBA6
:104EF0007FE0CE014D964DDF40E161E97FE0CE01DC
:104F00004D9647DF44E069E87FE0CE014D9641DFF2
:104F100044E065E87FE0CE014D963BDF44E061E888
:104F20007FE0CE014D9635DF44E06DE87FE0CE01B5
:104F30004D962FDF44E061E77FE0CE014D9629DFFB
:104F400044E061EC7FE0CE014D9623DF44E06DE765
:104F50007FE0CE014D961DDF44E069E77FE0CE01A2
:104F60004D9617DF44E065E77FE0CE014D9611DFF7
:104F70004CE069E775E0CE014D960BDF83E089A335
:104F800088A31F8E1D8A1E8A1F8A188E41E0BE01CB
:104F9000615E7F4FCE014D96FCDE44E0BE016B5E4C
:104FA0007F4FCE014D96F5DE41E0BE016F5D7F4F34
:104FB000CE014D96EEDE41E0BE01605E7F4FCE0138
:104FC0004D96E7DE10E099A188A1212F30E0989F4F
:104FD000C001112444E02817390744F4BE016B5E78
:104FE0007F4FCE014D96D5DE1F5FEDCF65E575E0B5
:104FF000CE014D96CEDE1D8A1E8A1F8A188E1AE0BB
:10500000115041F044E0BE016B5E7F4FCE014D96E2
:10501000C0DEF6CF42E064E576E1CE014D96B9DE22
:1050200042E062E576E1CE014D96B3DE42E060E516
:1050300076E1CE014D96ADDE42E06EE476E1CE0142
:105040004D96A7DE42E06CE476E1CE014D96A1DEFE
:1050500042E06AE476E1CE014D969BDEC12C90E8F9
:10506000D92E9BE3E92E95E4F92E111119C044E0E5
:105070006DE872E0CE014D968CDE44E069E872E0A6
:10508000CE014D9686DE44E065E872E0CE014D9695
:1050900080DE44E061E872E0CE014D967ADE1AC00F
:1050A000CD8ADE8AEF8AF88E44E0BE016B5E7F4FC8
:1050B000CE014D966EDE1D8A1E8A1F8A188E04E070
:1050C000015041F044E0BE016B5E7F4FCE014D9632
:1050D00060DEF6CF1F5F143041F642E06FE072E011
:1050E000CE014D9656DE80E090E8ABE3B5E48D87C7
:1050F0009E87AF87B88B89879A87AB87BC878D835C
:105100009E83AF83B88744E0BE01635F7F4FCE01CB
:105110004D963FDE44E0BE01675F7F4FCE014D9666
:1051200038DE44E0BE016B5F7F4FCE014D9631DE2D
:1051300080E290E09C8F8B8F42E0BE01655E7F4FE6
:10514000CE014D9626DE80E090E0A0E8BFE38D8B97
:105150009E8BAF8BB88F44E0BE016B5E7F4FCE015C
:105160004D9617DE41E061E975E0CE014D9611DE06
:1051700010E011110CC08091350290913602A0917F
:105180003702B09138028D8B9E8BAF8BB88F44E085
:10519000BE016B5E7F4FCE014D96FBDD1F5F14306D
:1051A00041F786E592E3A3E3B0E089839A83AB837A
:1051B000BC8384E690E09A8F898F44E0BE016F5FE4
:1051C0007F4FCE014996E5DDE0EBF1E18491882344
:1051D00041F09091C00095FFFCCF8093C6003196BE
:1051E000F5CF6D8D7E8D8CEB96E00E947031E4EBF7
:1051F000F6E08491882341F09091C00095FFFCCFA8
:105200008093C6003196F5CF8091C00085FFFCCF1A
:105210008AE08093C600A1960FB6F894DEBF0FBE59
:10522000CDBFDF91CF911F910F91FF90EF90DF9055
:10523000CF900895AF92BF92DF92EF92FF920F93BB
:105240001F93CF93DF93CDB7DEB7E0970FB6F894F7
:10525000DEBF0FBECDBF80E1E6EEF2E0DE0191964B
:1052600001900D928A95E1F780E1E6EFF2E0DE0130
:10527000519601900D928A95E1F780E1E6E0F3E026
:10528000DE01119601900D928A95E1F77E0181E28F
:10529000E80EF11C01EA1FE0BE016F5E7F4F41EB9B
:1052A0005FE09E012F5F3F4FE1E9AE2EEFE0BE2EA3
:1052B000D12CF70181919191A191B1917F01F801D8
:1052C00081939193A193B1938F01FB01819191916E
:1052D000A191B191BF01FA0181939193A193B193EF
:1052E000AF01F90181919191A191B1919F01F501D6
:1052F00081939193A193B1935F01D394F4E0DF1272
:10530000D8CF0E947B7E80E090E8ABE3B5E4809349
:10531000890F90938A0FA0938B0FB0938C0F80937B
:10532000850F9093860FA093870FB093880F80937B
:10533000810F9093820FA093830FB093840F1092EC
:105340008D0F10928E0F10928F0F1092900F80E29F
:105350009EE4A0E0B0E08093C10F9093C20FA093B1
:10536000C30FB093C40F1092710F1092720F10926E
:10537000730F1092740F80E090E0A0ECB0E4809383
:105380007D0F90937E0FA0937F0FB093800F8DECD5
:105390009CECACECBEE38093790F90937A0FA093D2
:1053A0007B0FB0937C0F80E090E0A0EAB0E48093A4
:1053B000750F9093760FA093770FB093780F10929C
:1053C0008105109282051092830510928405109237
:1053D0007D0510927E0510927F0510928005109237
:1053E000790510927A0510927B0510927C05109237
:1053F00055051092560510925705109258058EEBE0
:1054000090E090935516809354168CE390E090931F
:10541000531680935216109251161092501680EF28
:1054200090E090934F1680934E168EE690E0909306
:105430004D1680934C1610924B1610924A168CE51E
:105440009FE8AAE2B1E480938D0290938E02A0932C
:105450008F02B093900261EE7AE784ED9FE30E94A1
:10546000CFB76093890270938A0280938B029093E6
:105470008C026CE57FE886E691E40E94DBB76093DE
:10548000850270938602809387029093880280E061
:1054900090E0A8ECB2E48093810290938202A09302
:1054A0008302B093840284E190E090931002809391
:1054B0000F020E946FAB1092910580E090E0A0E493
:1054C000B0E48093350290933602A0933702B093F4
:1054D00038020E94FE64E0EBF1E18491882341F000
:1054E0009091C00095FFFCCF8093C6003196F5CF18
:1054F000EDE6F6E08491882341F09091C00095FF9D
:10550000FCCF8093C6003196F5CF8091C00085FF17
:10551000FCCF8AE08093C600E0960FB6F894DEBF19
:105520000FBECDBFDF91CF911F910F91FF90EF90F4
:10553000DF90BF90AF900895CF93C82F882369F173
:105540004091A10F5091A20F6091A30F7091A40FF1
:1055500085E596E0D7D64091A50F5091A60F6091B2
:10556000A70F7091A80F82E596E0CCD64091A90FC5
:105570005091AA0F6091AB0F7091AC0F8FE496E041
:10558000C1D64091AD0F5091AE0F6091AF0F7091A9
:10559000B00F8CE496E0B6D62FC0E0EBF1E1849139
:1055A000882341F09091C00095FFFCCF8093C60006
:1055B0003196F5CFEDE5F6E08491882341F09091A6
:1055C000C00095FFFCCF8093C6003196F5CF809147
:1055D000C00085FFFCCF8AE08093C600E0EBF1E1DC
:1055E0008491882309F4ACCF9091C00095FFFCCF43
:1055F0008093C6003196F4CF8091C00085FFFCCF28
:105600008AE08093C600CC2369F14091B10F50919C
:10561000B20F6091B30F7091B40F89E296E072D629
:105620004091B50F5091B60F6091B70F7091B80FC0
:1056300086E296E067D64091B90F5091BA0F60911B
:10564000BB0F7091BC0F83E296E05CD64091BD0F1A
:105650005091BE0F6091BF0F7091C00F80E296E035
:1056600051D62FC0E0EBF1E18491882341F0909175
:10567000C00095FFFCCF8093C6003196F5CFE2E3E2
:10568000F6E08491882341F09091C00095FFFCCF13
:105690008093C6003196F5CF8091C00085FFFCCF86
:1056A0008AE08093C600E0EBF1E18491882309F45D
:1056B000ACCF9091C00095FFFCCF8093C60031968F
:1056C000F4CF8091C00085FFFCCF8AE08093C600B4
:1056D000CC2369F14091910F5091920F6091930FFB
:1056E0007091940F89EF95E01FD64091950F5091DE
:1056F000960F6091970F7091980F86EF95E014D6F2
:105700004091990F50919A0F60919B0F70919C0F4F
:1057100083EF95E009D640919D0F50919E0F6091C7
:105720009F0F7091A00F80EF95E0FED52FC0E0EBAA
:10573000F1E18491882341F09091C00095FFFCCF66
:105740008093C6003196F5CFE2E0F6E0849188239D
:1057500041F09091C00095FFFCCF8093C600319638
:10576000F5CF8091C00085FFFCCF8AE08093C60012
:10577000E0EBF1E18491882309F4ACCF9091C00073
:1057800095FFFCCF8093C6003196F4CF8091C00086
:1057900085FFFCCF8AE08093C600CC2311F14091B5
:1057A000890F50918A0F60918B0F70918C0F85EB50
:1057B00095E0A8D54091850F5091860F6091870F95
:1057C0007091880F82EB95E09DD54091810F5091AB
:1057D000820F6091830F7091840F8FEA95E092D5CC
:1057E0002FC0E0EBF1E18491882341F09091C0005B
:1057F00095FFFCCF8093C6003196F5CFEEEBF5E038
:105800008491882341F09091C00095FFFCCF809354
:10581000C6003196F5CF8091C00085FFFCCF8AE0AD
:105820008093C600E0EBF1E18491882309F4B7CFBF
:105830009091C00095FFFCCF8093C6003196F4CFC5
:105840008091C00085FFFCCF8AE08093C600CC2306
:1058500009F443C040918D0F50918E0F60918F0FCE
:105860007091900F83EF94E04DD54091710F50915E
:10587000720F6091730F7091740F80EF94E042D5B6
:105880004091C10F5091C20F6091C30F7091C40F2E
:105890008DEE94E049D540917D0F50917E0F60913F
:1058A0007F0F7091800F8AEE94E02CD54091790F94
:1058B00050917A0F60917B0F70917C0F87EE94E08E
:1058C00021D54091750F5091760F6091770F7091AF
:1058D000780F84EE94E016D52FC0E0EBF1E18491CF
:1058E000882341F09091C00095FFFCCF8093C600C3
:1058F0003196F5CFECEFF4E08491882341F090915C
:10590000C00095FFFCCF8093C6003196F5CF809103
:10591000C00085FFFCCF8AE08093C600E0EBF1E198
:105920008491882309F496CF9091C00095FFFCCF15
:105930008093C6003196F4CF8091C00085FFFCCFE4
:105940008AE08093C600CC2311F1409179055091F3
:105950007A0560917B0570917C0589EC94E0D2D446
:1059600040917D0550917E0560917F057091800585
:1059700086EC94E0C7D440918105509182056091F6
:1059800083057091840583EC94E0BCD42FC0E0EBD8
:10599000F1E18491882341F09091C00095FFFCCF04
:1059A0008093C6003196F5CFE2EDF4E08491882330
:1059B00041F09091C00095FFFCCF8093C6003196D6
:1059C000F5CF8091C00085FFFCCF8AE08093C600B0
:1059D000E0EBF1E18491882309F4B7CF9091C00006
:1059E00095FFFCCF8093C6003196F4CF8091C00024
:1059F00085FFFCCF8AE08093C600CC23B1F0609194
:105A00005416709155168BE994E06AD46091521641
:105A10007091531688E994E063D4609150167091A8
:105A2000511685E994E05CD42FC0E0EBF1E184915C
:105A3000882341F09091C00095FFFCCF8093C60071
:105A40003196F5CFE7EAF4E08491882341F0909114
:105A5000C00095FFFCCF8093C6003196F5CF8091B2
:105A6000C00085FFFCCF8AE08093C600E0EBF1E147
:105A70008491882309F4C3CF9091C00095FFFCCF97
:105A80008093C6003196F4CF8091C00085FFFCCF93
:105A90008AE08093C600CC23B1F060914E167091DD
:105AA0004F1689E894E01CD460914C1670914D1605
:105AB00086E894E015D460914A1670914B1683E8FD
:105AC00094E00ED40DC0E0EBF1E18491882329F33A
:105AD0009091C00095FFFCCF8093C6003196F5CF22
