:100000000C94FF0A0C942A0B0C942A0B0C942A0BC8
:100010000C942A0B0C942A0B0C942A0B0C942A0B8C
:100020000C942A0B0C942A0B0C942A0B0C942A0B7C
:100030000C942A0B0C94438F0C942A0B0C942A0BCF
:100040000C942A0B0C94F6960C9455A40C942A0B41
:100050000C94AD4E0C942A0B0C942A0B0C942A0B86
:100060000C942A0B0C942A0B0C942A0B0C942A0B3C
:100070000C942A0B0C942A0B0C942A0B0C942A0B2C
:100080000C942A0B0C942A0B0C942A0B084AD73B8D
:100090003BCE016E84BCBFFDC12F3D6C74319ABD57
:1000A00056833DDA3D00C77F11BED9E4BB4C3E917B
:1000B0006BAAAABE000000803F05A84CCDB2D44E6A
:1000C000B93836A9020C50B9918688083CA6AAAA6C
:1000D0002ABE000000803F4D383420582059205A55
:1000E0002045006563686F3A0043616E6E6F74204F
:1000F000656E746572207375626469723A20004D92
:100100003234004D3233202573006461676F6D61B6
:1001100025692E67004572726F723A006572726FC0
:10012000722077726974696E6720746F2066696CDB
:1001300065004E6F74205344207072696E74696E4E
:1001400067002F005344207072696E74696E6720D7
:100150006279746520002E0044656C6574696F6E69
:10016000206661696C65642C2046696C653A2000E4
:1001700046696C652064656C657465643A002E00A0
:100180006F70656E206661696C65642C2046696CD1
:10019000653A200057726974696E6720746F206633
:1001A000696C653A20002E006F70656E206661698B
:1001B0006C65642C2046696C653A20002E006F70D7
:1001C000656E206661696C65642C2046696C653AD1
:1001D000200046696C652073656C65637465640016
:1001E0002053697A653A200046696C65206F706516
:1001F0006E65643A20002E006F70656E206661693E
:100200006C65642C2046696C653A20004E6F77203F
:1002100066726573682066696C653A20004E6F7778
:1002200020646F696E672066696C653A2000222041
:10023000706F73002220706172656E743A220053F1
:100240005542524F5554494E452043414C4C207421
:1002500061726765743A2200747279696E672074FE
:100260006F2063616C6C207375622D67636F6465CA
:100270002066696C6573207769746820746F6F20DD
:100280006D616E79206C6576656C732E204D4158DA
:10029000206C6576656C2069733A00534420636175
:1002A0007264206F6B006F70656E526F6F742066A2
:1002B00061696C656400766F6C756D652E696E6939
:1002C00074206661696C656400534420696E6974CA
:1002D000206661696C006563686F3A00486172640A
:1002E000636F6465642044656661756C7420536552
:1002F0007474696E6773204C6F6164656400204498
:10030000002049002020204D33303120500050493A
:10031000442073657474696E67733A00205A002034
:10032000590020204D323036205800486F6D65202E
:100330006F666673657420286D6D293A002045004C
:10034000205A0020580020420020540020204D3226
:100350003035205300416476616E636564207661B8
:10036000726961626C65733A20533D4D696E206617
:100370006565647261746520286D6D2F73292C206A
:10038000543D4D696E2074726176656C20666565BA
:10039000647261746520286D6D2F73292C20423D95
:1003A0006D696E696D756D207365676D656E74201E
:1003B00074696D6520286D73292C20583D6D617816
:1003C000696D756D205859206A65726B20286D6DB6
:1003D0002F73292C20205A3D6D6178696D756D2031
:1003E0005A206A65726B20286D6D2F73292C20208E
:1003F000453D6D6178696D756D2045206A65726B4C
:1004000020286D6D2F73290020540020204D32309C
:1004100034205300416363656C65726174696F6E6B
:100420003A20533D616363656C65726174696F6EF8
:100430002C20543D7265747261637420616363653E
:100440006C65726174696F6E00204500205A00204F
:10045000590020204D3230312058004D6178696DAF
:10046000756D20416363656C65726174696F6E20A0
:10047000286D6D2F7332293A00204500205A002044
:10048000590020204D3230332058004D6178696D7D
:10049000756D2066656564726174657320286D6D85
:1004A0002F73293A00204500205A002059002020AF
:1004B0004D39322058005374657073207065722076
:1004C000756E69743A006563686F3A004572726FC1
:1004D000723A005072696E7465722073746F707036
:1004E00065642064756520746F206572726F727325
:1004F0002E2046697820746865206572726F7220BC
:10050000616E6420757365204D39393920746F2010
:10051000726573746172742E202854656D706572F3
:1005200061747572652069732072657365742E201D
:1005300053657420697420616674657220726573F6
:1005400074617274696E6729005072696E746572A5
:100550002068616C7465642E206B696C6C2829209E
:1005600063616C6C656421006F6B00526573656E2E
:10057000643A20002200556E6B6E6F776E20636FB9
:100580006D6D616E643A2022005A204F6666736575
:1005900074203A20007A5F6D61783A20007A5F6DAE
:1005A000696E3A20005A204F6666736574005A20BF
:1005B0004F6666736574206F6B007A5F6D696E3A83
:1005C0002000795F6D61783A2000785F6D696E3A3E
:1005D0002000205A3A0020593A0020436F756E746B
:1005E00020583A200020453A00205A3A0020593A33
:1005F00000583A004649524D574152455F4E414DD1
:10060000453A4D61726C696E2056313B20537072D1
:10061000696E7465722F6772626C206D61736875A4
:100620007020666F722067656E36204649524D57BE
:100630004152455F55524C3A687474703A2F2F7787
:1006400077772E6461676F6D612E66722050524F0E
:10065000544F434F4C5F56455253494F4E3A312EFB
:1006600030204D414348494E455F545950453A6406
:100670006973636F76657279203230302045585443
:1006800052554445525F434F554E543A31205555CB
:1006900049443A30303030303030302D3030303026
:1006A0002D303030302D303030302D303030303053
:1006B000303030303030300A0020423A0020453AA5
:1006C00000543A0020573A0020453A00543A00209E
:1006D00042403A0020403A00202F003A00205400C7
:1006E000202F0020423A00202F006F6B20543A0048
:1006F0002569206D696E2C2025692073656300458E
:100700006E642066696C65206C697374004265676D
:10071000696E2066696C65206C697374000A00203C
:100720005A3A200020593A200020583A20004265C9
:10073000640020643A200020623A200045716E2057
:10074000636F656666696369656E74733A20613AC2
:100750002000486F6D6520582F59206265666F72C2
:1007600065205A005A2070726F6265206F75742E72
:100770002062656400486F6D6520582F59206265BE
:10078000666F7265205A00FF01FF00004D430000B4
:100790004D4300004D430000A0400000A040000079
:1007A00000400000000000004D4300000000000079
:1007B0000000000000000000000000004D430000A9
:1007C0004D4300004D430A00207A3A200020793A38
:1007D000200020783A200042656400256920686F77
:1007E000757273202569206D696E75746573004498
:1007F0006F6E65207072696E74696E672066696CD1
:1008000065005072696E7465722073746F707065E4
:10081000642064756520746F206572726F72732E28
:100820002046697820746865206572726F72206155
:100830006E6420757365204D39393920746F2072CC
:100840006573746172742E202854656D70657261D1
:10085000747572652069732072657365742E2053F8
:1008600065742069742061667465722072657374A2
:10087000617274696E6729006F6B004E6F204C695E
:100880006E65204E756D62657220776974682063AD
:100890006865636B73756D2C204C617374204C69B3
:1008A0006E653A20004E6F20436865636B73756D0B
:1008B0002077697468206C696E65206E756D62655D
:1008C000722C204C617374204C696E653A20006371
:1008D0006865636B73756D206D69736D61746368B2
:1008E0002C204C617374204C696E653A20004C6971
:1008F0006E65204E756D626572206973206E6F742F
:10090000204C617374204C696E65204E756D626574
:10091000722B312C204C617374204C696E653A2027
:10092000004D31313000446F6E6520736176696E21
:10093000672066696C652E006F6B004D32390020B0
:1009400020506C616E6E65724275666665724279A2
:100950007465733A20002046726565204D656D6FA1
:1009600072793A20004665622020322032303136DA
:1009700000436F6D70696C65643A2000286E6F6E7D
:10098000652C2064656661756C7420636F6E6669A2
:10099000672900207C20417574686F723A200046F8
:1009A000656220203220323031362031313A3539FB
:1009B0003A333700204C617374205570646174655C
:1009C000643A2000312E302E30004D61726C696E19
:1009D0000020536F66747761726520526573657489
:1009E00000205761746368646F6720526573657493
:1009F000002042726F776E206F75742052657365A8
:100A000074002045787465726E616C205265736560
:100A10007400506F77657255700073746172740062
:100A20002200656E717565696E672022002200657F
:100A30006E717565696E672022006563686F3A00A4
:100A400020746F6F206C6F6E672065787472757399
:100A5000696F6E2070726576656E746564002063E0
:100A60006F6C6420657874727573696F6E20707234
:100A70006576656E746564007C3C3E5E2B3D3F2F61
:100A80005B5D3B2C2A225C0045303A20005A3A201C
:100A900000593A2000583A20004D53312C4D533222
:100AA0002050696E730A0024F404D9201BC40C5C26
:100AB0000E9804C4095F0265077101F405F900FB93
:100AC00004B30048048700C10369005803550003BC
:100AD000034500BE023A008402310053022A002975
:100AE00002250004022000E4011C00C8011900AF27
:100AF00001170098011400840113007101100061B6
:100B000001100051010E0043010D0036010B002BB6
:100B1000010B0020010B00150109000C0109000365
:100B2000010800FB000800F3000800EB000700E4E8
:100B3000000600DE000600D8000600D2000600CC49
:100B4000000500C7000500C2000500BD000400B993
:100B5000000400B5000400B1000400AD000400A9C9
:100B6000000400A5000300A20003009F0004009BF6
:100B7000000300980003009500020093000300901A
:100B80000003008D0002008B000300880002008635
:100B900000020084000300810002007F0002007D4B
:100BA0000002007B0002007900020077000100765D
:100BB0000002007400020072000100710002006F68
:100BC0000002006D0001006C0002006A0001006973
:100BD000000200670001006600010065000100647A
:100BE0000002006200010061000100600001005F7E
:100BF0000002005D0001005C0001005B0001005A82
:100C00000001005900010058000100570001005682
:100C10000001005500010054000100530000005382
:100C20000001005200010051000100500001004F7E
:100C30000001004E0000004E0001004D0001004C7C
:100C40000001004B0000004B0001004A0001004978
:100C50000001004800000048000100470001004674
:100C6000000000460001004500000045000100446E
:100C70000001004300000043000100420000004268
:100C80000001004100000041000100400001003F60
:100C90000000003F0001003E0000003E0001003D5A
:100CA0000000003D0001003C0000003C0000003C52
:100CB0000001003B0000003B0001003A0000003A48
:100CC0000001003900000039000100380000003840
:100CD0000000003800010037000000370001003636
:100CE000000000360000003600010035000000352D
:100CF0000000003500010034000000340000003422
:100D00000001003300000033000000330001003216
:100D1000000000320000003200010031000000310C
:100D20000000003100010030000000300000003001
:100D30000001002F0000002F0000002F0000002FF6
:100D40000001002E0000002E0000002E0001002DEA
:100D50000000002D0000002D0000002D0001002CDF
:100D60000000002C0000002C0000002C0001002BD3
:100D70000000002B0000002B0000002B0001002AC7
:100D80000000002A0000002A0000002A00010029BB
:100D900000000029000000290000002900000029AF
:100DA00000010028000000280000002800000028A2
:100DB0000000002800010027000000270000002795
:100DC0000000002700000027000100260000002688
:100DD000000000260000002600000026000100257B
:100DE000000000250000002500000025000000256F
:100DF0000000002500010024000000240000002461
:100E00000000002400000024000100230000002353
:100E10000000002300000023000000230000002346
:100E20000000002300010022000000220000002238
:100E3000000000220000002200000022000100212A
:100E4000000000210000002100000021000000211E
:100E5000000000210000002100010020000000200F
:100E60000000002000000020000000200000002002
:100E700000000020000000200001001F0000001FF3
:100E80000000001F0000001F0000001F0000001FE6
:100E90000000001F0001001E0000001E0000001ED8
:100EA0000000001E00000024F4D43050C38E20C285
:100EB000A24017828B7011127A910D816CD90AA809
:100EC00061E108C7586607615143061E4B5D05C1C5
:100ED00045A7041A411104093D98037139310340B3
:100EE00036DB0265339102D4305402802E1D02633A
:100EF0002CEE01752AC501B028A001102781018FB1
:100F00002564012B244B01E0223401AC211F018D0B
:100F1000200D01801FFC00841EED00971DDF00B82E
:100F20001CD200E61BC600201BBC00641AB200B233
:100F300019A8000A19A0006A189900D11791004059
:100F4000178B00B516840031167E00B31579003A70
:100F5000157300C7146F0058146A00EE13660088FA
:100F600013630025135E00C7125B006C1257001557
:100F7000125400C111510070114F0021114B00D6C5
:100F80001049008D1047004610440002104200C076
:100F90000F4000800F3E00420F3C00060F3B00CB8D
:100FA0000E3800930E37005C0E3500270E3400F328
:100FB0000D3200C10D3100900D3000600D2E003259
:100FC0000D2D00050D2C00D90C2B00AE0C29008531
:100FD0000C29005C0C2700350C27000E0C2600E8BD
:100FE0000B2400C40B2400A00B23007D0B23005A0C
:100FF0000B2100390B2100180B2000F80A1F00D923
:101000000A1E00BB0A1E009D0A1D00800A1D006307
:101010000A1C00470A1B002C0A1B00110A1A00F7C1
:10102000091A00DD091900C4091900AB0919009259
:101030000917007B091800630917004C09160036D0
:10104000091600200916000A091500F5081500E028
:10105000081400CC081400B8081400A40814009068
:101060000813007D0812006B081300580812004690
:1010700008120034081100230811001208110001A1
:10108000081100F0071000E0071000D0071000C0A2
:10109000071000B0070F00A107100091070E008392
:1010A000070F0074070F0065070E0057070E004971
:1010B000070E003B070D002E070E0020070D001342
:1010C000070D0006070D00F9060C00ED060D00E007
:1010D000060C00D4060C00C8060C00BC060C00B0C0
:1010E000060C00A4060B0099060C008D060B00826E
:1010F000060B0077060B006C060B0061060A005712
:10110000060B004C060A0042060A0038060A002EAA
:10111000060A0024060A001A060A0010060900073B
:10112000060A00FD050900F4050900EB050900E2C7
:10113000050900D9050900D0050900C7050900BE49
:10114000050900B5050800AD050800A50509009CC6
:10115000050800940508008C050800840508007C3B
:10116000050800740508006C050700650508005DAA
:10117000050700560508004E050700470507004013
:1011800005080038050700310507002A0507002378
:101190000507001C050600160507000F05070008D7
:1011A00005060002050700FB040600F5040700EE33
:1011B000040600E8040600E2040700DB040600D58C
:1011C000040600CF040600C9040600C3040600BDDF
:1011D000040600B7040600B1040500AC040600A62E
:1011E000040600A00405009B040600950405009079
:1011F0000406008A04050085040500800406007AC0
:1012000004050075040500700405006B0405006604
:10121000040500610405005C040500570405005244
:101220000405004D04050048040500430405003E84
:101230000404003A04050035040500300404002CC1
:1012400004050027040400230405001E0404001AFA
:1012500004040016040500110404000D0404000930
:101260000405000404040000040400FC030400F866
:10127000030400F4030400F0030400EC030400E89A
:10128000030400E4030400E0030400DC030400D8CA
:10129000030400D4030400D0030400CC030400C8FA
:1012A000030300C50303006563686F3A00205A3AE0
:1012B0000020593A0020583A00656E6473746F70CC
:1012C00073206869743A20004572726F723A005454
:1012D000656D7065726174757265206865617465AD
:1012E0006420626564207377697463686564206F45
:1012F00066662E204D415854454D502074726967E2
:101300006765726564202121003A20457874727502
:10131000646572207377697463686564206F6666BC
:101320002E204D494E54454D5020747269676765B3
:101330007265642021003A20457874727564657284
:10134000207377697463686564206F66662E204D2C
:10135000415854454D5020747269676765726564E1
:10136000202100202D20496E76616C69642065780B
:10137000747275646572206E756D626572202100ED
:10138000500040016000360170002C0180002701F0
:10139000A0001D01B0001801C000130100010901E7
:1013A0004001FE006001FA00D001F0004002E600BA
:1013B000D002DE000003D7004003D0008004CA0042
:1013C000B004C4006005C0009005BC00A006B600D3
:1013D0008007AE003008AA00F008A6008009A2002D
:1013E000800A9E00800B9900B00C9600D00D9100F1
:1013F000000F8F000012860070157D0040197400E8
:10140000F01D6B009022620050275900602C4E00A6
:10141000D0304500C0343C00C0373200403A29008B
:10142000A03C1D00803E1400203F0A000040EFFE5B
:10143000504944204175746F74756E652066696EFD
:101440006973686564212050757420746865206C28
:10145000617374204B702C204B6920616E64204BAB
:101460006420636F6E7374616E74732066726F6D47
:101470002061626F766520696E746F20436F6E66BF
:10148000696775726174696F6E2E680050494420F7
:101490004175746F74756E65206661696C65642151
:1014A0002074696D656F75740020403A006F6B2081
:1014B000543A006F6B20423A005049442041757401
:1014C0006F74756E65206661696C65642120546572
:1014D0006D706572617475726520746F6F206869D4
:1014E000676800204B643A2000204B693A200020B6
:1014F0004B703A200020436C61737369632050493C
:101500004420002054753A2000204B753A200020DA
:101510006D61783A2000206D696E3A200020643AAF
:10152000200020626961733A20000A0020000A004E
:10153000207A3A200020793A200020783A200000D2
:10154000002100240027002A000000220025002896
:10155000002B0000002000230026002900020202C8
:101560000202020202040404040404040403030348
:10157000030303030301010101010101010102044D
:10158000081020408001020408102040800102045D
:101590000810204080804020100804020100000054
:1015A0000102000000000000000403070600000024
:1015B00000000000000000000000000000494E464E
:1015C000494E4954594E414ECDCCCC3D0AD7233CCF
:1015D00017B7D13877CC2B329595E6241FB14F0A37
:1015E000000020410000C84200401C4620BCBE4C08
:1015F000CA1B0E5AAEC59D745323414F4C23112470
:101600001FBECFEFD0E4DEBFCDBF13E0A0E0B1E05E
:10161000E2EEF8E501E00BBF02C007900D92AC3698
:10162000B107D9F71BBE10E1ACE6B3E001C01D92D3
:10163000A639B107E1F715E1CCEFD5E104C0229757
:10164000FE010E9416ACC83FD107C9F70E94CCA684
:101650000C9464AC0C940000CF93DF93BC018230F7
:10166000910510F462E070E0A0919210B091931097
:10167000ED01E0E0F0E040E050E021C08881998198
:101680008617970769F48A819B81309719F09383B5
:10169000828304C09093931080939210FE0134C013
:1016A0006817790738F44115510519F08417950723
:1016B00008F4AC01FE018A819B819C01E90120971D
:1016C000E9F641155105A9F1CA01861B970B04974C
:1016D00008F4BA01E0E0F0E02AC08D919C911197E6
:1016E00084179507F9F46417750781F412968D91A4
:1016F0009C911397309719F09383828304C0909341
:10170000931080939210FD0132964CC0CA01861B43
:10171000970BFD01E80FF91F6193719302978D9369
:101720009C9340C0FD01828193819C01D901109757
:10173000A1F68091901090919110892B41F48091A5
:10174000700290917102909391108093901040914B
:101750007202509173024115510541F44DB75EB7C5
:1017600080916E0290916F02481B590B209190104E
:1017700030919110CA01821B930B8617970780F056
:10178000AB014E5F5F4F8417950750F0420F531F18
:101790005093911040939010F9016193719302C09E
:1017A000E0E0F0E0CF01DF91CF910895CF93DF9398
:1017B000009709F450C0EC0122971B821A82A09175
:1017C0009210B0919310109709F140E050E0AC17DF
:1017D000BD0708F1BB83AA83FE0121913191E20F7D
:1017E000F31FAE17BF0779F48D919C911197280FC5
:1017F000391F2E5F3F4F3983288312968D919C911C
:1018000013979B838A834115510571F4D0939310EC
:10181000C093921020C012968D919C911397AD01A8
:10182000009711F0DC01D3CFFA01D383C283219159
:101830003191E20FF31FCE17DF0769F48881998198
:10184000280F391F2E5F3F4FFA01318320838A8191
:101850009B8193838283DF91CF910895A0E0B0E0D4
:10186000E4E3FCE00C9433ACEC015B016115710521
:1018700019F0FB0191838083F9908F2D90E00E94F5
:101880001AAC892BC9F7FDE2FF1621F4F990EE247A
:10189000E39405C02BE2F21609F4F990EE248E01D0
:1018A00001501040C8016DEB75E143E050E00E942B
:1018B000C40E892B01F58E010E5F1F4FC80160EC2D
:1018C00075E145E050E00E94C40E892B19F48E01A9
:1018D000095F1F4FA114B10419F0F50111830083B2
:1018E000E0FC04C070E090E080E814C070E090E09C
:1018F00080E86FEF08C1C80165EC75E143E050E096
:101900000E94C40E892B69F4A114B10429F470E07B
:1019100090E080EC6FE7F7C02296F501D183C08399
:10192000F6CF8824992440E050E060E070E0EF2D8D
:10193000E053EA30A0F5F2E0EF2A8E2D90E09C0112
:1019400028703070E2FE06C0232B79F50894811CC4
:10195000911C2BC0232B19F0089481089108DB01FE
:10196000CA0112E0880F991FAA1FBB1F1A95D1F751
:10197000480F591F6A1F7B1F440F551F661F771F93
:101980004E0F511D611D711D483929E9520729E982
:10199000620729E1720748F084E0E82A06C0EE3FBA
:1019A00031F4E3FC39C098E0E92AF990C0CFE5337F
:1019B00011F0E53189F529912D3219F4E0E1EE2A93
:1019C00005C02B3219F081E090E003C0299182E03C
:1019D00090E0E22FE053EA3018F0C81BD90B1CC08E
:1019E00020E030E0FCE020383F075CF4C901880FBC
:1019F000991F880F991F280F391F220F331F2E0F91
:101A0000311DE991E053EA3068F3E4FE03C03095FC
:101A100021953F4F820E931ECE2CDD24E1FE07C0A0
:101A2000A114B10421F02197F501D183C083CB012A
:101A3000BA010E947FA87B018C01F3E0CF22DD2454
:101A400023E0C216D10421F417FB109517F9109565
:101A500057016801C801B70120E030E040E050E0E4
:101A60000E94DFA7882309F44AC097FE0DC02CED21
:101A7000E22E25E1F22E9094819491089394C0E295
:101A8000D0E000E010E012C094EFE92E95E1F92ECD
:101A9000F6CFF7012591359145915491C601B501D5
:101AA0000E94BFAA5B016C018C1A9D0A8C169D06D0
:101AB00084F7D595C7950F5F1F4F0630110529F0A4
:101AC0008CEF9FEFE80EF91EF1CFC501D6017C0126
:101AD0008D018C2D880F8D2D881F8F3F51F0C601F1
:101AE000B50120E030E040E050E00E94DFA788230D
:101AF00031F482E290E090939510809394107E2DC3
:101B00009F2D802F612F272F392F482F562FB90156
:101B1000CA01CDB7DEB7ECE00C944FAC2F923F92E8
:101B20005F926F927F928F929F92AF92BF92CF926D
:101B3000DF92EF92FF920F931F93CF93DF938C016D
:101B40001B01EA016115710519F0FB019183808386
:101B5000209749F0CE010297839728F020E030E0EB
:101B600040E050E0F6C0F801A1908F018A2D90E08E
:101B70000E941AAC892BB9F7FDE2AF1631F4F801D7
:101B8000A1908F015524539407C0FBE2AF1619F4BE
:101B9000F801A1908F015524209719F0C031D1058B
:101BA000C1F4F0E3AF1679F4F8018081883711F0C1
:101BB000883549F4F801A1800E5F1F4FF2E05F2ADB
:101BC000C0E1D0E006C0209721F480E3A816E9F434
:101BD00027C0C830D10531F1C930D10524F4C23055
:101BE000D10531F50CC0CA30D10589F0C031D1051D
:101BF000F9F4C12CD12CE12CB8E0FB2E28C0C12C6B
:101C0000D12CE12CA0E4FA2E22C0CAE0D0E0FCECFA
:101C1000CF2EFCECDF2EFCECEF2EFCE0FF2E17C0ED
:101C2000C8E0D0E0C12CD12CE12CE0E1FE2E0FC0A9
:101C30009E01442737FD4095542F60E070E080E01E
:101C400090E80E94C3ABC901DA016C017D0120E07C
:101C500030E040E050E060E03E01882477FC809472
:101C6000982C70EDB72EBA0CE9E0EB1570F48A2DC4
:101C700081548A3118F499ECB92E06C08A2D815608
:101C80008A3150F589EAB82EBA0C8B2D90E08C176A
:101C90009D0714F56F3FE1F0C216D306E406F50682
:101CA000B0F0CA01B901A40193010E9491AB9B015C
:101CB000AC012B0D311D411D511D2130F0E03F07BE
:101CC000F0E04F07F0E85F0710F461E001C06FEF4C
:101CD000F801A1908F01C5CF2114310481F0662352
:101CE00031F001501040F1011183008308C051FE12
:101CF0001AC002501040F1011183008314C067FF25
:101D000012C050FC05C02FEF3FEF4FEF5FE704C05C
:101D100020E030E040E050E882E290E090939510BF
:101D20008093941016C050FE08C050954095309591
:101D300021953F4F4F4F5F4F0CC057FF0AC082E2C3
:101D400090E090939510809394102FEF3FEF4FEF1A
:101D50005FE7B901CA01DF91CF911F910F91FF9009
:101D6000EF90DF90CF90BF90AF909F908F907F903B
:101D70006F905F903F902F900895FB01DC010590DC
:101D80000D920020E1F70895FB01DC014150504025
:101D900088F08D9181341CF08B350CF4805E659158
:101DA00061341CF06B350CF4605E861B611171F3BD
:101DB000990B0895881BFCCFFB0155915523A9F081
:101DC000BF01DC014D9145174111E1F759F4CD01F7
:101DD0000590002049F04D9140154111C9F3FB01D8
:101DE0004111EFCF81E090E001970895FB01DC0104
:101DF00004C08D910190801921F441505040C8F7E2
:101E0000881B990B0895FB01DC0102C001900D9223
:101E100041505040D8F70895FB01DC010D9000209F
:101E2000E9F7119701900D920020E1F70895FC0168
:101E30008191861721F08823D9F799270895319742
:101E4000CF010895FB01DC018D91019080190110F3
:101E5000D9F3990B0895FB01DC0101900D9200204C
:101E6000E1F70895FB01DC014150504030F08D91C5
:101E70000190801919F40020B9F7881B990B089577
:101E8000FB01DC014150504048F001900D920020D0
:101E9000C9F701C01D9241505040E0F70895AEE0EF
:101EA000B0E0E5E5FFE00C943BAC0D891E898EE0C7
:101EB0008C831A8309838FEF9FE79E838D839E0116
:101EC000275E3F4FCE0101966F89788DA9010E9450
:101ED000730F2F813885020F131FF80110822E9681
:101EE000E4E00C9457ACABE0B0E0E9E7FFE00C9421
:101EF0002DAC3C012B015A01FC0117821682838113
:101F000081FD03C06FEF7FEFC6C19AE0892E1E01ED
:101F10000894211C311CF3012381F20123FD8591DA
:101F200023FF81912F01882309F4B2C1853239F44E
:101F300023FD859123FF81912F01853229F490E0C3
:101F4000B3010E946611E7CF982FFF24EE24992455
:101F5000FFE1FF15D0F09B3269F09C3228F49032FB
:101F600059F0933291F40EC09D3249F0903369F4E8
:101F700041E024C052E0F52A84E0F82A28C098E025
:101F8000F92A25C0E0E1FE2A22C0F7FC29C0892FEA
:101F900080538A3070F4F6FE05C0989C902C112472
:101FA000980E15C0E89CE02C1124E80EF0E2FF2A00
:101FB0000EC09E3229F4F6FC6BC140E4F42A07C03F
:101FC0009C3619F450E8F52A02C0983649F4F2011B
:101FD00023FD959123FF91912F01992309F0B8CF0B
:101FE000892F8554833018F08052833038F444E0D0
:101FF00050E0A40EB51E5FE359830FC0933631F055
:10200000933779F0933509F056C020C0F5018081EF
:10201000898342E050E0A40EB51E610101E010E0AA
:1020200012C0F501C080D180F6FC03C06FEF7FEFD6
:1020300002C0692D70E042E050E0A40EB51EC6015A
:102040000E945B118C015FE7F52214C0F501C0808E
:10205000D180F6FC03C06FEF7FEF02C0692D70E006
:1020600042E050E0A40EB51EC6010E9450118C0142
:1020700050E8F52AF3FE07C01AC080E290E0B301F1
:102080000E946611EA948E2D90E008171907A8F3B4
:102090000EC0F601F7FC8591F7FE81916F0190E08B
:1020A000B3010E946611E110EA940150104001153D
:1020B000110579F7EAC0943611F0993669F5F7FE03
:1020C00008C0F501208131814281538184E090E094
:1020D0000AC0F501808191819C01442737FD40951C
:1020E000542F82E090E0A80EB91E9FE6F92257FF18
:1020F00009C050954095309521953F4F4F4F5F4F08
:10210000E0E8FE2ACA01B901A1012AE030E00E94FC
:102110009211D82ED21840C0953729F41F2D1F7E5A
:102120002AE030E01DC01F2D197F9F3661F09037E7
:1021300020F4983509F0ACC00FC0903739F09837CB
:1021400009F0A6C004C028E030E00AC0106114FD08
:10215000146020E130E004C014FD166020E132E09C
:1021600017FF08C0F501608171818281938144E08D
:1021700050E008C0F50180819181BC0180E090E0D1
:1021800042E050E0A40EB51EA1010E949211D82E8B
:10219000D2188FE7F82EF122F6FE0BC05EEFF52283
:1021A000D91438F4F4FE07C0F2FC05C08FEEF82213
:1021B00002C01D2D01C0192DF4FE0DC0FE01ED0D54
:1021C000F11D8081803319F499EEF92208C01F5F58
:1021D000F2FE05C003C08F2D867809F01F5F0F2D1A
:1021E000F3FC14C0F0FE0FC01E1510F09D2C0BC0A8
:1021F0009D2C9E0C911A1E2D06C080E290E0B3012A
:102200000E9466111F5F1E15C0F304C01E1510F456
:10221000E11A01C0EE2404FF0FC080E390E0B30197
:102220000E94661102FF1DC001FD03C088E790E017
:102230000EC088E590E00BC0802F867891F001FFFA
:1022400002C08BE201C080E2F7FC8DE290E0B301B6
:102250000E94661106C080E390E0B3010E946611FF
:102260009A94D914C0F3DA94F101ED0DF11D808137
:1022700090E0B3010E946611DD20A9F706C080E25C
:1022800090E0B3010E946611EA94EE20C1F743CEBC
:10229000F30166817781CB012B96E2E10C9449AC86
:1022A000FC010590615070400110D8F78095909521
:1022B0008E0F9F1F0895FC01615070400190011026
:1022C000D8F7809590958E0F9F1F08950F931F93B9
:1022D000CF93DF938C01EB018B8181FF1BC082FFC9
:1022E0000DC02E813F818C819D812817390764F4B0
:1022F000E881F9810193F983E88306C0E885F985CF
:10230000802F0995892B31F48E819F8101969F83BF
:102310008E8302C00FEF1FEFC801DF91CF911F9195
:102320000F910895FA01AA27283051F1203181F147
:10233000E8946F936E7F6E5F7F4F8F4F9F4FAF4FCD
:10234000B1E03ED0B4E03CD0670F781F891F9A1FE0
:10235000A11D680F791F8A1F911DA11D6A0F711D94
:10236000811D911DA11D20D009F468943F912AE0A0
:10237000269F11243019305D3193DEF6CF01089588
:10238000462F4770405D4193B3E00FD0C9F7F6CFB9
:10239000462F4F70405D4A3318F0495D31FD405281
:1023A000419302D0A9F7EACFB4E0A6959795879517
:1023B00077956795BA95C9F70097610571050895F6
:1023C0009B01AC010A2E06945795479537952795A2
:1023D000BA95C9F7620F731F841F951FA01D08953A
:1023E000FC01128213820895FC018381882311F07D
:1023F00081E082830895FC01828181111282089517
:10240000FC0188E693E0918380838781882321F013
:10241000CF0104960E9447810895EF92FF920F9397
:102420001F938C013EECE32E31E0F32EE80EF91EF3
:10243000C7010E94F780C7010E944781F8011082FE
:1024400011821F910F91FF90EF900895CF92DF922C
:10245000EF92FF920F931F93CF93DF937C016B0159
:10246000DB010D900020E9F78D0101501040061BA3
:10247000170BEEECF1E0EE0EFF1ED7011C92E2E32B
:10248000FEEFEE0EFF1ECB016EE470E00E94170F10
:10249000EC01009731F4F8013197EC0DFD1D860138
:1024A0000EC060E270E00E94170F8C010F5F1F4F9B
:1024B000CE016AE270E00E94170FFC0131978DE0B7
:1024C00081838AE082831382C70186539E4FB801BD
:1024D0000E9457898EEC91E0E80EF91ED7018C918D
:1024E000882319F1E5E1F1E0949108C08091C000E2
:1024F00085FFFCCF9093C600319694919923B1F754
:10250000ECE1F1E0949108C08091C00085FFFCCF20
:102510009093C600319694919923B1F78091C000B1
:1025200085FFFCCF8AE08093C600DF91CF911F9199
:102530000F91FF90EF90DF90CF900895CF93DF93AE
:10254000EC018B81882309F43BC0E4E4F1E0949131
:1025500008C08091C00085FFFCCF9093C6003196E3
:1025600094919923B1F7CD57DD4F488159816A8104
:102570007B81C358D2408BE898E02AE030E00E948B
:10258000DC4FE2E4F1E0949108C08091C00085FF47
:10259000FCCF9093C600319694919923B1F7C5581A
:1025A000DD4F488159816A817B818BE898E02AE080
:1025B00030E00E94DC4F8091C00085FFFCCF12C04C
:1025C000E2E3F1E0949108C08091C00085FFFCCF68
:1025D0009093C600319694919923B1F78091C000F1
:1025E00085FFFCCF8AE08093C600DF91CF910895EC
:1025F0002F923F924F925F926F927F928F929F9213
:10260000AF92BF92CF92DF92EF92FF920F931F9300
:10261000DF93CF93CDB7DEB7AC970FB6F894DEBF9C
:102620000FBECDBF5C014B01FC018381882309F4FF
:102630003FC1C50182539E4F0E944781F50112821E
:102640001A8A1D8A198A188A88E693E09F878E87DE
:102650005EE4C52ED12CCA0CDB1C2FE230E0A20EAA
:10266000B31EF601B182A08221ED3FEFA20EB31E90
:10267000F40180818F3209F090C0C4016FE270E0F4
:102680000E94170F7C010894E11CF11C3E01089484
:10269000611C711C260142E1242E312C2C0E3D1EA2
:1026A00077C0C7016FE270E00E94170F6C010097BE
:1026B00009F481C0E816F90608F07DC08C010E19F6
:1026C0001F09C301B701A8010E94400F060D171D85
:1026D000F8011082F30107C08091C00085FFFCCF94
:1026E00031969093C60090819923B1F78091C000F4
:1026F00085FFFCCFFAE0F093C600F20160817181A2
:102700006115710519F460E070E002C06C5F7F4FE5
:10271000C101A30121E00E945588882371F5E0E8FA
:10272000F1E0949108C08091C00085FFFCCF9093A8
:10273000C600319694919923B1F7FE01319607C0F6
:102740008091C00085FFFCCF31969093C6009081A8
:102750009923B1F7EEE7F1E0949108C08091C000B1
:1027600085FFFCCF9093C600319694919923B1F7E1
:102770008091C00085FFFCCF94C02EE030E02C0F8C
:102780003D1FF2013183208376010894E11CF11C86
:10279000E114F10409F085CF0BC080E590E0A80EAC
:1027A000B91EF601B182A08220EB3FEFA20EB31E4C
:1027B000D82C092D02C0DE2C0F2D8EE490E0A80E3F
:1027C000B91EF5018081918122EB3FEFA20EB31E6D
:1027D000009719F480E090E001C004966D2D702FF1
:1027E0000E942789882371F1E0E7F1E0949108C005
:1027F0008091C00085FFFCCF9093C60031969491E4
:102800009923B1F78D2D902F9C01F90107C080917C
:10281000C00085FFFCCF31969093C600908199232C
:10282000B1F78091C00085FFFCCF8AE08093C6009D
:1028300083E892E0A80EB91EF5011082118212827F
:10284000138232C0E8E5F1E0949108C08091C000A5
:1028500085FFFCCF9093C600319694919923B1F7F0
:102860008D2D902F9C01F90107C08091C00085FF3C
:10287000FCCF31969093C60090819923B1F7E6E59D
:10288000F1E0949108C08091C00085FFFCCF909347
:10289000C600319694919923B1F78091C00085FFCD
:1028A000FCCF8AE08093C600CE010E960E940012F3
:1028B000AC960FB6F894DEBF0FBECDBFCF91DF91BF
:1028C0001F910F91FF90EF90DF90CF90BF90AF904E
:1028D0009F908F907F906F905F904F903F902F9040
:1028E0000895BF92CF92DF92EF92FF920F931F93C2
:1028F000CF93DF938C01EB018FE28993EE24E39475
:10290000FF2475EAC72E71E0D72EC00ED11E6FE1ED
:10291000B62E14C0FB9CC00111248D589F4F800F10
:10292000911FBE010E94598102C02196E3948881C3
:10293000882319F08CE88E15C0F7F3942F2D30E022
:10294000F601808191812817390720F3E7FC07C041
:10295000C80182539E4FBE010E94598101C0188256
:10296000DF91CF911F910F91FF90EF90DF90CF906B
:10297000BF9008952F923F924F925F926F927F92F5
:102980008F929F92AF92BF92CF92DF92EF92FF927F
:102990000F931F93DF93CF93CDB7DEB7AD970FB6ED
:1029A000F894DEBF0FBECDBF6C014B014DA7DC011B
:1029B00013968C91882309F442C3E1EDF1E0CE0E29
:1029C000DF1ED6018C91EFE2FEEFCE0EDF1E8823D4
:1029D00009F419C1222309F0E1C029EE31E0C20E49
:1029E000D31ED6018C91E7E1FEEFCE0EDF1E8823C9
:1029F00071F1E5E1F1E0949108C08091C00085FF9C
:102A0000FCCF9093C600319694919923B1F7E8E5F5
:102A1000F2E0949108C08091C00085FFFCCF9093B4
:102A2000C600319694919923B1F78BE898E061E064
:102A300070E04AE050E00E9430508091C00085FF75
:102A4000FCCF8AE08093C6000E949823F8C2E3EE90
:102A5000F0E0949108C08091C00085FFFCCF909376
:102A6000C600319694919923B1F7EFE3F2E0949187
:102A700008C08091C00085FFFCCF9093C6003196BE
:102A800094919923B1F7F40107C08091C00085FFAC
:102A9000FCCF31969093C60090819923B1F7E4E37F
:102AA000F2E0949108C08091C00085FFFCCF909324
:102AB000C600319694919923B1F7C6012EEE31E00C
:102AC000C20ED31EB6010E9471144BEF5FEFC40E0D
:102AD000D51ED6019C91E7E1FEEFCE0EDF1E8DE8FC
:102AE000989FF0011124E251FE4FEC0DFD1D07C02F
:102AF0008091C00085FFFCCF31969093C6009081F5
:102B00009923B1F7EEE2F2E0949108C08091C00001
:102B100085FFFCCF9093C600319694919923B1F72D
:102B200023E832E0C20ED31ED6014D915D916D9126
:102B30007C91EDE7FDEFCE0EDF1E8BE898E02AE0FA
:102B400030E00E94DC4F8091C00085FFFCCF8AE01E
:102B50008093C600A60147515E4FDA012C91E22F07
:102B6000F0E0EE0FFF1FEE0FFF1FEC0DFD1DE65115
:102B7000FE4F83E892E0C80ED91ED6014D905D90BD
:102B80006D907C908DE79DEFC80ED91E40825182DA
:102B9000628273822F5FDA012C932FC0E3EEF0E0A4
:102BA000949108C08091C00085FFFCCF9093C6002F
:102BB000319694919923B1F7EDE1F2E0949108C038
:102BC0008091C00085FFFCCF9093C6003196949110
:102BD0009923B1F7F40107C08091C00085FFFCCFB5
:102BE00031969093C60090819923B1F78091C000EF
:102BF00085FFFCCF8AE08093C600C60182539E4FBA
:102C00000E94478139C0E9EEF1E0CE0EDF1ED60109
:102C10001C92E7E1FEEFCE0EDF1EE3EEF0E09491B2
:102C200008C08091C00085FFFCCF9093C60031960C
:102C300094919923B1F7ECE0F2E0949108C080916F
:102C4000C00085FFFCCF9093C600319694919923E4
:102C5000B1F7F40107C08091C00085FFFCCF319629
:102C60009093C60090819923B1F78091C00085FFB1
:102C7000FCCF8AE08093C600D60112961C921A8A75
:102C80001D8A198A188A88E693E09F878E87FEE45A
:102C9000AF2EB12CAC0CBD1CEFE2F0E0CE0EDF1E6F
:102CA000D501CD92DC92E1EDFFEFCE0EDF1ED40117
:102CB0008C918F3209F090C0C4016FE270E00E94E5
:102CC000170F7C010894E11CF11C3E010894611C63
:102CD000711C2501E2E12E2E312C2C0E3D1E77C0F9
:102CE000C7016FE270E00E94170F5C01009709F4C2
:102CF00081C0E816F90608F07DC08C010E191F0985
:102D0000C301B701A8010E94400F060D171DF8016D
:102D10001082F30107C08091C00085FFFCCF31967F
:102D20009093C60090819923B1F78091C00085FFF0
:102D3000FCCFFAE0F093C600D2016D917C91611551
:102D4000710519F460E070E002C06C5F7F4FC10153
:102D5000A30121E00E945588882371F5E8EFF1E096
:102D6000949108C08091C00085FFFCCF9093C6006D
:102D7000319694919923B1F7FE01319607C0809165
:102D8000C00085FFFCCF31969093C60090819923B7
:102D9000B1F7E6EFF1E0949108C08091C00085FFA3
:102DA000FCCF9093C600319694919923B1F780910E
:102DB000C00085FFFCCF3CC12EE030E02C0F3D1F52
:102DC000F2013183208375010894E11CF11CE114A8
:102DD000F10409F085CF0BC040E550E0C40ED51ECC
:102DE000D501CD92DC92E0EBFFEFCE0EDF1E082D79
:102DF000F92C01C00E2DF601E25BFF4F2DA5222319
:102E000009F4B1C0608171816115710519F460E048
:102E100070E002C06C5F7F4FC60182539E4F402F0F
:102E20005F2D21E00E945588882309F46CC04FED86
:102E300051E0C40ED51ED6014D915D916D917C91EE
:102E4000ECE9F0E0CE0EDF1ED6014D935D936D935D
:102E50007C931397E5E8FDEFCE0EDF1EE8EEF1E080
:102E6000949108C08091C00085FFFCCF9093C6006C
:102E7000319694919923B1F7802F9F2D9C01F901F0
:102E800007C08091C00085FFFCCF31969093C600AB
:102E900090819923B1F7E0EEF1E0949108C0809120
:102EA000C00085FFFCCF9093C60031969491992382
:102EB000B1F78BE898E02AE030E00E94DC4F809187
:102EC000C00085FFFCCF8AE08093C60023E832E093
:102ED000C20ED31ED6011D921D921D921C921397F5
:102EE000E2EDF1E0949108C08091C00085FFFCCF35
:102EF0009093C600319694919923B1F78091C000C8
:102F000085FFFCCF95C0EEEBF1E0949108C0809175
:102F1000C00085FFFCCF9093C60031969491992311
:102F2000B1F7802F9F2D9C01F90107C08091C0004F
:102F300085FFFCCF31969093C60090819923B1F71D
:102F4000ECEBF1E0949108C08091C00085FFFCCFCC
:102F50009093C600319694919923B1F78091C00067
:102F600085FFFCCF65C0608171816115710519F421
:102F700060E070E002C06C5F7F4FC60182539E4FDD
:102F8000402F5F2D26E50E945588882381F5E8EAC9
:102F9000F1E0949108C08091C00085FFFCCF909330
:102FA000C600319694919923B1F7802F9F2D9C01F3
:102FB000F90107C08091C00085FFFCCF3196909346
:102FC000C60090819923B1F7E6EAF1E0949108C038
:102FD0008091C00085FFFCCF9093C60031969491FC
:102FE0009923B1F78091C00085FFFCCF21C081E01B
:102FF000F6018083E4E9F1E0949108C08091C0007B
:1030000085FFFCCF9093C600319694919923B1F738
:10301000F40107C08091C00085FFFCCF31969093EA
:10302000C60090819923B1F78091C00085FFFCCF45
:103030008AE08093C600CE010E960E940012AD96E3
:103040000FB6F894DEBF0FBECDBFCF91DF911F91B9
:103050000F91FF90EF90DF90CF90BF90AF909F9037
:103060008F907F906F905F904F903F902F9008953A
:10307000EF92FF920F931F93CF93DF93EC010E9487
:103080002A8F8E0107511E4FD8018C919EECE92E9C
:1030900091E0F92EEC0EFD1E8823A1F1C7010E94DC
:1030A0004781F8016081615060838DE8689FB001BD
:1030B000112462517E4F6C0F7D1FCE0141E021E053
:1030C0000E94BA14D801EC91F0E0EE0FFF1FEE0F52
:1030D000FF1FEC0FFD1FE651FE4F408151816281C1
:1030E0007381CD57DD4F488359836A837B83C358EF
:1030F000D240C7010E942D808B81882389F181E015
:103100008A832EC00E94078FC7010E9447811A82BE
:1031100087ED90E00E94BB4D8091FC08882301F16F
:103120001092FC0880912F06C82FD0E0CC0FDD1F35
:10313000C45CDF4E68817981882777FD8095982F60
:103140000E9481A82091D0023091D1024091D202F8
:103150005091D3020E94EDA9181614F41982188216
:10316000DF91CF911F910F91FF90EF900895FC0197
:1031700081E08183CF0140E021E00E94BA140895EC
:10318000EF92FF920F931F93CF93DF938C01FC017B
:10319000138286A9882321F0C801C3960E94478123
:1031A00027EAE22E21E0F22EE00EF11EC70160E0D8
:1031B0004FE10E94EB7E882309F5E3EEF0E0949165
:1031C00008C08091C00085FFFCCF9093C600319667
:1031D00094919923B1F7E9ECF2E0949108C08091C1
:1031E000C00085FFFCCF9093C6003196949199233F
:1031F000B1F78091C00085FFFCCF7DC0E801C455C8
:10320000DE4FCE01B70141E00E94EC89882341F5F1
:10321000CE01B70140E00E94EC89882309F5E5E181
:10322000F1E0949108C08091C00085FFFCCF90939D
:10323000C600319694919923B1F7E6EBF2E09491B0
:1032400008C08091C00085FFFCCF9093C6003196E6
:1032500094919923B1F78091C00085FFFCCF4BC0BA
:10326000C801C396BE010E944884882309F5E5E1A0
:10327000F1E0949108C08091C00085FFFCCF90934D
:10328000C600319694919923B1F7E6EAF2E0949161
:1032900008C08091C00085FFFCCF9093C600319696
:1032A00094919923B1F78091C00085FFFCCF23C092
:1032B00081E0F8018383E3EEF0E0949108C080910F
:1032C000C00085FFFCCF9093C6003196949199235E
:1032D000B1F7EBE9F2E0949108C08091C00085FF5E
:1032E000FCCF9093C600319694919923B1F78091C9
:1032F000C00085FFFCCF8AE08093C600D801AC5A9D
:10330000BF4FF801F3968BE101900D928150E1F7E8
:10331000F80181A992A90E5A1F4FF8019183808369
:1033200002551040C8018F96025B1F4FF801918330
:103330008083DF91CF911F910F91FF90EF900895BF
:103340002F923F924F925F926F927F929F92AF9295
:10335000BF92CF92DF92EF92FF920F931F93DF9372
:10336000CF93CDB7DEB7CC55D0400FB6F894DEBFC3
:103370000FBECDBF6C01662311F527E832E0C20E07
:10338000D31ED6018C91E9E7FDEFCE0EDF1E882318
:1033900009F4E6C02FE732E0C20ED31ED601ED904D
:1033A000FD900D911C91E1E8FDEFCE0EDF1E0E9415
:1033B0009DA4E616F7060807190708F4D1C027E808
:1033C00032E0C20ED31ED6011C92E9E7FDEFCE0E0D
:1033D000DF1ED60113968C91882341F4C6010E940A
:1033E000C018F6018381882309F4BAC000D000D048
:1033F00000D0EDB7FEB731967E010894E11CF11CB8
:10340000ADB7BEB71296FC92EE9211978AE091E0AA
:1034100093838283D6019D968D919C919E979583EF
:1034200084830E944F0F8701EDB7FEB736960FB623
:10343000F894FEBF0FBEEDBF57010AC0D8018C91B2
:10344000992787FD90950E9422ACF80181938F0106
:10345000F50101900020E9F73197EA19FB09802F67
:103460008E198E175CF363E3A62EB12CAC0CBD1C39
:10347000C50140E050E060E070E00E942D8099249A
:103480005DE3E52EF12CEC0EFD1E2E010894411C8F
:10349000511C4FE1642E712C6C0E7D1E33E0232EE7
:1034A00031E0332E43C0D8018C9190E00E9422ACD1
:1034B000F80181938F01D7010D900020E9F7119752
:1034C000AE19BF09802F8E198A176CF327968FAD1E
:1034D00027978E3759F1C701B20145E050E00E94AD
:1034E000320F009719F500D000D000D0EDB7FEB72D
:1034F0003196ADB7BEB712967C926E921197338219
:103500002282558244820E944F0FEDB7FEB7369655
:103510000FB6F894FEBF0FBEEDBFC3010E94344E3C
:103520008FEF90E00E94BB4D99249394C501B701A1
:1035300040E050E00E946483181614F48701BBCF6A
:10354000992041F48FEF9FEFD6019E969C938E9326
:103550009D9706C0F60185A596A5019696A785A715
:10356000C45ADF4F0FB6F894DEBF0FBECDBFCF9168
:10357000DF911F910F91FF90EF90DF90CF90BF9060
:10358000AF909F907F906F905F904F903F902F9063
:1035900008952F923F924F925F926F927F928F92F7
:1035A0009F92AF92BF92CF92DF92EF92FF920F93D2
:1035B0001F93DF93CF93CDB7DEB7CF58D0400FB670
:1035C000F894DEBF0FBECDBF8C013B016A0184E0E1
:1035D00090E0C80ED91EF8017196C757DF4FF983E6
:1035E000E883C958D040C8010496CA57DF4F998371
:1035F0008883C658D040C857DF4F1882C858D0407B
:10360000B6E6EB2EF12CEC0EFD1EF7013B96C557EE
:10361000DF4FF983E883CB58D040A8E88A2EA2E098
:103620009A2E800E911EFAE8AF2EF2E0BF2EA00E69
:10363000B11EEEE02E2E312C2C0E3D1E77E4472ECF
:10364000512C4C0E5D1EC2010496C357DF4F998367
:103650008883CD58D040E3EEF0E09491C157DF4F1E
:103660009883CF58D0404FC1F7018385482F50E051
:10367000BA01687170706031710509F052C1F401CE
:10368000208131812130310509F44BC122303105CF
:1036900009F447C1F701DE0111969081903239F0AB
:1036A0008E2F8E19883011F48EE28D939D93319672
:1036B000C557DF4F88819981CB58D040E817F9076B
:1036C00061F71C921E86F3018081882329F4C101D1
:1036D00060E071E00E940C0FC101B3010E940C0F69
:1036E000C101BE016F5F7F4F0E940C0FC10160E0FE
:1036F00071E00E940C0F1CA61FA61BA61AA688E646
:1037000093E099A788A7CE018C96B601AE014F5FD2
:103710005F4F21E00E945588882309F03FC0F401E3
:1037200080819181892BD1F5C157DF4F9881CF5886
:10373000D040E3EEF0E008C08091C00085FFFCCFF0
:103740009093C600319694919923B1F7E2E0F1E0AD
:1037500007C08091C00085FFFCCF31969093C600D2
:1037600090819923B1F78091C00085FFFCCFFAE0EA
:10377000F093C600FE01319607C08091C00085FF1E
:10378000FCCF31969093C60090819923B1F7809138
:10379000C00085FFFCCF8AE08093C600C357DF4F8F
:1037A000A881B981CD58D040FE01BC968BE1019033
:1037B0000D928150E1F78AA59BA5F2019383828344
:1037C00088E693E091838083C801B101A2010E9441
:1037D000C91AC2010E940012CE0188960E940012EE
:1037E00092C0953E09F48FC09E3209F48CC09F357B
:1037F00009F489C0F8019189992331F09E3209F4C6
:1038000082C09F3509F47FC043FD7DC080E06031F8
:10381000710509F481E0F80184A7882349F4F701D0
:103820008085873409F06FC081858E3709F46BC0BD
:10383000CA57DF4FA881B981C658D040F7018081AF
:10384000803241F08E2F8E19883011F48EE28D93E4
:1038500080818D933196C557DF4F88819981CB58F0
:10386000D040E817F90759F71C92F4018081918143
:10387000009729F5F30107C08091C00085FFFCCFB8
:1038800031969093C60090819923B1F7CA57DF4FC4
:10389000E881F981C658D04007C08091C00085FFFB
:1038A000FCCF31969093C60090819923B1F7809117
:1038B000C00085FFFCCFFAE0F093C60024C0813041
:1038C000910539F4F501808191810196918380837E
:1038D0001AC00297C1F4C857DF4FF881C858D040CA
:1038E0002F2F30E0F5018081918128173907F1F001
:1038F000C857DF4FF881C858D040FF5FC857DF4F27
:10390000F883C858D040C601B701C757DF4F488178
:103910005981C958D0400E94648318160CF4A4CE73
:1039200005C0F7019081992309F05BCFC157DF4FA4
:103930000FB6F894DEBF0FBECDBFCF91DF911F91C0
:103940000F91FF90EF90DF90CF90BF90AF909F903E
:103950008F907F906F905F904F903F902F90089541
:10396000EF92FF920F931F93DF93CF93CDB7DEB704
:103970006F970FB6F894DEBF0FBECDBF7C0188E80D
:1039800092E0E80EF91EF7011182108288E79DEFA0
:10399000E80EF91E87010D5C1F4FC80140E050E0A2
:1039A00060E070E00E942D80DE011596F8018BE149
:1039B00001900D928150E1F7F70181A992A99C83B2
:1039C0008B8388E693E09A838983C70165E171E080
:1039D0008E010F5F1F4FA8010E94C91AC8010E94E3
:1039E00000126F960FB6F894DEBF0FBECDBFCF9119
:1039F000DF911F910F91FF90EF9008950F931F9308
:103A0000CF93DF93DC01D3961C92D397D6961C926A
:103A1000D697D2961C921E92D19788E693E0D096C4
:103A20009C938E939F97AC5ABF4F1C9213961C92F7
:103A3000A755B040FD01E05BFF4FAE5ABF4F119656
:103A40001C921E92A255B04091838083ED01C15912
:103A5000DF4FFE0120E030E0482F148217821382EE
:103A6000128240839183215E3F4F7F9681E026330F
:103A7000380799F7A855BE4F89E18C9313961C928D
:103A800058961C921B961C9213961C92A15DB140F5
:103A9000FD01E653FE4FA453BE4F11961C921E9299
:103AA00040839183A155BF4F1D921D921D921C9280
:103AB000139718961D921D921D921C921397A3584E
:103AC000B24012961C92129713961C9213971C9256
:103AD00011961C9211978D0101581D4FF80110820B
:103AE000118212821382AB55BE4F11961C921E9208
:103AF000AC5BBF4F1C92FE01C90111920197E9F71F
:103B0000A256BF4F81E08C93A758B2409E961C925C
:103B10001E929D970E949DA468577C4E8F4F9F4F89
:103B2000F8016083718382839383DF91CF911F912A
:103B30000F910895DF93CF93CDB7DEB7E0970FB61F
:103B4000F894DEBF0FBECDBFDE011196E8E1F3E0D1
:103B500080E101900D928150E1F7DE015196E8E09D
:103B6000F3E080E101900D928150E1F7DE01919642
:103B7000E8EFF2E080E101900D928150E1F7898158
:103B80009A81AB81BC818093A0089093A108A093F7
:103B9000A208B093A30889899A89AB89BC898093CC
:103BA000900890939108A0939208B093930889A1EC
:103BB0009AA1ABA1BCA18093B0089093B108A09347
:103BC000B208B093B3088D819E81AF81B885809390
:103BD000A4089093A508A093A608B093A7088D8980
:103BE0009E89AF89B88D8093940890939508A0938F
:103BF0009608B09397088DA19EA1AFA1B8A5809318
:103C0000B4089093B508A093B608B093B708898517
:103C10009A85AB85BC858093A8089093A908A0934A
:103C2000AA08B093AB08898D9A8DAB8DBC8D80931B
:103C3000980890939908A0939A08B0939B0889A537
:103C40009AA5ABA5BCA58093B8089093B908A0939A
:103C5000BA08B093BB088D859E85AF85B8898093DF
:103C6000AC089093AD08A093AE08B093AF088D8DCB
:103C70009E8DAF8DB8A180939C0890939D08A093D2
:103C80009E08B0939F088DA59EA5AFA5B8A9809367
:103C9000BC089093BD08A093BE08B093BF080E94D3
:103CA000CC5580E090E8ABE3B5E48093C4089093F2
:103CB000C508A093C608B093C7088093C80890931E
:103CC000C908A093CA08B093CB0820E030E040E0D8
:103CD00050E02093C0083093C1084093C20850932D
:103CE000C30880E29EE4A0E0B0E080938C0890934B
:103CF0008D08A0938E08B0938F082093D808309336
:103D0000D9084093DA085093DB0880E090E0A0EAFD
:103D1000B1E48093CC089093CD08A093CE08B093E3
:103D2000CF088DEC9CECACECBEE38093D008909374
:103D3000D108A093D208B093D30880E090E0A0EA25
:103D4000B0E48093D4089093D508A093D608B0939C
:103D5000D708209318063093190640931A065093FB
:103D60001B062093140630931506409316065093B5
:103D700017062093100630931106409312065093B5
:103D8000130620932B0630932C0640932D06509358
:103D90002E068DE39AE8ACEFB2E48093E1029093B3
:103DA000E202A093E302B093E40267ED73EA80ECD1
:103DB00091E40E945E966093E5027093E602809320
:103DC000E7029093E8026FE872E885E293E40E94CC
:103DD0006C966093E9027093EA028093EB029093F1
:103DE000EC020E942C9680E090E0A0E8BFE3809374
:103DF000ED029093EE02A093EF02B093F002E6ED95
:103E0000F2E0949108C08091C00085FFFCCF9093B0
:103E1000C600319694919923B1F7ECEDF2E09491BC
:103E200008C08091C00085FFFCCF9093C6003196FA
:103E300094919923B1F78091C00085FFFCCF8AE06F
:103E40008093C600E0960FB6F894DEBF0FBECDBFDC
:103E5000CF91DF910895CF93DF93C6EDD2E0FE01BD
:103E6000949108C08091C00085FFFCCF9093C6005C
:103E7000319694919923B1F7E6EBF4E0949108C060
:103E80008091C00085FFFCCF9093C600319694913D
:103E90009923B1F78091C00085FFFCCF8AE0809321
:103EA000C600FE019491E6EDF2E008C08091C000EA
:103EB00085FFFCCF9093C600319694919923B1F77A
:103EC0004091A0085091A1086091A2087091A308A8
:103ED0008EEA94E00E9402294091A4085091A5081E
:103EE0006091A6087091A7088BEA94E00E940229CD
:103EF0004091A8085091A9086091AA087091AB0858
:103F000088EA94E00E9402294091AC085091AD08E3
:103F10006091AE087091AF0885EA94E00E94022992
:103F2000E6E1F1E007C08091C00085FFFCCF31964B
:103F30009093C60090819923B1F78091C00085FFCE
:103F4000FCCF8AE08093C600FE019491E6EDF2E09A
:103F500008C08091C00085FFFCCF9093C6003196C9
:103F600094919923B1F7EBE8F4E0949108C0809123
:103F7000C00085FFFCCF9093C600319694919923A1
:103F8000B1F78091C00085FFFCCF8AE08093C60026
:103F9000FE019491E6EDF2E008C08091C00085FF3B
:103FA000FCCF9093C600319694919923B1F740913C
:103FB000900850919108609192087091930882E85E
:103FC00094E00E94022940919408509195086091D4
:103FD0009608709197088FE794E00E94022940911B
:103FE00098085091990860919A0870919B088CE705
:103FF00094E00E94022940919C0850919D08609194
:104000009E0870919F0889E794E00E940229E6E1EA
:10401000F1E007C08091C00085FFFCCF31969093FE
:10402000C60090819923B1F78091C00085FFFCCF35
:104030008AE08093C600FE019491E6EDF2E008C0AC
:104040008091C00085FFFCCF9093C600319694917B
:104050009923B1F7EBE5F4E0949108C08091C0009A
:1040600085FFFCCF9093C600319694919923B1F7C8
:104070008091C00085FFFCCF8AE08093C600FE01DE
:104080009491E6EDF2E008C08091C00085FFFCCF7E
:104090009093C600319694919923B1F74091B0085E
:1040A0005091B1086091B2087091B30882E594E034
:1040B0000E9437294091B4085091B5086091B60824
:1040C0007091B7088FE494E00E9437294091B808B6
:1040D0005091B9086091BA087091BB088CE494E0E3
:1040E0000E9437294091BC085091BD086091BE08DC
:1040F0007091BF0889E494E00E943729E6E1F1E07D
:1041000007C08091C00085FFFCCF31969093C60018
:1041100090819923B1F78091C00085FFFCCF8AE0A0
:104120008093C600FE019491E6EDF2E008C0809114
:10413000C00085FFFCCF9093C600319694919923DF
:10414000B1F7E4E1F4E0949108C08091C00085FFEC
:10415000FCCF9093C600319694919923B1F780914A
:10416000C00085FFFCCF8AE08093C600FE019491D9
:10417000E6EDF2E008C08091C00085FFFCCF90938F
:10418000C600319694919923B1F74091C40850919B
:10419000C5086091C6087091C7088BE094E00E9442
:1041A00002294091C8085091C9086091CA087091CD
:1041B000CB0888E094E00E940229E6E1F1E007C024
:1041C0008091C00085FFFCCF31969093C60090810E
:1041D0009923B1F78091C00085FFFCCF8AE08093DE
:1041E000C600FE019491E6EDF2E008C08091C000A7
:1041F00085FFFCCF9093C600319694919923B1F737
:10420000E5E5F3E0949108C08091C00085FFFCCF04
:104210009093C600319694919923B1F78091C00094
:1042200085FFFCCF8AE08093C600FE019491E6ED05
:10423000F2E008C08091C00085FFFCCF9093C600DB
:10424000319694919923B1F74091C0085091C108DB
:104250006091C2087091C3088CE493E00E94022927
:104260004091D8085091D9086091DA087091DB0824
:1042700089E493E00E94022940918C0850918D08B6
:1042800060918E0870918F0886E493E00E94372930
:104290004091CC085091CD086091CE087091CF0824
:1042A00083E493E00E9402294091D0085091D10804
:1042B0006091D2087091D30880E493E00E940229B3
:1042C0004091D4085091D5086091D6087091D708D4
:1042D0008DE393E00E940229E6E1F1E007C08091BE
:1042E000C00085FFFCCF31969093C6009081992342
:1042F000B1F78091C00085FFFCCF8AE08093C600B3
:10430000FE019491E6EDF2E008C08091C00085FFC7
:10431000FCCF9093C600319694919923B1F7EBE2CC
:10432000F3E0949108C08091C00085FFFCCF90938A
:10433000C600319694919923B1F78091C00085FF12
:10434000FCCF8AE08093C600FE019491E6EDF2E096
:1043500008C08091C00085FFFCCF9093C6003196C5
:1043600094919923B1F740911006509111066091F4
:1043700012067091130682E293E00E940229409196
:1043800014065091150660911606709117068FE17C
:1043900093E00E94022940911806509119066091FD
:1043A0001A0670911B068CE193E00E940229E6E157
:1043B000F1E007C08091C00085FFFCCF319690935B
:1043C000C60090819923B1F78091C00085FFFCCF92
:1043D0008AE08093C600FE019491E6EDF2E008C009
:1043E0008091C00085FFFCCF9093C60031969491D8
:1043F0009923B1F7EEE0F3E0949108C08091C000FA
:1044000085FFFCCF9093C600319694919923B1F724
:104410008091C00085FFFCCF8AE08093C600FE013A
:104420009491E6EDF2E008C08091C00085FFFCCFDA
:104430009093C600319694919923B1F74091E1028F
:104440005091E2026091E3027091E40284E093E013
:104450000E9402296091E5027091E6028091E702D4
:104460009091E8020E946596AB01BC0181E093E067
:104470000E9402296091E9027091EA028091EB02A8
:104480009091EC020E947396AB01BC018EEF92E01A
:104490000E940229E6E1F1E007C08091C00085FF9B
:1044A000FCCF31969093C60090819923B1F780910B
:1044B000C00085FFFCCF8AE08093C600DF91CF91DA
:1044C0000895EF92FF920F931F93CF93DF93EC0128
:1044D000E0901C06F0901D0600911E0610911F062C
:1044E000688179818A819B81A80197010E94DFA759
:1044F000882324F4E882F9820A831B83E090200653
:10450000F090210600912206109123066C817D8196
:104510008E819F81A80197010E94DFA7882324F440
:10452000EC82FD820E831F83E0902406F090250626
:104530000091260610912706688579858A859B85D6
:10454000A80197010E94DFA7882324F4E886F98652
:104550000A871B87E0909202F090930200919402E8
:1045600010919502688179818A819B81A8019701C8
:104570000E94EDA9181624F4E882F9820A831B83AD
:10458000E0909602F09097020091980210919902A3
:104590006C817D818E819F81A80197010E94EDA988
:1045A000181624F4EC82FD820E831F83E0909A0299
:1045B000F0909B0200919C0210919D026885798584
:1045C0008A859B85A80197010E94EDA9181624F4FD
:1045D000E886F9860A871B87DF91CF911F910F919B
:1045E000FF90EF90089580913A0608950F931F93DE
:1045F000CF93DF938130910549F46F5F7F4F09F0CE
:1046000046C08CE693E00E94FE1C41C0892B09F055
:104610003EC06F5F7F4FD9F588E693E090933705F2
:104620008093360580913D05882321F08AE395E04B
:104630000E944781C2EFD4E008E613E005C06F97FF
:1046400083E0CC3BD80751F0198308838F818823FE
:10465000B1F3CE0104960E944781F1CF88E693E042
:10466000998388838F81882321F0CE0104960E944C
:10467000478188E693E090939C0380939B0380910D
:10468000A203882321F08FE993E00E944781DF9104
:10469000CF911F910F91089580E090E06FEF7FEF31
:1046A0000E94F622089581E090E06FEF7FEF0E9474
:1046B000F62208950E944F9680913A06882309F0C9
:1046C00036C081E080933A0680913D0690913E0687
:1046D000A0913F06B0914006809341069093420618
:1046E000A0934306B0934406ECECF4E0949108C028
:1046F0008091C00085FFFCCF9093C60031969491C5
:104700009923B1F7E3EDF4E0949108C08091C000E3
:1047100085FFFCCF9093C600319694919923B1F711
:104720008091C00085FFFCCF8AE08093C600089589
:10473000F8940E944F965E9A109228065E9A109204
:104740002906159A10922A065E9AECECF4E09491F0
:1047500008C08091C00085FFFCCF9093C6003196C1
:1047600094919923B1F7E9E4F5E0949108C0809120
:10477000C00085FFFCCF9093C60031969491992399
:10478000B1F78091C00085FFFCCF8AE08093C6001E
:10479000FFCF0E949DA460934706709348068093C4
:1047A000490690934A06E0917006F0917106EE5822
:1047B000F94F80818823A9F4E8E6F5E0949108C0D8
:1047C0008091C00085FFFCCF9093C60031969491F4
:1047D0009923B1F78091C00085FFFCCF8AE08093D8
:1047E000C60008956F927F928F929F92AF92BF9270
:1047F000CF92DF92EF92FF920F931F93F82E60916A
:104800004F0670915006809151069091520620916A
:1048100053063091540640915506509156060E9419
:10482000FAA93B014C0100D000D000D00DB71EB753
:104830000F5F1F4F6091880270918902882777FD72
:104840008095982F0E9481A82091A3023091A40204
:104850004091A5025091A6020E94BFAA20E030E03C
:1048600040E752E40E94E6A720E030E048EC52E442
:104870000E94E6A75B016C01F8016082718282826E
:104880009382F48280912F06858380E096E06BE529
:1048900076E04FE456E020E001E032E0E32E0E94B3
:1048A0000E5180915B0690915C06A0915D06B091DF
:1048B0005E068093000690930106A0930206B093D3
:1048C000030680915F0690916006A0916106B09109
:1048D00062068093040690930506A0930606B093A3
:1048E00007068091630690916406A0916506B091D9
:1048F00066068093080690930906A0930A06B09373
:104900000B068091670690916806A0916906B091A8
:104910006A0680930C0690930D06A0930E06B09342
:104920000F068DB79EB706960FB6F8949EBF0FBEC2
:104930008DBF0E949DA460934706709348068093A4
:10494000490690934A061F910F91FF90EF90DF90D8
:10495000CF90BF90AF909F908F907F906F90089571
:104960004F925F926F927F928F929F92AF92BF927F
:10497000CF92DF92EF92FF920F931F93DF93CF932B
:1049800000D000D0CDB7DEB78BE596E00E94612263
:104990000E949DA460934706709348068093490641
:1049A00090934A0680915B0690915C06A0915D060B
:1049B000B0915E0689839A83AB83BC8360910006C5
:1049C00070910106809102069091030629813A8137
:1049D0004B815C810E94DFA7882309F09DC0409035
:1049E0005F0650906006609061067090620660916C
:1049F0000406709105068091060690910706A301B2
:104A000092010E94DFA7882309F086C000D0CDB6AE
:104A1000DEB60894C11CD11CE0906306F0906406D9
:104A200000916506109166066091A3027091A40240
:104A30008091A5029091A60220E030E040E752E488
:104A40000E94E6A74B015C018FE296E0D6018D93B0
:104A50009C9369817A818B819C81A3019201E7E615
:104A6000CE2EE6E0DE2E0E94105C0F900F9080911B
:104A70005B0690915C06A0915D06B0915E06809306
:104A8000000690930106A0930206B093030680915E
:104A90005F0690916006A0916106B09162068093D6
:104AA000040690930506A0930606B093070680912E
:104AB000630690916406A0916506B09166068093A6
:104AC000080690930906A0930A06B0930B068091FE
:104AD000670690916806A0916906B0916A06809376
:104AE0000C0690930D06A0930E06B0930F060F9040
:104AF0000F900F900F90CF91DF911F910F91FF902A
:104B0000EF90DF90CF90BF90AF909F908F907F906D
:104B10006F905F904F90089500D0CDB6DEB60894A8
:104B2000C11CD11C40905F065090600660906106E9
:104B300070906206E0906306F0906406009165064E
:104B4000109166066091880270918902882777FD2E
:104B50008095982F0E9481A82091A3023091A402F1
:104B60004091A5025091A6020E94BFAA20E030E029
:104B700040E752E40E94E6A720E030E048EC52E42F
:104B80000E94E6A74B015C018FE296E0F60191835B
:104B900080835FCF8BE898E00E94384FEBE6F5E02A
:104BA000949108C08091C00085FFFCCF9093C6000F
:104BB000319694919923B1F740913D0650913E066C
:104BC00060913F06709140064F5F5F4F6F4F7F4F80
:104BD0008BE898E02AE030E00E94FB4F8091C00013
:104BE00085FFFCCF8AE08093C6000E94C923089508
:104BF0004F925F926F927F928F929F92AF92BF92ED
:104C0000CF92DF92EF92FF920F931F934090A302F7
:104C10005090A4026090A5027090A6020F2EF0E0C2
:104C2000AF2EF0E8BF2EFBE3CF2EF5E4DF2EF02D04
:104C3000A092A302B092A402C092A502D092A602B2
:104C4000609300067093010680930206909303061A
:104C500020930406309305064093060650930706FA
:104C6000E0920806F092090600930A0610930B06DC
:104C700000D0EFE2F6E0ADB7BEB71296FC93EE932C
:104C80001197FCE0CF2EF6E0DF2E0F2EF0E08F2EF6
:104C9000F0E09F2EF8E4AF2EF2E4BF2EF02D0E943C
:104CA000105C0F900F900E942A8F4092A3025092A6
:104CB000A4026092A5027092A6021F910F91FF902C
:104CC000EF90DF90CF90BF90AF909F908F907F90AC
:104CD0006F905F904F9008958091A3029091A402ED
:104CE000A091A502B091A6028093760690937706D4
:104CF000A0937806B09379068091880290918902FA
:104D00009093FF058093FE0584E690E090938902DE
:104D1000809388020E949DA4609347067093480682
:104D20008093490690934A0681E00E94308E089550
:104D300080E00E94308E8091760690917706A09157
:104D40007806B09179068093A3029093A402A09371
:104D5000A502B093A6028091FE059091FF05909365
:104D60008902809388020E949DA4609347067093F5
:104D700048068093490690934A0608952F923F92E1
:104D80004F925F926F927F928F929F92AF92BF925B
:104D9000CF92DF92EF92FF920F931F93DF93CF9307
:104DA000CDB7DEB76C970FB6F894DEBF0FBECDBFA0
:104DB0009C8F8B8F8330910508F00BC2FC01E95763
:104DC000F84FB4901C01220C331C220C331C9101AF
:104DD00020503A4F3E832D8380E090E0A0E0B0E089
:104DE000F90180839183A283B3836091000670915F
:104DF00001068091020690910306209104063091ED
:104E000005064091060650910706E0900806F090CE
:104E1000090600910A0610910B06BCE0CB2EB6E005
:104E2000DB2E0E941556F101E657F84FE590F590FC
:104E3000059114916B2D772767FD7095882777FD75
:104E40008095982F0E9481A869837A838B839C83A5
:104E50009101255A394F38872F83C801B70120E0C7
:104E600030E040EC5FE30E94BFAA29813A814B8188
:104E70005C810E94BFAAAF81B8856D937D938D93AD
:104E80009C931397F101E858FD4FFA87E9876081F9
:104E90007181828193816093A3027093A4028093B5
:104EA000A5029093A60200D0CDB6DEB60894C11C30
:104EB000D11C40905B0650905C0660905D0670903F
:104EC0005E0620915F063091600640916106509128
:104ED00062062B873C874D875E87E0906306F090E3
:104EE0006406009165061091660620E030E040E718
:104EF00052E40E94E6A74B015C01EFE2F6E0D60126
:104F0000ED93FC93C301B2012B853C854D855E85F5
:104F1000A7E6CA2EA6E0DA2E0E94105C0F900F9032
:104F20000E942A8F20E030E040E050E0AD81BE8159
:104F30002D933D934D935C93139760910006709170
:104F4000010680910206909103062091040630919B
:104F500005064091060650910706E0900806F0907D
:104F6000090600910A0610910B06FCE0CF2EF6E030
:104F7000DF2E0E941556F101EA56F84F45905590E4
:104F800065907490C301B201905829813A814B8198
:104F90005C810E94BFAAEF81F88560837183828360
:104FA000938300D0CDB6DEB60894C11CD11C2091ED
:104FB0005B0630915C0640915D0650915E062F873E
:104FC000388B498B5A8B80915F0690916006A09137
:104FD0006106B09162068B8B9C8BAD8BBE8BE09093
:104FE0006306F09064060091650610916606609174
:104FF000A3027091A4028091A5029091A60220E0E4
:1050000030E040E752E40E94E6A74B015C01EFE28A
:10501000F6E0D601ED93FC936F85788989899A89AA
:105020002B893C894D895E89E7E6CE2EE6E0DE2EAF
:105030000E94105C0F900F900E942A8FC301B20152
:10504000A30192010E9406A729813A814B815C81CC
:105050000E94BFAAAF81B8856D937D938D939C9379
:105060001397E985FA85608171818281938120E0BF
:1050700030E040E05FE30E94BFAA6093A302709318
:10508000A4028093A5029093A60200D0CDB6DEB60E
:105090000894C11CD11C40905B0650905C06609047
:1050A0005D0670905E0620915F063091600640912B
:1050B0006106509162062F8B388F498F5A8FE0908E
:1050C0006306F0906406009165061091660620E084
:1050D00030E040E752E40E94E6A74B015C01EFE2BA
:1050E000F6E0D601ED93FC93C301B2012F89388D10
:1050F000498D5A8DB7E6CB2EB6E0DB2E0E94105CB0
:105100000F900F900E942A8FF101EE55F84F659194
:10511000759185919491F101E05FF94FA080B18084
:10512000C280D380A60195010E9406A77B018C0155
:10513000CB01D801ED81FE8180839183A283B3836B
:10514000F101E255F84F6591759185919491ACE12B
:105150008A2EA6E09A2E820C931CA60195010E942D
:1051600006A7D4016D937D938D939C931397F101C2
:10517000E654F84F6591759185919491E2E9F2E0DA
:105180002E0E3F1EA60195010E9406A7D1016D9328
:105190007D938D939C931397C701D801EF81F88578
:1051A00080839183A283B38320E030E040E050E02D
:1051B0002093A3023093A4024093A5025093A60229
:1051C0000E94298E4B8D5C8D485D594F81E0DA013C
:1051D0008C936C960FB6F894DEBF0FBECDBFCF9107
:1051E000DF911F910F91FF90EF90DF90CF90BF90D4
:1051F000AF909F908F907F906F905F904F903F9077
:105200002F900895FC01949108C08091C00085FF03
:10521000FCCF9093C600319694919923B1F78BE817
:1052200098E022E030E00E940B5108954091700612
:105230005091710620E630E0B901469F9001479FEA
:10524000300D569F300D1124682F772767FD70951C
:10525000C9018458994F0E94170F9C0190937B06B7
:1052600080937A0680E0232B09F081E00895FC0109
:10527000949108C08091C00085FFFCCF9093C60038
:10528000319694919923B1F78BE898E02AE030E0C9
:105290000E94DC4F08952F923F924F925F926F923F
:1052A0007F928F929F92AF92BF92CF92DF92EF92B6
:1052B000FF920F931F93DF93CF93CDB7DEB72E9757
:1052C0000FB6F894DEBF0FBECDBF88EA92E00E9411
:1052D0003FA1609180027091810280918202909141
:1052E00083026093A3027093A4028093A50290931B
:1052F000A60200D0CDB6DEB60894C11CD11CE09049
:105300000006F090010600910206109103064090FD
:1053100004065090050660900606709007062CE083
:10532000222E26E0322E20E030E040E752E40E94B8
:10533000E6A74B015C01EFE2F6E0D601ED93FC93AA
:10534000C801B701A30192010F2EF0E0EF2EF0E0AB
:10535000FF2EF0E20F2FF1EC1F2FF02D61010E94C4
:10536000105C0F900F900E942A8F82E00E94E88EBE
:105370004B015C016091000670910106809102066C
:10538000909103062091040630910506409106068F
:1053900050910706850174010E9415562EE937E0E9
:1053A000F90185919591A591B49189839A83AB83F5
:1053B000BC83C501B40129813A814B815C810E9483
:1053C00006A76D837E838F83988700D0CDB6DEB627
:1053D0000894C11CD11CE0900006F09001060091D9
:1053E0000206109103064090040650900506609056
:1053F0000606709007066091A3027091A402809146
:10540000A5029091A60220E030E040E752E40E941D
:10541000E6A74B015C01EFE2F6E0D601ED93FC93C9
:10542000C801B701A3019201ED80FE800F811885AC
:1054300061010E94105C0F900F900E942A8F609172
:10544000800270918102809182029091830220E01B
:1054500030E040E85EE30E94BFAA5B016C0160930C
:10546000A3027093A4028093A5029093A60200D099
:105470008DB79EB701969E878D874090000650900D
:1054800001066090020670900306809104069091D8
:105490000506A0910606B091070689879A87AB8713
:1054A000BC8769817A818B819C8120E030E040E07B
:1054B00050EC0E94BFAA9B01AC016D817E818F815F
:1054C00098850E9406A77B018C01C601B50120E0EA
:1054D00030E040E752E40E94E6A74B015C01EFE2B6
:1054E000F6E0AD85BE85ED93FC93C301B20129853D
:1054F0003A854B855C8561010E94105C0F900F908E
:105500000E942A8F82E00E94E88E7B018C016093CA
:1055100008067093090680930A0690930B06609123
:105520000006709101068091020690910306209179
:1055300004063091050640910606509107060E9428
:1055400015562E960FB6F894DEBF0FBECDBFCF9185
:10555000DF911F910F91FF90EF90DF90CF90BF9060
:10556000AF909F908F907F906F905F904F903F9003
:105570002F9008956F927F928F929F92AF92BF92D9
:10558000CF92DF92EF92FF920F931F935B016C011A
:1055900039014A016091000670910106809102066E
:1055A000909103062091040630910506409106066D
:1055B000509107060E94F825C401B30120E030E0B5
:1055C00040EB51E40E9406A79B01AC01E090080665
:1055D000F090090600910A0610910B06C601B5016C
:1055E0000E94F8250E944B29109108060091090697
:1055F000F0900A06E0900B06E7EDF7E0949108C002
:105600008091C00085FFFCCF9093C60031969491A5
:105610009923B1F7E2EDF7E0949108C08091C000C2
:1056200085FFFCCF9093C600319694919923B1F7F2
:105630008BE898E0B601A50122E030E00E940B5112
:10564000EDECF7E0949108C08091C00085FFFCCF9D
:105650009093C600319694919923B1F78BE898E026
:10566000B401A30122E030E00E940B51E8ECF7E026
:10567000949108C08091C00085FFFCCF9093C60034
:10568000319694919923B1F78BE898E0212F302F30
:10569000EF2DFE2DA901BF0122E030E00E940B5149
:1056A000E6ECF7E0949108C08091C00085FFFCCF44
:1056B0009093C600319694919923B1F7212F302F02
:1056C0004F2D5E2DB901CA011F910F91FF90EF90F0
:1056D000DF90CF90BF90AF909F908F907F906F9012
:1056E000089580917A0690917B06019660E070E0C3
:1056F0004AE050E00E948E0D089580917A069091C4
:105700007B06019660E070E00E942E0C0895CF9316
:10571000DF93EC0180912F0680933C0684E50E9484
:105720001629882309F482C00E947D2B0E9453A869
:10573000262F60933C06662309F478C0E6ECF4E07B
:10574000949108C08091C00085FFFCCF9093C60063
:10575000319694919923B1F7CD36D105C1F0CE366B
:10576000D10544F4C836D105C1F0C936D10509F0D8
:105770004DC010C0CA3DD10539F0CD3DD10509F06D
:1057800045C0E7E1F1E03FC0EEE2F1E031C0E5E421
:10579000F1E023C0ECE5F1E015C0E3E7F1E007C07C
:1057A0008091C00085FFFCCF31969093C600908118
:1057B0009923B1F72BC08091C00085FFFCCF3196B3
:1057C0009093C60090819923B1F720C08091C000CA
:1057D00085FFFCCF31969093C60090819923B1F755
:1057E00015C08091C00085FFFCCF31969093C60014
:1057F00090819923B1F70AC08091C00085FFFCCF4A
:1058000031969093C60090819923B1F78BE898E088
:10581000622F40E050E00E94E94F8091C00085FF78
:10582000FCCF8AE08093C60081E001C080E0DF9178
:10583000CF9108959F92AF92BF92CF92DF92EF9255
:10584000FF920F931F93CF93DF9340E0A42E46E087
:10585000B42E3BE5C32E36E0D32EC0E0D0E0FE01EF
:10586000E85DFC4F80810E9416298823C1F10E94C7
:105870007D2B7B018C012091740230917502409147
:10588000760250917702FE01E650FA4F808188231C
:1058900019F09924939402C090906B06C801B70147
:1058A0000E94BFAA7B018C01692D70E0882777FDDB
:1058B0008095982F0E9481A8F50120813181428135
:1058C00053810E94BFAA9B01AC01C801B7010E948D
:1058D00006A7F60160837183828393830AC0F50172
:1058E00080819181A281B381F60180839183A2831B
:1058F000B383219684E090E0A80EB91EC80ED91E8D
:10590000C430D10509F0ABCF86E40E941629882364
:1059100031F10E947D2B20917402309175024091EB
:105920007602509177020E94BFAA7B018C0160939E
:105930006C0670936D0680936E0690936F0620E060
:1059400030E040E050E00E94EDA9181644F4E092E7
:10595000A302F092A4020093A5021093A602DF9185
:10596000CF911F910F91FF90EF90DF90CF90BF905C
:10597000AF909F9008950E941A2C89E40E941629E6
:105980008823A9F00E947D2B20917402309175022A
:1059900040917602509177020E94BFAA60934F0611
:1059A0007093500680935106909352060CC080E08D
:1059B00090E0A0E0B0E080934F0690935006A09353
:1059C0005106B09352068AE40E9416298823A9F052
:1059D0000E947D2B209174023091750240917602D5
:1059E000509177020E94BFAA6093530670935406A9
:1059F0008093550690935606089580E090E0A0E0CD
:105A0000B0E08093530690935406A0935506B0934C
:105A1000560608952F923F924F925F926F927F9217
:105A20008F929F92AF92BF92CF92DF92EF92FF92AE
:105A30000F931F93DF93CF93CDB7DEB76E970FB65B
:105A4000F894DEBF0FBECDBFF0E6AF2EB12CE2E082
:105A5000F8E08490EAE07E2EE8E7F8E0949066248F
:105A6000639423C22D3071F02A3321F48091FD0715
:105A7000882341F08091FE079091FF078F359105B3
:105A80000CF4EFC1E091FE07F091FF07309709F4A5
:105A900014C3A0910008B0910108AA9D7001AB9DAC
:105AA000F00CBA9DF00C1124EE0DFF1DE458F94FD7
:105AB00010828091FD07882309F0CEC11092FD0766
:105AC000AE58B94F1C9287010458194FC8016EE4B3
:105AD00070E00E94170F9C01009709F4F7C09093A3
