:100000000C94B20C0C94E10C0C94E10C0C94E10CEB
:100010000C94E10C0C94E10C0C94E10C0C94E10CAC
:100020000C94E10C0C94E10C0C94E10C0C94E10C9C
:100030000C94E10C0C946E2B0C94E10C0C94E10CE0
:100040000C94E10C0C944C3D0C9400A40C94E10C29
:100050000C94A8110C94E10C0C94E10C0C94E10CA0
:100060000C94E10C0C94E10C0C94CFA20C94E10CD8
:100070000C94E10C0C94E10C0C94E10C0C94E10C4C
:100080000C94E10C0C94E10C0C94E10C953DA23D18
:10009000C13DC43DC73DCA3DCD3DD03DD33DD63D1C
:1000A000D93DDC3DE63D0FA514A519A523A551A515
:1000B0002DA535A53DA547A56EA571A564A568A587
:1000C00088A575A579A57FA583A5084AD73B3BCE12
:1000D000016E84BCBFFDC12F3D6C74319ABD568347
:1000E0003DDA3D00C77F11BED9E4BB4C3E916BAAFF
:1000F000AABE000000803F05A84CCDB2D44EB9384E
:1001000036A9020C50B9918688083CA6AAAA2ABE34
:10011000000000803F00207A3A200020793A200039
:1001200020783A20004D383420582059205A204554
:10013000004D3234004D3233202573006175746FE9
:1001400025692E67006572726F7220777269746913
:100150006E6720746F2066696C65004E6F74205363
:1001600044207072696E74696E6700534420707227
:10017000696E74696E672062797465200044656CED
:100180006574696F6E206661696C65642C204669D0
:100190006C653A200046696C652064656C65746521
:1001A000643A006F70656E206661696C65642C202E
:1001B00046696C653A200057726974696E672074ED
:1001C0006F2066696C653A20002E0A006F70656EBC
:1001D000206661696C65642C2046696C653A200074
:1001E0002E0A006F70656E206661696C65642C2054
:1001F00046696C653A200046696C652073656C65DC
:1002000063746564002053697A653A200046696C1E
:1002100065206F70656E65643A20006F70656E20B2
:100220006661696C65642C2046696C653A20004EF5
:100230006F772066726573682066696C653A200086
:100240004E6F7720646F696E672066696C653A202F
:10025000002220706F73002220706172656E743A04
:100260002200535542524F5554494E452043414C6C
:100270004C207461726765743A22004B494C4C45BE
:10028000442E2000747279696E6720746F20636158
:100290006C6C207375622D67636F64652066696C92
:1002A0006573207769746820746F6F206D616E7953
:1002B000206C6576656C732E204D4158206C6576F8
:1002C000656C2069733A0053442063617264206F47
:1002D0006B006F70656E526F6F74206661696C653C
:1002E0006400766F6C756D652E696E697420666149
:1002F000696C656400534420696E697420666169A5
:100300006C007C3C3E5E2B3D3F2F5B5D3B2C2A22EC
:100310005C004D383420582059205A204500205A7E
:100320003A0020593A0020583A00656E6473746FA1
:100330007073206869743A200024F4D43050C38E5E
:1003400020C2A24017828B7011127A910D816CD954
:100350000AA861E108C7586607615143061E4B5D54
:1003600005C145A7041A411104093D9803713931AB
:10037000034036DB0265339102D4305402802E1DD7
:1003800002632CEE01752AC501B028A00110278157
:10039000018F2564012B244B01E0223401AC211F85
:1003A000018D200D01801FFC00841EED00971DDFD4
:1003B00000B81CD200E61BC600201BBC00641AB2A9
:1003C00000B219A8000A19A0006A189900D1179163
:1003D0000040178B00B516840031167E00B31579E6
:1003E000003A157300C7146F0058146A00EE1366C4
:1003F000008813630025135E00C7125B006C125760
:100400000015125400C111510070114F0021114B01
:1004100000D61049008D10470046104400021042DB
:1004200000C00F4000800F3E00420F3C00060F3B13
:1004300000CB0E3800930E37005C0E3500270E34CB
:1004400000F30D3200C10D3100900D3000600D2E13
:1004500000320D2D00050D2C00D90C2B00AE0C29FF
:1004600000850C29005C0C2700350C27000E0C269B
:1004700000E80B2400C40B2400A00B23007D0B23F9
:10048000005A0B2100390B2100180B2000F80A1F1D
:1004900000D90A1E00BB0A1E009D0A1D00800A1D0D
:1004A00000630A1C00470A1B002C0A1B00110A1AD1
:1004B00000F7091A00DD091900C4091900AB091970
:1004C00000920917007B091800630917004C0916F0
:1004D0000036091600200916000A091500F508154E
:1004E00000E0081400CC081400B8081400A4081494
:1004F00000900813007D0812006B081300580812C2
:1005000000460812003408110023081100120811D7
:100510000001081100F0071000E0071000D00710DC
:1005200000C0071000B0070F00A107100091070ED0
:100530000083070F0074070F0065070E0057070EB2
:100540000049070E003B070D002E070E0020070D87
:100550000013070D0006070D00F9060C00ED060D4F
:1005600000E0060C00D4060C00C8060C00BC060C0B
:1005700000B0060C00A4060B0099060C008D060BBB
:100580000082060B0077060B006C060B0061060A62
:100590000057060B004C060A0042060A0038060AFD
:1005A000002E060A0024060A001A060A0010060990
:1005B0000007060A00FD050900F4050900EB05091E
:1005C00000E2050900D9050900D0050900C70509A1
:1005D00000BE050900B5050800AD050800A5050920
:1005E000009C050800940508008C05080084050897
:1005F000007C050800740508006C05070065050807
:10060000005D050700560508004E05070047050771
:10061000004005080038050700310507002A0507D6
:1006200000230507001C050600160507000F050737
:10063000000805060002050700FB040600F5040794
:1006400000EE040600E8040600E2040700DB0406EE
:1006500000D5040600CF040600C9040600C3040642
:1006600000BD040600B7040600B1040500AC040692
:1006700000A6040600A00405009B040600950405DE
:1006800000900406008A0405008504050080040625
:10069000007A04050075040500700405006B04056C
:1006A0000066040500610405005C040500570405AC
:1006B00000520405004D04050048040500430405EC
:1006C000003E0404003A040500350405003004042B
:1006D000002C04050027040400230405001E040464
:1006E000001A04040016040500110404000D04049B
:1006F00000090405000404040000040400FC0304D1
:1007000000F8030400F4030400F0030400EC030405
:1007100000E8030400E4030400E0030400DC030435
:1007200000D8030400D4030400D0030400CC030465
:1007300000C8030300C503030024F404D9201BC42C
:100740000C5C0E9804C4095F0265077101F405F999
:1007500000FB04B30048048700C103690058035537
:100760000003034500BE023A008402310053022A0E
:10077000002902250004022000E4011C00C8011920
:1007800000AF0117009801140084011300710110DB
:10079000006101100051010E0043010D0036010BF4
:1007A000002B010B0020010B00150109000C0109B1
:1007B0000003010800FB000800F3000800EB00073D
:1007C00000E4000600DE000600D8000600D20006A5
:1007D00000CC000500C7000500C2000500BD0004F4
:1007E00000B9000400B5000400B1000400AD00042D
:1007F00000A9000400A5000300A20003009F00045C
:10080000009B000300980003009500020093000382
:1008100000900003008D0002008B0003008800029E
:10082000008600020084000300810002007F0002B5
:10083000007D0002007B00020079000200770001C9
:1008400000760002007400020072000100710002D4
:10085000006F0002006D0001006C0002006A0001E0
:1008600000690002006700010066000100650001E8
:1008700000640002006200010061000100600001EC
:10088000005F0002005D0001005C0001005B0001F0
:10089000005A0001005900010058000100570001F2
:1008A00000560001005500010054000100530000F3
:1008B00000530001005200010051000100500001EE
:1008C000004F0001004E0000004E0001004D0001ED
:1008D000004C0001004B0000004B0001004A0001E9
:1008E00000490001004800000048000100470001E5
:1008F00000460000004600010045000000450001E0
:1009000000440001004300000043000100420000D9
:1009100000420001004100000041000100400001D0
:10092000003F0000003F0001003E0000003E0001CB
:10093000003D0000003D0001003C0000003C0000C4
:10094000003C0001003B0000003B0001003A0000B9
:10095000003A0001003900000039000100380000B1
:1009600000380000003800010037000000370001A7
:10097000003600000036000000360001003500009F
:100980000035000000350001003400000034000094
:100990000034000100330000003300000033000188
:1009A000003200000032000000320001003100007F
:1009B0000031000000310001003000000030000074
:1009C00000300001002F0000002F0000002F000069
:1009D000002F0001002E0000002E0000002E00015C
:1009E000002D0000002D0000002D0000002D000152
:1009F000002C0000002C0000002C0000002C000146
:100A0000002B0000002B0000002B0000002B000139
:100A1000002A0000002A0000002A0000002A00012D
:100A20000029000000290000002900000029000022
:100A30000029000100280000002800000028000014
:100A40000028000000280001002700000027000007
:100A500000270000002700000027000100260000FA
:100A600000260000002600000026000000260001ED
:100A700000250000002500000025000000250000E2
:100A800000250000002500010024000000240000D3
:100A900000240000002400000024000100230000C6
:100AA00000230000002300000023000000230000BA
:100AB00000230000002300010022000000220000AB
:100AC000002200000022000000220000002200019D
:100AD0000021000000210000002100000021000092
:100AE0000021000000210000002100010020000082
:100AF0000020000000200000002000000020000076
:100B0000002000000020000000200001001F000065
:100B1000001F0000001F0000001F0000001F000059
:100B2000001F0000001F0001001E0000001E00004A
:100B3000001E0000001E000000546865726D616CAC
:100B40002052756E6177617900544845524D414C91
:100B50002052554E415741590048656174696E678E
:100B6000206661696C65640048656174696E672020
:100B70006661696C6564004D494E54454D50207462
:100B80007269676765726564004572723A204D4903
:100B90004E54454D5000626564002C207379737487
:100BA000656D2073746F7070656421204865617491
:100BB00065725F49443A20004D415854454D5020DC
:100BC000747269676765726564004572723A204D98
:100BD000415854454D50004B6420002364656669BC
:100BE0006E65202044454641554C545F004B6920BA
:100BF0000023646566696E65202044454641554C76
:100C0000545F004B70200023646566696E65202088
:100C100044454641554C545F005049442041757449
:100C20006F74756E652066696E69736865642120EE
:100C300050757420746865206C617374204B702C3F
:100C4000204B6920616E64204B6420636F6E737467
:100C5000616E74732066726F6D2062656C6F7720B1
:100C6000696E746F20436F6E66696775726174692F
:100C70006F6E2E6800504944204175746F74756E14
:100C800065206661696C6564212074696D656F75A6
:100C9000740020403A00543A005049442041757491
:100CA0006F74756E65206661696C6564212054659A
:100CB0006D706572617475726520746F6F206869FC
:100CC000676800204B643A2000204B693A200020DE
:100CD0004B703A200020436C617373696320504964
:100CE0004420002054753A2000204B753A20002003
:100CF0006D61783A2000206D696E3A200020643AD8
:100D0000200020626961733A20001000C9021001BE
:100D10002C014001220170011801B0010E01F00107
:100D200004015002FA00B002F0003003E600D003E4
:100D3000DC009004D2007005C800A006BE000008C8
:100D4000B400B009AA00D00BA000600E960060119C
:100D50008C000015820020197800C01D6E00A022B2
:100D60006400B0275A00902C500000314600E03457
:100D70003C0010383200903A2800603C1E00A03D34
:100D80001400803E0A00203F000020496E76616C0E
:100D900069642065787472756465722000507269A8
:100DA0006E7465722068616C7465642E206B696C6A
:100DB0006C28292063616C6C656421004B494C4CA4
:100DC00045442E200020746F6F206C6F6E67206585
:100DD0007874727573696F6E2070726576656E7463
:100DE00065640020636F6C64206578747275736944
:100DF0006F6E2070726576656E746564006F6B004F
:100E0000526573656E643A20003A20007A5F6D6126
:100E1000783A20007A5F6D696E3A20006F6B005A55
:100E2000204F666673657400546F6F206661722090
:100E300066726F6D207265666572656E636520709F
:100E40006F696E740053657474696E6720547261C3
:100E500076656C20416363656C65726174696F6E61
:100E60003A200053657474696E672052657472612C
:100E7000637420416363656C65726174696F6E3A77
:100E8000200053657474696E67205072696E742017
:100E9000416363656C65726174696F6E3A200053DB
:100EA000657474696E67205072696E7420616E6437
:100EB0002054726176656C20416363656C65726174
:100EC00074696F6E3A20007A5F6D696E3A2000791E
:100ED0005F6D61783A2000785F6D696E3A2000207E
:100EE0005A3A0020593A0020436F756E7420583AE0
:100EF000200020453A00205A3A0020593A00583A3A
:100F0000004649524D574152455F4E414D453A4D7D
:100F100061726C696E20312E312E302044323030B7
:100F20002D50616C706575722D5243332D322D67D3
:100F30003838653961656520534F555243455F43E5
:100F40004F44455F55524C3A68747470733A2F2F72
:100F50006769746875622E636F6D2F4D61726C697D
:100F60006E4669726D776172652F4D61726C696E44
:100F70002F2050524F544F434F4C5F5645525349C8
:100F80004F4E3A312E30204D414348494E455F5433
:100F90005950453A3344205072696E746572204549
:100FA000585452554445525F434F554E543A3120A0
:100FB000555549443A30303030303030302D3030B3
:100FC00030302D303030302D303030302D3030302A
:100FD0003030303030303030300A003F0020573A67
:100FE0000020453A00543A002042403A0020403A5E
:100FF00000202F00205400202F0020543A006F6B57
:10100000004B494C4C45442E200044454255472056
:1010100044525952554E20454E41424C454400449D
:1010200045425547204543484F20454E41424C4597
:1010300044005374616E6461726420446576696132
:1010400074696F6E3A20004D65616E3A2000202071
:10105000207369676D613A2000206D65616E3A20EA
:10106000002020207A3A2000206F662000793A2064
:1010700000783A2000506F736974696F6E696E670B
:10108000207468652070726F62652E2E2E0A003FF4
:101090004E756D626572206F66206C65677320699E
:1010A0006E206D6F76656D656E74206E6F74207046
:1010B0006C61757369626C652028302D3135292E7D
:1010C0000A00590058003F53616D706C65207369C8
:1010D0007A65206E6F7420706C61757369626C65DF
:1010E0002028342D3530292E0A004D3438205A2D31
:1010F00050726F6265205265706561746162696CDF
:1011000069747920746573740A003F566572626F62
:101110007365204C6576656C206E6F7420706C6111
:10112000757369626C652028302D34292E0A0025DC
:1011300069206D696E2C2025692073656300456EFA
:10114000642066696C65206C697374004265676928
:101150006E2066696C65206C69737400205A3A20B1
:101160000020593A200042656420583A2000205A55
:101170003A200020593A200042656420583A200065
:10118000202B00200A436F727265637465642042ED
:101190006564204865696768742076732E2042650F
:1011A0006420546F706F6C6F67793A200A00202BAF
:1011B000002B2D2D2D2D2D2D2D2D2D2D2D2B0A00E0
:1011C0007C2E2E2E46726F6E742E2E2E7C0A007C84
:1011D0004C6566742E2E52696768747C0A007C2EFA
:1011E0002E2E4261636B2E2E2E2E7C0A002B2D2D6F
:1011F0002D2D2D2D2D2D2D2D2D2B0A00200A426554
:10120000642048656967687420546F706F67726105
:101210007068793A200A004D65616E206F66207310
:10122000616D706C656420706F696E74733A200034
:1012300020643A200020623A200045716E20636FDE
:10124000656666696369656E74733A20613A200069
:1012500028422961636B00284629726F6E7400284A
:1012600052296967687400284C29656674003F4EEE
:10127000756D626572206F662070726F62656420A2
:101280002850296F696E747320697320696D706CC2
:1012900061757369626C65202832206D696E696DB5
:1012A000756D292E0A0052756E6E696E6720696E23
:1012B000204452592D52554E206D6F6465004732BF
:1012C00039204175746F20426564204C6576656CE9
:1012D000696E670A003F2856296572626F73652040
:1012E0004C6576656C20697320696D706C617573EF
:1012F00069626C652028302D34292E00486F6D6599
:1013000020582F59206265666F7265205A00576118
:10131000726E696E673A20486F6D696E672042751C
:101320006D702044697669736F72203C20310048EB
:101330006F6D6520582F59206265666F7265205A5F
:10134000005A2070726F6265206F75742E2062657E
:10135000640020706F736974696F6E206F757420FC
:101360006F662072616E67652E003F50726F626516
:101370002000220A00556E6B6E6F776E20636F6DD2
:101380006D616E643A202200256920686F75727362
:10139000202569206D696E7574657300446F6E65F4
:1013A000207072696E74696E672066696C65004BA7
:1013B000494C4C45442E20005072696E7465722071
:1013C00073746F707065642064756520746F206538
:1013D00072726F72732E204669782074686520657A
:1013E00072726F7220616E6420757365204D393999
:1013F0003920746F20726573746172742E202854C2
:10140000656D7065726174757265206973207265AF
:101410007365742E20536574206974206166746549
:10142000722072657374617274696E6729004E6F01
:10143000204C696E65204E756D6265722077697407
:101440006820636865636B73756D2C204C617374E1
:10145000204C696E653A20004E6F20436865636BCF
:1014600073756D2077697468206C696E65206E7580
:101470006D6265722C204C617374204C696E653A04
:101480002000636865636B73756D206D69736D61B2
:101490007463682C204C617374204C696E653A202B
:1014A000004C696E65204E756D626572206973200F
:1014B0006E6F74204C617374204C696E65204E759C
:1014C0006D6265722B312C204C617374204C696EF7
:1014D000653A20004D313130006F6B00446F6E650E
:1014E00020736176696E672066696C652E004D32E7
:1014F00039002020506C616E6E65724275666665BB
:101500007242797465733A20002046726565204DF9
:10151000656D6F72793A20004D617220323220324F
:1015200030313600436F6D70696C65643A20004459
:101530006973636F766572792032303000207C20C9
:10154000417574686F723A2000323031362D303375
:101550002D32322031393A333600204C61737420F9
:10156000557064617465643A200020312E312E304C
:1015700020443230302D50616C70657572004D61C1
:10158000726C696E0020536F6674776172652052C9
:101590006573657400205761746368646F672052D7
:1015A00065736574002042726F776E206F757420CA
:1015B0005265736574002045787465726E616C20A5
:1015C000526573657400506F77657255700073745F
:1015D000617274002200656E7175657565696E676C
:1015E000202200FF01FF0000A0400000A0400000FA
:1015F000004000004D4300004D4300004D430000FB
:10160000000000004D430000000000004D430000BA
:101610004D4300004D4300000000000000000000AA
:1016200000006563686F3A004572726F723A00207D
:10163000204D383531205A005A2D50726F62652086
:101640004F666673657420286D6D293A0020204D21
:101650003230302044300020204D323030204400E1
:101660002044697361626C65640046696C616D65F4
:101670006E742073657474696E67733A00204C0051
:1016800020430020440020490020204D33303120E9
:1016900050005049442073657474696E67733A0052
:1016A000205A0020590020204D3230362058004862
:1016B0006F6D65206F666673657420286D6D293ABD
:1016C00000204500205A00205800204200205400ED
:1016D00020204D323035205300416476616E6365C1
:1016E00064207661726961626C65733A20533D4D86
:1016F000696E20666565647261746520286D6D2F62
:1017000073292C20543D4D696E2074726176656C8E
:1017100020666565647261746520286D6D2F73297C
:101720002C20423D6D696E696D756D207365676D26
:10173000656E742074696D6520286D73292C20589E
:101740003D6D6178696D756D205859206A65726BC1
:1017500020286D6D2F73292C20205A3D6D617869EA
:101760006D756D205A206A65726B20286D6D2F7320
:10177000292C2020453D6D6178696D756D204520CF
:101780006A65726B20286D6D2F732900205400202C
:10179000520020204D323034205000416363656C8C
:1017A00065726174696F6E733A20503D7072696E34
:1017B00074696E672C20523D726574726163742087
:1017C000616E6420543D74726176656C0020450042
:1017D000205A0020590020204D3230312058004D31
:1017E0006178696D756D20416363656C65726174C4
:1017F000696F6E20286D6D2F7332293A00204500E5
:10180000205A0020590020204D3230332058004DFE
:101810006178696D756D2066656564726174657364
:1018200020286D6D2F73293A00204500205A002092
:10183000590020204D3932205800537465707320B0
:1018400070657220756E69743A0048617264636FE6
:101850006465642044656661756C742053657474B6
:10186000696E6773204C6F616465640020746F6FEC
:10187000206C6F6E6720657874727573696F6E2067
:1018800070726576656E7465640020636F6C6420A9
:10189000657874727573696F6E2070726576656EA7
:1018A00074656400000000010200000000000000F8
:1018B0000403070600000000000000000000000014
:1018C000000000000102040810204080010204080A
:1018D0001020408001020408102040808040201029
:1018E00008040201020202020202020204040404C9
:1018F00004040404030303030303030301010101BC
:101900000101010100002000230026002900000041
:101910002200250028002B000000210024002700C1
:101920002A004E414E494E495459494E46CDCCCCE1
:101930003D0AD7233C17B7D13877CC2B329595E6A3
:10194000241FB14F0A000020410000C84200401C83
:101950004620BCBE4CCA1B0E5AAEC59D7400FC7717
:10196000A2A2007811241FBECFEFD0E4DEBFCDBF0E
:1019700013E0A0E0B1E0E4E8F3E601E00BBF02C051
:1019800007900D92AA30B107D9F722E1AAE0B3E09F
:1019900001C01D92A230B207E1F719E1C2E6D9E118
:1019A00000E006C022970109FE010BBF0E9477AB41
:1019B000CE35D10780E00807A9F70E9423A60C9432
:1019C000B0B10C940000CF93DF931F92CDB7DEB778
:1019D000698341E050E0BE016F5F7F4F04960E9433
:1019E000EA250F90DF91CF910895FB01019000202F
:1019F000E9F7AF0141505109461B570B04960C946F
:101A0000EA25CF92DF92EF92FF920F931F93FC0192
:101A100040835183628373830483158326833783D2
:101A2000C086D186E286F3861F910F91FF90EF90DA
:101A3000DF90CF9008954F925F926F927F928F9236
:101A40009F92AF92BF92CF92DF92EF92FF92FC01F2
:101A5000608171818281938184809580A680B78026
:101A6000C084D184E284F3849B01AC010E9409AA62
:101A70002B013C01A5019401C501B4010E9409AAF2
:101A80009B01AC01C301B2010E945BA64B015C014A
:101A9000A7019601C701B6010E9409AA9B01AC01EA
:101AA000C501B4010E945BA6FF90EF90DF90CF903C
:101AB000BF90AF909F908F907F906F905F904F906E
:101AC0000C9476AACF92DF92EF92FF92CF93DF939E
:101AD000EC010E941B0D6B017C019B01AC01688134
:101AE00079818A819B810E943BA7688379838A835D
:101AF0009B83A70196016C817D818E819F810E94CD
:101B00003BA76C837D838E839F83A70196016885A5
:101B100079858A859B850E943BA7688779878A8714
:101B20009B87DF91CF91FF90EF90DF90CF9008954A
:101B30004F925F926F927F928F929F92AF92BF92DD
:101B4000CF92DF92EF92FF920F931F93CF93DF9389
:101B5000CDB7DEB728970FB6F894DEBF0FBECDBF66
:101B60008C01DC014D905D906D907C9013971496E4
:101B70008D909D90AD90BC9017971896CD90DD906C
:101B8000ED90FC901B972F8D38A149A15AA1C3015C
:101B9000B2010E9409AA69837A838B839C832BA557
:101BA0003CA54DA55EA5C501B4010E9409AA9B01F3
:101BB000AC0169817A818B819C810E945BA66983DB
:101BC0007A838B839C832FA938AD49AD5AADC70169
:101BD000B6010E9409AA9B01AC0169817A818B81BF
:101BE0009C810E945BA669837A838B839C832BA153
:101BF0003CA14DA15EA1C301B2010E9409AA6D835F
:101C00007E838F8398872FA538A949A95AA9C50132
:101C1000B4010E9409AA9B01AC016D817E818F8174
:101C200098850E945BA66D837E838F8398872BADFA
:101C30003CAD4DAD5EADC701B6010E9409AA9B0146
:101C4000AC016D817E818F8198850E945BA66D833A
:101C50007E838F8398872B8D3C8D4D8D5E8DC30148
:101C6000B2010E9409AA2B013C012FA138A549A568
:101C70005AA5C501B4010E9409AA9B01AC01C30188
:101C8000B2010E945BA64B015C012BA93CA94DA9A6
:101C90005EA9C701B6010E9409AA9B01AC01C5015A
:101CA000B4010E945BA6F8016083718382839383F1
:101CB00089819A81AB81BC8184839583A683B78314
:101CC0008D819E81AF81B88580879187A287B387F8
:101CD00028960FB6F894DEBF0FBECDBFDF91CF912F
:101CE0001F910F91FF90EF90DF90CF90BF90AF903A
:101CF0009F908F907F906F905F904F900895CF93BB
:101D0000DF93EC01FB018191BF01882339F09091B1
:101D1000C00095FFFCCF8093C600F4CFE0E2F1E075
:101D20008491882341F09091C00095FFFCCF80936F
:101D3000C6003196F5CF488159816A817B8126E0C2
:101D400030E08AE093E00E94D813EBE1F1E0849167
:101D5000882341F09091C00095FFFCCF8093C6008E
:101D60003196F5CF4C815D816E817F8126E030E038
:101D70008AE093E00E94D813E6E1F1E084918823A1
:101D800041F09091C00095FFFCCF8093C600319642
:101D9000F5CF488559856A857B8526E030E08AE065
:101DA00093E00E94D8138091C00085FFFCCF8AE0A9
:101DB0008093C600DF91CF9108950F931F93CF9327
:101DC000DF93CDB7DEB72C970FB6F894DEBF0FBE0A
:101DD000CDBFEBADFCAD80819181A281B381E9AD36
:101DE000FAAD4081518162817381EFA9F8AD008124
:101DF00011812281338109831A832B833C834D8394
:101E00005E836F83788789879A87AB87BC878DB716
:101E10009EB784970FB6F8949EBF0FBE8DBFADB727
:101E2000BEB7119684E2FE01739601900D928A95D9
:101E3000E1F7CE0101960E94980D89819A81AB81CC
:101E4000BC81EFA9F8AD80839183A283B3838D8198
:101E50009E81AF81B885E9ADFAAD80839183A2837D
:101E6000B38389859A85AB85BC85EBADFCAD80835A
:101E70009183A283B3830FB6F894DEBF0FBECDBFAC
:101E80002C960FB6F894DEBF0FBECDBFDF91CF9179
:101E90001F910F910895FC0140E050E060E87FE35E
:101EA0004083518362837383148215821682178262
:101EB0001086118612861386148615861686178656
:101EC000408B518B628B738B148A158A168A178A02
:101ED000108E118E128E138E148E158E168E178EF6
:101EE00040A351A362A373A308952F923F924F92F0
:101EF0005F926F927F928F929F92AF92BF92CF929A
:101F0000DF92EF92FF920F931F93CF93DF93CDB7A2
:101F1000DEB7C454D1090FB6F894DEBF0FBECDBFF3
:101F20001C01CDA2DEA2EFA2F8A609A71AA72BA733
:101F30003CA74DA75EA76FA778ABCDA0DEA0EFA012
:101F4000F8A42DA53EA54FA558A989A59AA5ABA58E
:101F5000BCA5C98EDA8EEB8EFC8E8D8F9E8FAF8FD7
:101F6000B8A329A33AA34BA35CA3CE01499622961A
:101F70002FAF229723963FAF239724964FAF2497F6
:101F800025965FAF25970E94620D80E090E0A0E863
:101F9000BFE38D879E87AF87B88B198A1A8A1B8A01
:101FA0001C8AC701B601905822962FAD229723961E
:101FB0003FAD239724964FAD249725965FAD259787
:101FC0000E943BA76D8B7E8B8F8B988FCE010D96D9
:101FD0000E94620D098D1A8D2B8D3C8D09AB1AABB9
:101FE0002BAB3CAB4D8C5E8C6F8C78A089A09AA0FB
:101FF000ABA0BCA08D859E85AF85B8898DAB9EAB0F
:10200000AFABB8AF09891A892B893C8909AF1AAFE0
:102010002BAF3CAFCD88DE88EF88F88CA701960106
:10202000C301B2010E9409AA21966CAF7DAF8EAFA9
:102030009FAF219729AD3AAD4BAD5CADC501B40161
:102040000E9409AA9B01AC0121966CAD7DAD8EADBD
:102050009FAD21970E945AA669837A838B839C83C4
:102060002DA93EA94FA958ADC501B4010E9409AAE6
:102070004B015C01A701960169A97AA98BA99CA9CA
:102080000E9409AA9B01AC01C501B4010E945AA695
:102090006D837E838F83988729AD3AAD4BAD5CAD60
:1020A00069A97AA98BA99CA90E9409AA6B017C0144
:1020B0002DA93EA94FA958ADC301B2010E9409AA9A
:1020C0009B01AC01C701B6010E945AA669877A87B5
:1020D0008B879C87CE0101960E94620D49885A88A1
:1020E0006B887C888D889E88AF88B88CC980DA80A0
:1020F000EB80FC804D815E816F81788589859A8532
:10210000AB85BC85098D1A8D2B8D3C8D09AB1AAB27
:102110002BAB3CAB0D8D1E8D2F8D38A10DAB1EABA7
:102120002FAB38AF09A11AA12BA13CA109AF1AAF5F
:102130002BAF3CAF0D851E852F853889F1010083BB
:10214000118322833383448255826682778280861C
:102150009186A286B386C486D586E686F786408BAE
:10216000518B628B738B848B958BA68BB78B09A954
:102170001AA92BA93CA9008F118F228F338F0DA98B
:102180001EA92FA938AD048F158F268F378F09AD63
:102190001AAD2BAD3CAD00A311A322A333A3C10103
:1021A000CC5BDF4F0FB6F894DEBF0FBECDBFDF9123
:1021B000CF911F910F91FF90EF90DF90CF90BF9044
:1021C000AF909F908F907F906F905F904F903F90D7
:1021D0002F900895CF93DF93CDB7DEB7FC014D81EB
:1021E0005E816F81788540835183628373834989DF
:1021F0005A896B897C8944835583668377834D8DA7
:102200005E8D6F8D78A1408751876287738749857E
:102210005A856B857C8544875587668777874D8986
:102220005E896F89788D408B518B628B738B49A14E
:102230005AA16BA17CA1448B558B668B778B4D8506
:102240005E856F857889408F518F628F738F498D3E
:102250005A8D6B8D7C8D448F558F668F778F4DA1F6
:102260005EA16FA178A540A351A362A373A3DF91E0
:10227000CF9108959F92AF92BF92CF92DF92EF924B
:10228000FF920F931F93CF93DF93FB012191BF0127
:10229000222339F03091C00035FFFCCF2093C600D7
:1022A000F4CF2091C00025FFFCCF2AE02093C60088
:1022B000EC01E12CF12C8BE2B82E90E2A92E2AE061
:1022C000922E00E010E06E01C00ED11E20E030E042
:1022D000A901F60160817181828193810E9437A9F1
:1022E00087FD06C08091C00085FFFCCFB092C6007C
:1022F000F601408151816281738126E030E08AE0FD
:1023000093E00E94D8138091C00085FFFCCFA0927B
:10231000C6000C5F1F4F0C301105A9F6F3E0EF0E5D
:10232000F11C8091C00085FFFCCF9092C6002C96D6
:1023300089E0E816F10429F6DF91CF911F910F9102
:10234000FF90EF90DF90CF90BF90AF909F90089557
:102350001F920F920FB60F9211240BB60F922F936C
:102360003F934F935F936F938F939F93EF93FF935D
:102370006091C60020918B0330918C03C9010196B6
:102380008F77992740918D0350918E03841795077D
:1023900041F0F901E55FFC4F608390938C038093DB
:1023A0008B03FF91EF919F918F916F915F914F916F
:1023B0003F912F910F900BBE0F900FBE0F901F906B
:1023C00018959A01AB01211581EE38074105510599
:1023D00049F182E08093C00060E079E08DE390E015
:1023E0000E9429AB2150310941095109CA01B901A3
:1023F00022E030E040E050E00E9429AB3093C5007D
:102400002093C4008091C10080618093C1008091BD
:10241000C10088608093C1008091C1008068809372
:10242000C10008951092C00020E130E0E7CF209174
:102430008D0330918E0380918B0390918C038217D2
:10244000930771F0F901E55FFC4F80812F5F3F4FEB
:102450002F77332730938E0320938D0390E00895D8
:102460008FEF9FEF089580918D0390918E0390934D
:102470008C0380938B0308954F925F926F927F92AB
:102480008F929F92AF92BF92CF92DF92EF92FF9284
:102490000F931F93CF93DF93CDB7DEB7A0970FB6FF
:1024A000F894DEBF0FBECDBF5C014115510561053B
:1024B0007105F1F420E030E040E350E060E070E0CE
:1024C000A0960FB6F894DEBF0FBECDBFDF91CF91BF
:1024D0001F910F91FF90EF90DF90CF90BF90AF9042
:1024E0009F908F907F906F905F904F900C94D4123C
:1024F0008E010F5F1F4FC12CD12C76014801422E57
:10250000512C612C712C8FEFC81AD80AE80AF80AEE
:10251000CB01BA01A30192010E9407ABCA01F801E5
:1025200061938F01A901BC01411551056105710538
:1025300051F7F1E0CF1AD108E108F108F401EC0DF0
:10254000FD1D80818A3010F440E301C047E3480F4D
:10255000552747FD5095652F752F20E030E0C501C8
:102560000E94D41281E0C81AD108E108F108EFEF07
:10257000CE16DE06EE06FE0609F7A0960FB6F89414
:10258000DEBF0FBECDBFDF91CF911F910F91FF90A6
:10259000EF90DF90CF90BF90AF909F908F907F9003
:1025A0006F905F904F9008952115310539F4809117
:1025B000C00085FFFCCF4093C60008952A30310546
:1025C00011F40C9403130C943C12CF93DF93EC01A1
:1025D00020E030E04DE050E060E070E00E94D41276
:1025E00020E030E04AE050E060E070E0CE01DF91B2
:1025F000CF910C94D4129A01AB01662757FD6095D8
:10260000762F0C94D412CF92DF92EF92FF92CF9359
:10261000DF93EC016A017B0177FF10C020E030E01E
:102620004DE250E060E070E00E94D412F094E0943B
:10263000D094C094C11CD11CE11CF11C2AE0B7014C
:10264000A601CE01DF91CF91FF90EF90DF90CF9068
:102650000C943C122115310539F48091C00085FF9E
:10266000FCCF4093C60008950C943C129A01462F6B
:1026700050E060E070E00C942A13CF93DF93EC01FC
:102680009A01AB0160E070E00E942A13CE01DF9155
:10269000CF910C94E5128F929F92AF92BF92CF92FE
:1026A000DF92EF92FF921F93CF93DF93EC016A01C9
:1026B0007B01122F20E030E0A901C701B6010E9482
:1026C00034A787FF0DC020E030E04DE250E060E02D
:1026D00070E0CE010E94D412F7FAF094F7F8F0946B
:1026E000B12C60E070E080E09FE3B11641F020E0A3
:1026F00030E040E251E40E943BA7B394F6CF9B0147
:10270000AC01C701B6010E945BA66B017C010E946F
:10271000A8A74B015C010E94D4A79B01AC01C70193
:10272000B6010E945AA66B017C012AE0B501A40102
:10273000CE010E943C12112349F020E030E04EE22D
:1027400050E060E070E0CE010E94D412112321F12C
:1027500020E030E040E251E4C701B6010E9409AA3E
:102760006B017C010E94A3A74B01AA2497FCA094B3
:10277000BA2CB501A401CE010E940313C501B40116
:102780000E94D6A79B01AC01C701B6010E945AA6C0
:102790006B017C011150DACFDF91CF911F91FF9037
:1027A000EF90DF90CF90BF90AF909F908F90089563
:1027B0000C944B13FC01148217821382128288EB53
:1027C00091E091838083089528EB31E0FC0131830F
:1027D00020832781222319F004960C94D622089591
:1027E000CF92DF92EF92FF920F931F93CF93DF93DD
:1027F000EC018F960E94DA13CE01805B9F4F0E94FE
:10280000DA137E012FE6E20EF11C87016E013BE533
:10281000C31A3EEFD30AC8010E94DA13015E1F4FAC
:102820000C151D05C1F7FE01E955FE4F89E18183B5
:1028300014823596178ACE0186539E4F0E94DA1372
:10284000FE01E558FD4F10821182128213823896E4
:1028500010821182128213821A821B8218821982BC
:10286000F80111821082FE01E751FE4F108286E3CB
:1028700091E0F7019C01119221503040E1F7FE01F7
:10288000E957FD4F81E080831EA61DA60E944AA441
:10289000C158DD4F68577C4E8F4F9F4F68837983B7
:1028A0008A839B83DF91CF911F910F91FF90EF90CF
:1028B000DF90CF900895FC0120E03EE2DB014C91D7
:1028C000403241F0283011F430833196DB014C91D5
:1028D000408331962F5F6F5F7F4F2B3079F71082E7
:1028E00008952F923F924F925F926F927F928F92B4
:1028F0009F92AF92BF92CF92DF92EF92FF920F938F
:102900001F93CF93DF93CDB7DEB7C657D1090FB66C
:10291000F894DEBF0FBECDBF8C016B015A012901B7
:102920002DB73EB7E3963FAF2EAFE397AD961FAE00
:10293000AD9734E0A30EB11C4296E5969FAF8EAFE3
:10294000E597180198E7291A9DEF390AF801E6572B
:10295000FD4FAF96FFAFEEAFAF973801F5E06F0ECA
:10296000711C7E012FE5E20EF11C80E490E08C0FDB
:102970009D1F0496E7969FAF8EAFE797E5964EAD05
:102980005FADE597BE016F5F7F4FC5010E943721A4
:1029900018160CF045C12C85322F3871303109F0F2
:1029A000C1C0F101808191810197029708F4BAC0FA
:1029B0002DB73EB7E1963FAF2EAFE197BE016F5FF7
:1029C0007F4FC7010E945B1481E0F6019081911155
:1029D000A1C0E1E0F0E0D7010D900020E9F7EE1989
:1029E000FF09EA0FFB1F31962DB73EB72E1B3F0B99
:1029F0000FB6F8943EBF0FBE2DBFEDB7FEB73196B0
:102A00004F01882319F06CEB71E001C0B601C401DD
:102A10000E94B9AEB701C4010E949AAE6CEB71E09E
:102A2000C4010E949AAECE01805C9F4F0E94DA13CF
:102A300021E0A701B501E7968EAD9FADE7970E9413
:102A4000DF24811137C0F10180819181892B91F5BB
:102A5000E2E2F6E18491882341F09091C00095FF75
:102A6000FCCF8093C6003196F5CFEEEBF1E081917B
:102A7000882339F09091C00095FFFCCF8093C60069
:102A8000F6CF8091C00085FFFCCF8AE08093C6001E
:102A9000F7018191882339F09091C00095FFFCCF18
:102AA0008093C600F6CF8091C00085FFFCCF8AE0FE
:102AB0008093C6008BE1FE01EC5BFF4FDE01959633
:102AC00001900D928A95E1F724968EAD9FAD2497E3
:102AD0009CA38BA388EB91E09AA389A320E030E02C
:102AE000AE014F5D5F4FB401C8010E947114CE0169
:102AF00081960E94E413CE01805C9F4F0E94E413F4
:102B0000E1962EAD3FADE1970FB6F8943EBF0FBEF4
:102B10002DBF34CF80E001900020E9F73197EC1908
:102B2000FD0959CF8981882309F47AC08E3209F4CE
:102B300025CFF80182898E3209F420CF23FD1ECFE4
:102B400081E0303109F080E0F8018483811108C010
:102B50008985873409F012CF8A858E3709F40ECF24
:102B6000F101808191818130910571F08230910570
:102B700089F1892B09F002CFBE016F5F7F4FC3013E
:102B80000E945B14F60110C0AF96EEADFFADAF979B
:102B900080819181019691838083F0CE9091C000D5
:102BA00095FFFCCF8093C60081918111F7CFF3018F
:102BB0008191882339F09091C00095FFFCCF8093DC
:102BC000C600F6CF8091C00085FFFCCF8AE08093DD
:102BD000C600D4CEBE016F5F7F4FC3010E945B145D
:102BE0004114510439F0B301C2010E9487AE892B10
:102BF00079F416C0AD96FFADAD972F2F30E0AF96AC
:102C0000EEADFFADAF97808191812817390741F074
:102C1000AD96FFADAD97FF5FAD96FFAFAD97AECE72
:102C2000E3962EAD3FADE3970FB6F8943EBF0FBECF
:102C30002DBFCA58DF4F0FB6F894DEBF0FBECDBF11
:102C4000DF91CF911F910F91FF90EF90DF90CF9088
:102C5000BF90AF909F908F907F906F905F904F90BC
:102C60003F902F900895EF92FF920F931F93CF9371
:102C7000DF93CDB7DEB76F970FB6F894DEBF0FBE08
:102C8000CDBF8C01FC01E857FD4F118210827C0101
:102C900083E3E80EF11C40E050E0BA01C7010E9456
:102CA000F0218BE1F701DE01159601900D928A95D6
:102CB000E1F7F80181A992A99C838B8388EB91E0CD
:102CC0009A83898320E030E0AE014F5F5F4F64EE6E
:102CD00071E0C8010E947114CE0101960E94E413B4
:102CE0006F960FB6F894DEBF0FBECDBFDF91CF91C8
:102CF0001F910F91FF90EF9008952BE1FB01349607
:102D0000DC01149601900D922A95E1F7FB012281D6
:102D10003381FC01338322830895EF92FF920F9356
:102D20001F93CF93DF93EC011B828EA9882321F0A0
:102D3000CE01C3960E94D6227E0189E5E81A8EEF65
:102D4000F80A4FE160E0C7010E94762881111FC098
:102D5000E2E2F6E18491882341F09091C00095FF72
:102D6000FCCF8093C6003196F5CFE5EFF2E0849179
:102D7000882341F09091C00095FFFCCF8093C6005E
:102D80003196F5CF8091C00085FFFCCF76C08E01D3
:102D900004551E4F41E0B701C8010E94D141811185
:102DA00026C040E0B701C8010E94D14181111FC077
:102DB000E8E2F6E18491882341F09091C00095FF0C
:102DC000FCCF8093C6003196F5CFE2EEF2E084911D
:102DD000882341F09091C00095FFFCCF8093C600FE
:102DE0003196F5CF8091C00085FFFCCF46C0B80179
:102DF000CE01C3960E94D71F81111FC0E8E2F6E101
:102E00008491882341F09091C00095FFFCCF80937E
:102E1000C6003196F5CFE2EDF2E08491882341F0CF
:102E20009091C00095FFFCCF8093C6003196F5CFFE
:102E30008091C00085FFFCCF20C081E08B83E2E25F
:102E4000F6E18491882341F09091C00095FFFCCF7A
:102E50008093C6003196F5CFE7ECF2E084918823A9
:102E600041F09091C00095FFFCCF8093C600319651
:102E7000F5CF8091C00085FFFCCF8AE08093C6002B
:102E80008E01015D1F4FB801CE01805B9F4F0E94F4
:102E90007D16C25BDF4F19830883DF91CF911F91AD
:102EA0000F91FF90EF900895FC0112821382089514
:102EB000FC012381222311F021E022830895FC01EB
:102EC0002281211112820895AF92BF92CF92DF9298
:102ED000EF92FF920F931F93CF93DF931F92CDB783
:102EE000DEB78C018FE2FB0181935F01D12C41E0C1
:102EF0007801FBE5EF1AFEEFFF0A8FE1C82E2D2DBA
:102F000030E0F7018081918128173907D8F4C29EFB
:102F1000C001C39E900D11248D589F4FB501800FA5
:102F2000911F49830E947C1FC50149815C01019664
:102F3000F5012081222321F04D3810F44F5FF6CFA8
:102F4000D394DDCF47FD11C0B501C80182539E4F18
:102F50000F90DF91CF911F910F91FF90EF90DF9035
:102F6000CF90BF90AF900C947C1FF50110820F9012
:102F7000DF91CF911F910F91FF90EF90DF90CF9055
:102F8000BF90AF9008953F924F925F926F927F9261
:102F90008F929F92AF92BF92CF92DF92EF92FF9269
:102FA0000F931F93CF93DF93CDB7DEB7AC970FB6D8
:102FB000F894DEBF0FBECDBF7C015B01FC018381B5
:102FC000882309F4EFC0C70182539E4F0E94D62286
:102FD000F7011282CE0101966C010E94DA132701DB
:102FE0009EE4490E511CC7018F96F20191838083A4
:102FF000F50180818F3209F077C06FE270E0C50182
:103000000E94A5AE8C010F5F1F4F9AE0392E01156B
:10301000110509F46FC06FE270E0C8010E94A5AE0F
:103020004C01009709F467C00817190708F063C03E
:103030003C01601A710AA301B801CE0180960E947A
:10304000CEAEE0E2F0E0EC0FFD1FE60DF71D1082C2
:10305000FE01B0968191882339F09091C00095FFD0
:10306000FCCF8093C600F6CF8091C00085FFFCCFD7
:103070003092C600F201608171816115710519F00D
:103080006C5F7F4F02C060E070E021E0AE01405E07
:103090005F4FCE0105960E94DF2481111EC0E3EA36
:1030A000F1E08491882341F09091C00095FFFCCF1E
:1030B0008093C6003196F5CFFE01B09681918823AA
:1030C00039F09091C00095FFFCCF8093C600F6CFF9
:1030D0008091C00085FFFCCF5FC0F201D182C08229
:1030E00084010F5F1F4F93CFC701805B9F4FF20199
:1030F000918380838501F20180819181009711F095
:10310000049602C080E090E0B8010E94BF258111C2
:1031100003C0EDE7F1E02EC0E5E9F1E084918823FA
:1031200041F09091C00095FFFCCF8093C60031968E
:10313000F5CFF8018191882339F09091C00095FF77
:10314000FCCF8093C600F6CF8091C00085FFFCCFF6
:103150008AE08093C600F701ED57FD4F108211827F
:10316000128213821CC09091C00095FFFCCF809307
:10317000C600319684918111F6CFF80181918823A0
:1031800039F09091C00095FFFCCF8093C600F6CF38
:103190008091C00085FFFCCF8EE28093C600C601FF
:1031A0000E94E413AC960FB6F894DEBF0FBECDBFFD
:1031B000DF91CF911F910F91FF90EF90DF90CF9013
:1031C000BF90AF909F908F907F906F905F904F9047
:1031D0003F900895CF93DF93EC018B81811103C061
:1031E000EBE5F1E039C0EBE6F1E08491882341F0B2
:1031F0009091C00095FFFCCF8093C6003196F5CF2B
:10320000FE01ED57FD4F40815181628173812AE0BB
:1032100030E08AE093E00E942A138091C00085FF8D
:10322000FCCF8FE28093C600C558DD4F488159819D
:103230006A817B812AE030E08AE093E00E942A13D1
:103240008091C00085FFFCCF0EC09091C00095FF1B
:10325000FCCF8093C600319684918111F6CF809186
:10326000C00085FFFCCF8AE08093C600DF91CF913C
:103270000895AF92BF92CF92DF92EF92FF920F9399
:103280001F93CF93DF935C01EB01FB0101900020C2
:10329000E9F78F0101501109061B170B6C01F2E3CE
:1032A000CF1AFEEFDF0AF60110826EE470E0CE0165
:1032B0000E94A5AE7C01009729F4F8013197EC0F2C
:1032C000FD1F0DC060E270E00E94A5AEEC012196EA
:1032D0006AE270E0C7010E94A5AEFC0131978DE063
:1032E00081838AE082831382BE01C50186539E4F8B
:1032F0000E94F50CF6018081882309F1E8E2F6E1ED
:103300008491882341F09091C00095FFFCCF809379
:10331000C6003196F5CFE5E4F1E08491882341F0D1
:103320009091C00095FFFCCF8093C6003196F5CFF9
:103330008091C00085FFFCCF8AE08093C600DF91BA
:10334000CF911F910F91FF90EF90DF90CF90BF90A2
:10335000AF9008952F923F924F925F926F927F921B
:103360008F929F92AF92BF92CF92DF92EF92FF9295
:103370000F931F93CF93DF93CDB7DEB7CC5BD1090B
:103380000FB6F894DEBF0FBECDBF8C0189579D4F9D
:103390005C01611112C0FC018081882309F4B2C074
:1033A0003897C080D180E280F3800E944AA4C6167C
:1033B000D706E806F90608F4A5C0F5011082F80161
:1033C0008381811108C0C8010E948D16F801838194
:1033D000882309F497C0F80186A58F9385A58F935C
:1033E0008CE391E09F938F937E01F3EBEF0EF11C42
:1033F000FF92EF920E94DDAE0F900F900F900F9012
:103400000F900F90B12CF70101900020E9F7319750
:10341000EE19FF09BE1684F46701CB0CD11CB7FC72
:10342000DA94F6018081992787FD90950E9428AE55
:10343000F6018083B394E7CF4801F3E38F0E911C2C
:1034400040E050E0BA01C4010E94F021512C6E010D
:1034500083E9C80ED11C25E3622E21E0722EFE0105
:1034600031965F0140E050E0B601C4010E9437216F
:103470001816E4F5412CF60101900020E9F7319788
:10348000EC19FD094E1674F41601240C311C47FC8E
:103490003A94F101808190E00E9428AEF10180838E
:1034A0004394E9CFF60181858E37E1F245E050E0A3
:1034B000B701C6010E94C0AE892BA1F6FF92EF9220
:1034C0007F926F92BF92AF920E94DDAEC5010E94C3
:1034D000A64381E391E00E9470440F900F900F90FB
:1034E0000F900F900F9055245394BCCF511004C0EF
:1034F0008FEF9FEFF80104C0F80185A596A501960E
:1035000096A785A7C454DF4F0FB6F894DEBF0FBE51
:10351000CDBFDF91CF911F910F91FF90EF90DF9082
:10352000CF90BF90AF909F908F907F906F905F9063
:103530004F903F902F9008950F931F93CF93DF9359
:10354000EC018C0102531E4FC8010E948A22C8015F
:103550000E94D62219821882DF91CF911F910F917C
:103560000895CF92DF92EF92FF920F931F93CF9324
:10357000DF93CDB7DEB76F970FB6F894DEBF0FBEFF
:10358000CDBF8C016A017C018EE4E80EF11CC801FC
:10359000805B9F4FF70191838083E65CFD4F22E0C3
:1035A00030E03183208332967183608340E050E0C5
:1035B000BA0104960E94F021F701808191812BE1EC
:1035C000FC013496DE01159601900D922A95E1F7E3
:1035D000FC01828193819C838B8388EB91E09A83A9
:1035E00089839601AE014F5F5F4F64EE71E0C801C1
:1035F0000E947114CE0101960E94E4136F960FB6DB
:10360000F894DEBF0FBECDBFDF91CF911F910F9118
:10361000FF90EF90DF90CF9008952F923F924F92BE
:103620005F926F927F928F929F92AF92BF92CF9252
:10363000DF92EF92FF920F931F93CF93DF93CDB75B
:10364000DEB7AC970FB6F894DEBF0FBECDBF8C01CE
:103650006B01342EFC018381882309F4C0C2EF5230
:10366000FE4F8081882309F4FBC0222319F0E2E297
:10367000F6E1CEC07801F7E1EF1AFEEFFF0AF7019D
:103680008081811103C0E2E2F6E135C0E8E2F6E1B3
:103690008491882341F09091C00095FFFCCF8093E6
:1036A000C6003196F5CFE4E8F2E08491882341F03A
:1036B0009091C00095FFFCCF8093C6003196F5CF66
:1036C0004AE050E061E070E08AE093E00E94FB1283
:1036D0008091C00085FFFCCF8AE08093C6008BE715
:1036E00092E00E947D627BC29091C00095FFFCCF6A
:1036F0008093C600319684918111F6CFE2E6F2E024
:103700008491882341F09091C00095FFFCCF809375
:10371000C6003196F5CFF6018191882339F090915A
:10372000C00095FFFCCF8093C600F6CFE7E5F2E03E
:103730008491882341F09091C00095FFFCCF809345
:10374000C6003196F5CFF70180814DE8B42EB8015F
:10375000B89E600D711D112462517E4FC8010E94F8
:103760006417F7018081F801B89EE00DF11D112466
:10377000E251FE4F8191882339F09091C00095FF6E
:10378000FCCF8093C600F6CFE1E5F2E08491882378
:1037900041F09091C00095FFFCCF8093C600319618
:1037A000F5CF5801FDE7AF1AFDEFBF0AF5014081E3
:1037B0005181628173812AE030E08AE093E00E94C7
:1037C0002A138091C00085FFFCCF8AE08093C60059
:1037D000F7012081F80184E0289FE00DF11D1124FC
:1037E000AF0146515E4FF50180819181A281B38185
:1037F000FA0180839183A283B3832F5FF701208333
:1038000029C09091C00095FFFCCF8093C6003196EF
:1038100084918111F6CFE0E4F2E08491882341F0B5
:103820009091C00095FFFCCF8093C6003196F5CFF4
:10383000F6018191882339F09091C00095FFFCCF6B
:103840008093C600F6CF8091C00085FFFCCF8AE050
:103850008093C600C80182539E4F0E94D62230C07A
:10386000F801E751FE4F1082E2E2F6E184918823ED
:1038700041F09091C00095FFFCCF8093C600319637
:10388000F5CFEFE2F2E08491882341F09091C000FF
:1038900095FFFCCF8093C6003196F5CFF60181915C
:1038A000882339F09091C00095FFFCCF8093C6002B
:1038B000F6CF8091C00085FFFCCF8AE08093C600E0
:1038C000F8011282CE0101965C010E94DA132801F0
:1038D0009EE4490E511CC8018F96F20191838083AA
:1038E000F60180818F3209F075C07601FFEFEF1A83
:1038F000FF0A3AE0232EE114F10409F471C06FE2EB
:1039000070E0C7010E94A5AE4C01009709F469C0A0
:10391000E816F90608F065C03C016E187F08A3019F
:10392000B701CE0180960E94CEAEE0E2F0E0EC0F4F
:10393000FD1FE60DF71D1082FE01B09681918823D0
:1039400039F09091C00095FFFCCF8093C600F6CF70
:103950008091C00085FFFCCF2092C600F2016081FB
:1039600071816115710519F06C5F7F4F02C060E0D5
:1039700070E021E0AE01405E5F4FCE0105960E94EF
:10398000DF2481111FC0EBE1F2E08491882341F034
:103990009091C00095FFFCCF8093C6003196F5CF83
:1039A000FE01B0968191882339F09091C00095FF77
:1039B000FCCF8093C600F6CF8091C00085FFFCCF7E
:1039C0008EE208C1F201B182A0827401FFEFEF1A0A
:1039D000FF0A91CFC801805B9F4FF20191838083E2
:1039E0007601C80182539E4F4C01F20160817181C2
:1039F000332009F49BC06115710519F06C5F7F4F8E
:103A000002C060E070E021E0A701C4010E94DF2451
:103A1000811103C0E3EEF1E06DC0980125583D4FE0
:103A2000F40181899289A389B489F9018083918302
:103A3000A283B383EDE0F2E08491882341F090917A
:103A4000C00095FFFCCF8093C6003196F5CFF701FB
:103A50008191882339F09091C00095FFFCCF80932D
:103A6000C600F6CFE5E0F2E08491882341F0909122
:103A7000C00095FFFCCF8093C6003196F5CFF901C9
:103A800040815181628173812AE030E08AE093E0D5
:103A90000E942A138091C00085FFFCCF8AE08093AA
:103AA000C600F801ED57FD4F108211821282138279
:103AB000E7EFF1E08491882341F09091C00095FFF9
:103AC000FCCF8093C6003196F5CF8091C00085FF72
:103AD000FCCF8AE08093C600A70160E070E0C801D7
:103AE0000E94B11A79C09091C00095FFFCCF8093DD
:103AF000C600319684918111F6CFF7018191882318
:103B000039F09091C00095FFFCCF8093C600F6CFAE
:103B1000E0EEF1E08491882309F45EC09091C0004A
:103B200095FFFCCF8093C6003196F4CF61157105E7
:103B300019F06C5F7F4F02C060E070E026E5A701DE
:103B4000C4010E94DF24811125C0ECECF1E08491D6
:103B5000882341F09091C00095FFFCCF8093C60070
:103B60003196F5CFF7018191882339F09091C0000B
:103B700095FFFCCF8093C600F6CFE9ECF1E084918D
:103B8000882351F19091C00095FFFCCF8093C6002F
:103B90003196F5CF81E0F8018083E7EBF1E0849185
:103BA000882341F09091C00095FFFCCF8093C60020
:103BB0003196F5CFF6018191882339F09091C000BC
:103BC00095FFFCCF8093C600F6CF8091C00085FFA3
:103BD000FCCF8AE08093C600C5010E94E413AC9636
:103BE0000FB6F894DEBF0FBECDBFDF91CF911F910E
:103BF0000F91FF90EF90DF90CF90BF90AF909F908C
:103C00008F907F906F905F904F903F902F9008958E
:103C100021E0FC01218340E00C940D1BEF92FF9208
:103C20000F931F93CF93DF93EC010E94B5318E0168
:103C300007511E4FF80180819E0122533E4F7901AA
:103C40008823A9F1C9010E94D622F8018081815000
:103C50008083BE01FDE88F9F600D711D11246251AC
:103C60007E4F21E041E0CE010E940D1BF8018081D2
:103C7000FE0124E0829FE00DF11D1124E651FE4F6C
:103C80004081518162817381FE01ED57FD4F408378
:103C9000518362837383C7010E94F021CE01DF91BB
:103CA000CF911F910F91FF90EF900C945817C9017D
:103CB0000E94D6221A8285E291E00E94704480918F
:103CC000CF10882349F11092CF1000916D0710E0BA
:103CD000E801CC0FDD1FCD5CDA4F68817981882740
:103CE00077FD8095982F0E94D6A7209152013091A0
:103CF000530140915401509155010E9437A9181663
:103D00005CF419821882C801DF91CF911F910F9145
:103D1000FF90EF900C942936DF91CF911F910F9176
:103D2000FF90EF900895CF93DF93EC019C012C5FFF
:103D30003F4F41E050E060E070E0898D9A8D0E9435
:103D40006B40882399F04D895E896F89788D452B6A
:103D5000462B472B59F44C815D816E817F814D8BC1
:103D60005E8B6F8B788F998190689983DF91CF916B
:103D70000895CF92DF92EF92FF920F931F93CF930C
:103D8000DF93EC0189899A89AB89BC89803E9F4F7A
:103D9000AF41B10510F080E06CC0CE010E94931ECF
:103DA0008823C9F30E947B3E182F8823A1F3E98D55
:103DB000FA8DCC80DD80EE80FF8032E0C31AD1081E
:103DC000E108F108058404C0CC0CDD1CEE1CFF1CCE
:103DD0000A94D2F786859785A089B189C80ED91E25
:103DE000EA1EFB1E81E080933F05C0924207D092FD
:103DF0004307E0924407F092450780E092E0E2E456
:103E0000F5E0DF019C011D9221503040E1F701E017
:103E1000E98DFA8D8481081790F422E435E0B7012A
:103E2000A601400F511D611D711D809140059091AB
:103E300041050E9497298823E1F00F5FE9CFC12C4B
:103E400082E0D82EE12CF12C058404C0CC0CDD1CC2
:103E5000EE1CFF1C0A94D2F749895A896B897C8928
:103E60004C0D5D1D6E1D7F1D498B5A8B6B8B7C8BA2
:103E7000812FDF91CF911F910F91FF90EF90DF90F5
:103E8000CF900895CF93DF93EC0141E0611101C021
:103E900040E06C857D858E859F850E94BB3E882392
:103EA00041F0888920E2829FC00111248E5B9A4FE5
:103EB00002C080E090E0DF91CF91089530E020E0F3
:103EC0004EE2DC015C91503271F0383029F4FB0194
:103ED000E20FF11D40832F5FFB01E20FF11DDC01BA
:103EE0005C9150832F5F3F5F01963B3051F7FB01A0
:103EF000E20FF11D10820895CF93DF93EB01FC01D7
:103F00002381211102C080E010C02250223020F411
:103F10008FE28883198208C060E00E94421F0097E8
:103F200091F3BE010E945E1F81E0DF91CF91089561
:103F3000FB012BE030E231932150E9F7DC0190E006
:103F400027E03A2FEB2F8D9181110AC0DA013C93C3
:103F50001196EC9381E0FB019081903239F525C0F8
:103F60008F32A1F38E3219F0E2E0F3E008C02A307C
:103F7000E1F098E02AE0E5CF31963817B1F03491BE
:103F80003111FACF291788F03FED380F3E3568F42C
:103F900031E0390FFB01E90FF11D9FE9980F9A31CC
:103FA00008F480528083932FCCCF80E008950F9344
:103FB0001F93CF93DF93EC018B018B81882311F04A
:103FC00080E042C0FB018789803139F18032C1F73E
:103FD00083E08B83F801428D538D648D758D4D8BFD
:103FE0005E8B6F8B788F9E012F5E3F4FC8010E94C2
:103FF000743F882329F31A8F098F81E089831C82FB
:104000001D821E821F82188619861A861B861C86B0
:104010001D861E861F86188A17C082E08B831D8A24
:104020001E8A1F8A188EFB01408D518D60E070E062
:1040300095E0440F551F661F771F9A95D1F7498B5E
:104040005A8B6B8B7C8BD7CFDF91CF911F910F91C8
:1040500008952F923F924F925F926F927F928F922C
:104060009F92AF92BF92CF92DF92EF92FF920F9307
:104070001F93CF93DF93EC015B016A018B81811168
:1040800003C08FEF9FEFC9C0898180FFFACF4989B4
:104090005A896B897C8988859985AA85BB85260183
:1040A000612C712C8A019B01081B190B2A0B3B0BFD
:1040B000401651066206730618F06A01C81AD90A3A
:1040C00076013E0124E0620E711CE114F10409F452
:1040D00077C0488559856A857B854A0181E09822A9
:1040E0002B811A012B01E9E05694479437942794C9
:1040F000EA95D1F7898D9A8DFC01223049F4628DC1
:10410000738D848D958D620D731D841D951D3DC02D
:1041100014811150122181149104C9F4111117C096
:10412000452B462B472B49F48D899E89AF89B88D45
:104130008C839D83AE83BF830AC04C815D816E8179
:104140007F8193010E94F43E882309F49ACFE98D80
:10415000FA8D6C817D818E819F8162507109810908
:104160009109058404C0660F771F881F991F0A9460
:10417000D2F72685378540895189620F731F841FC6
:10418000951F610F711D811D911D20E032E02819DE
:10419000390987012E153F0508F489010115F2E060
:1041A0001F0769F52091420730914307409144076A
:1041B00050914507621773078407950719F41FC0CC
:1041C000C6012BC09501AB01BC01809140059091C7
:1041D00041050E943729882309F453CFA00EB11E50
:1041E00088859985AA85BB85800F911FA11DB11D6A
:1041F00088879987AA87BB87E01AF10A66CF40E0D3
:104200000E94BB3E882309F43CCFB4016E5B7A4F19
:10421000A801C5010E947EAEE1CFDF91CF911F9131
:104220000F91FF90EF90DF90CF90BF90AF909F9055
:104230008F907F906F905F904F903F902F90089558
:10424000CF93DF931F92CDB7DEB741E050E0BE01C0
:104250006F5F7F4F0E942920019719F4898190E0B8
:1042600002C08FEF9FEF0F90DF91CF910895AF9233
:10427000BF92CF92DF92EF92FF920F931F93CF9353
:10428000DF936C01EB017A01DC0113968C9113979B
:10429000823070F018960D911D912D913C911B97D5
:1042A0000F71112722273327012B022B032B11F02B
:1042B0008FEF59C04115510511F0F70110821DE033
:1042C00040E250E0BE01C6010E9429209C018032DC
:1042D000910531F081E0232B09F480E0819543C002
:1042E00088818823C1F1853E59F38E3249F3E11468
:1042F000F10461F19B859F739F3041F54A8D5B8D81
:10430000452B21F58F719FEF980F9230F8F490E0D4
:104310000197189F9001199F300D1124FE0180E034
:1043200090E05701A20EB31E8530B8F46181A5015B
:10433000480F591FDA016C93019632968D30910522
:1043400099F7888186FF02C0F50115868B8583FD6C
:10435000B7CF822F08C080E006C08B3010F4648194
:10436000E6CF6681E4CFDF91CF911F910F91FF904F
:10437000EF90DF90CF90BF90AF9008951F93CF93B1
:10438000DF93EC018B81823018F480E090E024C050
:10439000488559856A857B85A5E07695679557950B
:1043A0004795AA95D1F7142F1F70CE010E942021A6
:1043B00097FDEBCF488559856A857B85415E5F4FC8
:1043C0006F4F7F4F488759876A877B8720E2129F0C
:1043D000C00111248E5B9A4FDF91CF911F910895F8
:1043E0004F925F926F927F92AF92BF92CF92DF9285
:1043F000EF92FF920F931F93CF93DF93EC016A012B
:104400007B012B81222349F089899A89AB89BC8958
:1044100084179507A607B70710F480E06CC0223018
:1044200009F464C0C114D104E104F10449F41C820C
:104430001D821E821F82188619861A861B865AC004
:1044400088859985AA85BB85E98DFA8DE585F0E09B
:104450003996AC01BD0141505109610971090E2E17
:1044600004C076956795579547950A94D2F79701BA
:104470008601015011092109310904C0369527959B
:1044800017950795EA95D2F70417150726073707FA
:1044900020F0892B8A2B8B2B49F48D899E89AF893B
:1044A000B88D8C839D83AE83BF8304C0041B150B22
:1044B000260B370B280139015E0184E0A80EB11CE0
:1044C000411451046104710489F04C815D816E8155
:1044D0007F819501898D9A8D0E94F43E91E0491A61
:1044E0005108610871088111EBCF05C0C886D986D3
:1044F000EA86FB8681E0DF91CF911F910F91FF90BB
:10450000EF90DF90CF90BF90AF907F906F905F90D3
:104510004F9008950F931F93CF93DF93EC018B81FE
:104520008823E1F1898187FF33C061E0CE010E94D9
:10453000421F8C01009791F1FC018081853E71F151
:104540008B81823040F449895A896B897C89448FF8
:10455000558F668F778F4D895E896F89788DF801C9
:10456000538F428F758B648BE0918F03F091900392
:10457000309759F0B8016A5E7F4FC8014896099597
:10458000F801808D918D938B828B89818F778983C0
:10459000DF91CF911F910F910C947B3E81E0888336
:1045A00080E0DF91CF911F910F910895CF93DF931A
:1045B000EC010E948A221B82DF91CF910895FC01B9
:1045C000238121110C94D62208954F925F926F920D
:1045D0007F92AF92BF92CF92DF92EF92FF920F93B2
:1045E0001F93CF93DF9300D000D0CDB7DEB75C012F
:1045F0006A017B01FC0183818130F1F4818181FFBB
:104600001BC0F50181899289A389B4898417950714
:10461000A607B70788F0892B8A2B8B2B09F479C062
:10462000F5014084518462847384B701A601C501F9
:104630000E94F021811102C080E06CC0F501818DE3
:10464000928DC114D104E104F10471F445895689B5
:104650006789708D0E947841882371F3F501158A6E
:10466000168A178A108E3AC0F501448155816681F9
:1046700077819E012F5F3F4F0E94F43E8823E1F235
:1046800049815A816B817C81F501818D928DFC017C
:104690002789203139F4483FFFEF5F076105710535
:1046A000E8F407C0483F2FEF520762072FE0720778
:1046B000A8F40E947841882309F4BECFF501448113
:1046C0005581668177810FEF1FEF2FEF3FE0818DDE
:1046D000928D0E94DB3F882309F4AECFF501C18A99
:1046E000D28AE38AF48A818180688183C5010E942D
:1046F0008A22882309F4A0CFB701A6014C145D04D7
:104700006E047F0410F4B301A201C5010E94F021E0
:1047100001C081E00F900F900F900F90DF91CF912B
:104720001F910F91FF90EF90DF90CF90BF90AF90CF
:104730007F906F905F904F900895FF920F931F931B
:10474000CF93DF93EC01F42E80E2689FF0011124F7
:10475000EE5BFA4F8385817121F0842F827109F01D
:1047600050C08091420790914307A0914407B091B7
:1047700045078C879D87AE87BF87688B448955899D
:1047800060E070E0BA0155274427028D138D20E0C8
:1047900030E0402B512B622B732B4D8B5E8B6F8B3C
:1047A000788F8385887151F4048D158D268D378D12
:1047B000098B1A8B2B8B3C8B81E00CC0803109F567
:1047C0009E012F5E3F4F898D9A8D0E94743F8823F2
:1047D000C1F084E08B838F2D8F7089831C821D82B2
:1047E0001E821F82188619861A861B86F4FE0CC04C
:1047F00040E050E0BA01CE010E94E522811104C0E0
:1048000012C01B8280E00FC0F5FE0CC049895A8996
:104810006B897C89CE01DF91CF911F910F91FF9021
:104820000C94F02181E0DF91CF911F910F91FF90C7
:104830000895AF92BF92CF92DF92EF92FF920F93C3
:104840001F93CF93DF937C01EB016A01B22E898D18
:104850009A8DF701928F818F40E050E0BA01CE012E
:104860000E94F021A12C088519852A853B8589891C
:104870009A89AB89BC89081719072A073B07A8F54D
:1048800085E036952795179507958A95D1F70F708E
:10489000CE010E94BE21009709F485C0FC01208151
:1048A000222311F0253EB9F4A1100EC04091420719
:1048B000509143076091440770914507F701448781
:1048C000558766877787008BFC018081AA24A39493
:1048D0008111C9CF0AC04BE050E0BC01C6010E9463
:1048E00071AE892B09F0BFCF5CC08B2D82748234EE
:1048F00009F059C0AA2051F0F701008961E0C70111
:104900000E94421FEC01009771F44DC08B818230F0
:1049100009F449C0CE010E94B91E882309F443C09E
:10492000C2E4D5E000E080E2FE0111928A95E9F749
:104930008BE0F601DE0101900D928A95E1F7E0919E
:104940008F03F0919003309739F0BE01625F7F4F83
:10495000CE014096099508C081E298E2998B888B38
:1049600080E098E09F878E87888999899B8B8A8BC6
:10497000998F888F8E859F859F8B8E8B0E947B3E23
:10498000882389F04B2D602FC701DF91CF911F91B4
:104990000F91FF90EF90DF90CF90BF90AF900C946D
:1049A0009D23B7FEEFCF80E0DF91CF911F910F9154
:1049B000FF90EF90DF90CF90BF90AF9008953F921F
:1049C0004F925F926F927F928F929F92AF92BF921F
:1049D000CF92DF92EF92FF920F931F93CF93DF93CB
:1049E000CDB7DEB7C354D1090FB6F894DEBF0FBE02
:1049F000CDBF5C016B0124965FAF4EAF2497522E62
:104A00001C8E1F8E19821C826115710511F410E035
:104A100078C0FC0183818111FACF2496EEADFFAD01
:104A2000249780818F3211F076011EC02496EEAD5E
:104A3000FFAD249780818F3231F431962496FFAFF9
:104A4000EEAF2497F3CFF60183818250823060F37A
:104A5000F601618D728DCE0101960E94D71F8823C9
:104A6000B1F2CE0101967C018E01045E1F4F380128
:104A7000FE0131964F01402E312E1BC08823C1F11B
:104A800021E0AE01495C5F4FB701C8010E941924C3
:104A9000882309F4BCCFEC14FD0419F0C7010E946F
:104AA000D6220615170509F1942D832D7801092FBB
:104AB000182FAE014E5B5F4FBE01695C7F4F24969D
:104AC0008EAD9FAD24970E94981F882309F49FCF35
:104AD0002496EEADFFAD249780818F3279F6319622
:104AE0002496FFAFEEAF2497F3CF982D892DDECF1C
:104AF000252DAE01495C5F4FB701C5010E94192405
:104B0000182FCE0101960E94DF22CE014C960E9402
:104B1000DF22812FCD5BDF4F0FB6F894DEBF0FBED3
:104B2000CDBFDF91CF911F910F91FF90EF90DF905C
:104B3000CF90BF90AF909F908F907F906F905F903D
:104B40004F903F900895CF93DF93EC0140E050E009
:104B5000BA010E94E522882371F061E0CE010E9433
:104B6000421F009741F025EEFC0120831B82DF915C
:104B7000CF910C947B3E80E0DF91CF9108951F93FD
:104B8000CF93DF93CDB7DEB76B970FB6F894DEBF48
:104B90000FBECDBFAB0119821C8222E0BC01CE0149
:104BA00001960E94DF24182F882329F0CE01019658
:104BB0000E94A325182FCE0101960E94DF22812F8B
:104BC0006B960FB6F894DEBF0FBECDBFDF91CF91CD
:104BD0001F9108952F923F924F925F926F927F9212
:104BE0008F929F92AF92BF92CF92DF92EF92FF92FD
:104BF0000F931F93CF93DF9300D000D01F92CDB7B8
:104C0000DEB78C015B013A01DC0113968C9113979E
:104C10008130C9F411968C9181FF15C082FF19C0B3
:104C2000F801418952896389748980859185A285BB
:104C3000B38584179507A607B70759F0C8010E94E6
:104C4000F021811106C081E0F80180838FEF9FEF92
:104C50003BC1630183C0D80159968D919C915A97AD
:104C6000FC01F481F1501A012B0169E0569447943C
:104C7000379427946A95D1F7F221FD834A0121E008
:104C80009222FF2309F476C080E092E08819990906
:104C900076018C159D0508F47C01D8015996ED919B
:104CA000FC915A9714962D903D904D905C901797DB
:104CB000B2E02B1A310841085108058404C0220CC7
:104CC000331C441C551C0A94D2F786859785A0890D
:104CD000B189280E391E4A1E5B1EED812E0E311C35
:104CE000411C511CE114F2E0FF0609F08AC08091DA
:104CF000420790914307A0914407B0914507821560
:104D00009305A405B50569F410923F058FEF9FEF59
:104D1000DC018093420790934307A0934407B0932C
:104D200045079501B201A10180914005909141058F
:104D30000E949729882309F486CFF8018085918500
:104D4000A285B3858E0D9F1DA11DB11D8087918702
:104D5000A287B387AE0CBF1CCE18DF08D801189607
:104D60004D915D916D917C911B97C114D10409F017
:104D700072CF7DC08114910409F086CF14964D91B5
:104D80005D916D917C9117974115510561057105F4
:104D900059F455968D919D910D90BC91A02D009741
:104DA000A105B10541F521C09E012F5F3F4F0E9433
:104DB000F43E882309F447CF89819A81AB81BC8175
:104DC000F801218D328DF9012789203139F4883F8E
:104DD000FFEF9F07A105B10540F40DC0883F2FEFFD
:104DE0009207A2072FE0B20730F0C8010E94931E7D
:104DF00081114ACF28CFF80184839583A683B78396
:104E000043CF8114910419F5D80118964D915D9105
:104E10006D917C911B9751968D919D910D90BC91B8
:104E2000A02D481759076A077B0788F00E947B3E30
:104E3000882309F408CF81E080933F052092420740
:104E400030924307409244075092450708C041E022
:104E5000C201B1010E94BB3E882309F4F4CEA70130
:104E6000B501C4018E5B9A4F0E947EAE66CF51960B
:104E70008D919D910D90BC91A02DF80121818417F9
:104E80009507A607B70738F4418B528B638B748B59
:104E9000206821830CC080918F0390919003892B0F
:104EA00031F06114710419F02068F8012183D801F0
:104EB00011968C9183FD02C0C30106C0C8010E94F7
:104EC0008A228111F9CFBFCE0F900F900F900F90D3
:104ED0000F90DF91CF911F910F91FF90EF90DF9096
:104EE000CF90BF90AF909F908F907F906F905F908A
:104EF0004F903F902F9008958FEF8EBD0DB407FE19
:104F0000FDCF8EB508958EBD0DB407FEFDCF08957B
:104F100061E0FC0180810C94C2A5FC012281322F4A
:104F2000306A36953CBD20FD06C031E0263009F4DC
:104F300030E0232F01C020E02DBD60E0FC01808126
:104F40000C94C2A5CF92DF92EF92FF920F931F9322
:104F5000CF93DF93EC018B017A010E944AA46B018D
:104F60000E947C278B838F3F49F40E944AA46C19CE
:104F70007D096D327140A0F381E103C08E3F39F0AD
:104F80008FE08983CE010E94882780E027C0E1144A
:104F9000F104E1F081E0E81AF1088FEF8EBDF8012D
:104FA0002FEFCF01801B910B8E159F0538F40DB4A8
:104FB00007FEFDCF8EB581932EBDF3CF0DB407FE56
:104FC000FDCF8EB5F801EE0DFF1D80830E947C277A
:104FD0000E947C27CE010E94882781E0DF91CF913B
:104FE0001F910F91FF90EF90DF90CF9008950F9356
:104FF0001F93CF93DF93EB010E944AA48B010E9481
:105000007C278F3F49F00E944AA4601B710B6C17EC
:105010007D07A8F380E001C081E0DF91CF911F916F
:105020000F910895CF92DF92FF920F931F93CF932A
:10503000DF9300D000D0CDB7DEB76C01F62E298308
:105040003A834B835C830E948D276CE271E0C6013A
:105050000E94F7278F2D80640E94832708E110E0CB
:105060005C814B813A812981DA01C901002E04C09B
:10507000B695A795979587950A94D2F729833A8391
:105080004B835C830E9483270850110929813A8150
:105090004B815C81083F8FEF180731F7FF2029F023
:1050A000E8E0FE1621F08FEF03C085E901C087E834
:1050B0000E948327FCE0FF1202C00E947C2710E0C0
:1050C0000E947C27F601838387FF04C01F3F11F0F5
:1050D0001F5FF6CF0F900F900F900F90DF91CF9141
:1050E0001F910F91FF90DF90CF900895BF92CF92C4
:1050F000DF92EF92FF920F931F93CF93DF93EC0118
:10510000B62E1C82198248830E944AA48B0161E05A
:1051100088810E9489A5CE010E94882760E086E0F0
:105120000E9489A561E085E00E9489A561E087E091
:105130000E9489A561E084E00E9489A561E084E085
:105140000E94C2A585E08A8382E58CBD1DBC2AE051
:10515000F22E8FEF0E948327FA94D9F720E030E0F7
:10516000A90160E0CE010E941228F82E8B8381E015
:10517000F81649F00E944AA4601B710B613D77400C
:1051800068F381E04BC02AEA31E040E050E068E09B
:10519000CE010E94122882FF02C0FC820DC094E062
:1051A000F92E0E947C278B83FA94D9F78A3A11F062
:1051B00082E034C082E08C838C81823031F4C12C57
:1051C000D12CE12C80E4F82E03C0C12CD12C760127
:1051D00020E030E0A90167E3CE010E941228A70178
:1051E000960169E2CE010E9412288B83882349F040
:1051F0000E944AA4601B710B613D774048F38AE02E
:105200000DC08C818230E1F420E030E0A9016AE336
:10521000CE010E941228882331F088E08983CE01D4
:105220000E94882719C00E947C27807C803C11F452
:1052300083E08C830E947C270E947C270E947C272D
:10524000CE010E94882786E08B1518F488E18983B7
:1052500003C0BA8281E001C080E0DF91CF911F914D
:105260000F91FF90EF90DF90CF90BF9008950F9334
:105270001F93CF93DF93EC0189018C81833039F048
:1052800039E0440F551F661F771F3A95D1F79A01F1
:10529000AB0161E1CE010E94122881110AC040E0F9
:1052A00052E0B801CE01DF91CF911F910F910C9484
:1052B000A22784E08983CE010E94882780E0DF91C5
:1052C000CF911F910F910895CF93DF93EC016EBDA5
:1052D00020E030E00DB407FEFDCFFA01E20FF31F2E
:1052E00080818EBD0DB407FEFDCF81818EBD2E5F06
:1052F0003F4F211582E0380769F70DB407FEFDCF57
:105300008FEF0E9483278FEF0E9483270E947C27C4
:105310008B838F71853039F083E18983CE010E94C0
:10532000882780E001C081E0DF91CF9108950F933D
:105330001F93CF93DF93EC0189018C81833039F087
:1053400089E0440F551F661F771F8A95D1F79A0190
:10535000AB0168E1CE010E941228882311F086E09B
:1053600023C0A8016EEFCE010E9464298823E9F0D2
:1053700068E572E0CE010E94F727182F811102C064
:1053800087E112C020E030E0A9016DE0CE010E946B
:105390001228811108C00E947C27811104C0CE010F
:1053A0000E94882706C086E18983CE010E94882753
:1053B00010E0812FDF91CF911F910F9108951092EE
:1053C000A20308958091A203882309F47DC0E2E23C
:1053D000F6E18491882341F09091C00095FFFCCFC5
:1053E0008093C6003196F5CFEAE2F3E084918823FA
:1053F00041F09091C00095FFFCCF8093C60031969C
:10540000F5CF8091A20380FF1AC06091A303709131
:10541000A4038091A5039091A6030E94D6A7209192
:1054200010113091111140911211509113110E94DD
:105430003BA7AB01BC0186E293E00E9470438091E0
:10544000A20381FF1AC06091A7037091A803809105
:10545000A9039091AA030E94D6A72091141130911C
:10546000151140911611509117110E943BA7AB01E5
:10547000BC0182E293E00E9470438091A20382FF0C
:105480001AC06091AB037091AC038091AD03909111
:10549000AE030E94D6A720911811309119114091A6
:1054A0001A1150911B110E943BA7AB01BC018EE168
:1054B00093E00E9470438091C00085FFFCCF8AE09A
:1054C0008093C6001092A203089580930A01089564
:1054D0005091D40350FF3BC046B142FB882780F96E
:1054E00090E0482F892BA1F18091A10380FF30C06B
:1054F000E091D503F091D60380819181A281B3819F
:10550000181619061A061B061CF580919103909136
:105510009203A0919303B09194038093A30390937B
:10552000A403A093A503B093A6038091A203816076
:105530008093A20380899189A289B3898093BE0355
:105540009093BF03A093C003B093C10301C040E098
:1055500051FD45C0E6B1842F90E0E3FB662760F97A
:1055600070E07195619571096827792760727727D6
:1055700068277927462F65FF32C08091A10385FFF8
:105580002EC0E091D503F091D60384819581A68148
:10559000B781181619061A061B060CF5809195039B
:1055A00090919603A0919703B09198038093A703DD
:1055B0009093A803A093A903B093AA038091A20398
:1055C00082608093A20380899189A289B3898093A4
:1055D000BE039093BF03A093C003B093C10352FFD7
:1055E00047C086B150E082958F7091E08927282FBF
:1055F000217030E031952195310924273527247019
:10560000332724273527422F22FF32C08091A10360
:1056100082FF2EC0E091D503F091D603808591855D
:10562000A285B385181619061A061B060CF580917B
:10563000990390919A03A0919B03B0919C0380934E
:10564000AB039093AC03A093AD03B093AE038091F2
:10565000A20384608093A20380899189A289B3897F
:105660008093BE039093BF03A093C003B093C10384
:105670004093A1030895EFE6F0E08081826080838B
:1056800008958091D40380FF03C045988FEF02C036
:10569000459A81E0809306018091D40381FF03C085
:1056A00047988FEF02C0479A81E08093070180916D
:1056B000D40382FF03C02A9A8FEF02C02A9881E0A8
:1056C000809308018091D40383FF03C0289A8FEF51
:1056D00002C0289881E08093090108951F920F92DB
:1056E0000FB60F9211240BB60F920F931F932F93A7
:1056F0003F934F935F936F937F938F939F93AF935A
:10570000BF93EF93FF938091D2039091D3030097BF
:1057100031F11092D6031092D5033091FE0B2091F7
:10572000FD0B321731F02091FD0B2F5F2F7020936E
:10573000FD0B019721F482E193E00E947044809177
:10574000D2039091D30301979093D3038093D20314
:1057500088EC90E090938900809388009EC58091AA
:10576000D5039091D603892B09F094C19091FE0B3B
:105770008091FD0B981771F0E091FD0B8DE4E89F8F
:10578000F0011124E150F44FDF01A45BBF4F81E031
:105790008C9302C0E0E0F0E0F093D603E093D503F1
:1057A000309709F471C1DF01A45BBF4F81E08C9396
:1057B00080A19091D403891721F08093D4030E9493
:1057C000412B1092B6031092B7031092B8031092B7
:1057D000B903E091D503F091D60360AD71AD6134AA
:1057E0008CE9780728F461328EE4780748F002C02B
:1057F00060E47CE9769567957695679584E007C0C7
:10580000613187E2780730F07695679582E0809382
:10581000B30308C081E08093B3036032710510F4D4
:1058200060E270E060527109611588E07807D0F09D
:10583000872F9927880F991F880F991F875C984F8A
:10584000FC01329645915491AA27659F9001649F6F
:10585000210D3A1F06942A1F3A1F1124FC0185913D
:1058600094911DC0CB01969587958C7F875C9C4F4A
:10587000FC01459154910296FC0185919491FB01A4
:10588000E770FF278E9F90018F9F300D9E9F300DF8
:105890001124E3E036952795EA95E1F7CA01821BCA
:1058A000930B84369105A0F4E1EDF1E0819188231A
:1058B00039F09091C00095FFFCCF8093C600F6CFE1
:1058C0004AE050E08AE093E00E943D1384E690E0D5
:1058D0009093B2038093B1038091B303992787FD1E
:1058E00090959093B0038093AF03E091D503F0912E
:1058F000D60364AD75AD7093B5036093B4036134A2
:105900008CE9780728F461328EE4780748F002C009
:1059100060E47CE9769567957695679584E007C0A5
:10592000613187E2780730F07695679582E0809361
:10593000B30308C081E08093B3036032710510F4B3
:1059400060E270E060527109611588E07807E0F06C
:10595000872F9927880F991F880F991F875C984F69
:10596000FC01329625913491AA27639FA001629F82
:10597000410D5A1F06944A1F5A1F1124FC012591FC
:105980003491241B350B1EC0CB01969587958C7FD7
:10599000875C9C4FFC01259134910296FC01459156
:1059A0005491FB01E770FF274E9FC0014F9F900D60
:1059B0005E9F900D1124F3E096958795FA95E1F797
:1059C000281B390B24363105A0F4E1EDF1E081917B
:1059D000882339F09091C00095FFFCCF8093C600DA
:1059E000F6CF4AE050E08AE093E00E943D1324E6BF
:1059F00030E0C901A0E0B0E08093BA039093BB030C
:105A0000A093BC03B093BD0330938900209388001A
:105A1000E091D503F091D60380899189A289B38959
:105A2000B695A79597958795B095A09590958195F2
:105A30009F4FAF4FBF4F8093CE039093CF03A09360
:105A4000D003B093D1038093C2039093C303A09378
:105A5000C403B093C5038093C6039093C703A09378
:105A6000C803B093C9038093CA039093CB03A09358
:105A7000CC03B093CD031092BE031092BF031092DB
:105A8000C0031092C10306C080ED97E09093890097
:105A9000809388008091D5039091D603892B09F4D7
:105AA000FCC380910A0181110E94682A20E0809144
:105AB000B30328170CF0C1C18091C00087FF19C043
:105AC0003091C60040918B0350918C03CA0101961E
:105AD0008F77992760918D0370918E0386179707B2
